{
	"@axelar-network/axelar-gmp-sdk-solidity/contracts/executable/AxelarExecutable.sol": {
		"AxelarExecutable": {
			"abi": [
				{
					"inputs": [
						{
							"internalType": "address",
							"name": "gateway_",
							"type": "address"
						}
					],
					"stateMutability": "nonpayable",
					"type": "constructor"
				},
				{
					"inputs": [],
					"name": "InvalidAddress",
					"type": "error"
				},
				{
					"inputs": [],
					"name": "NotApprovedByGateway",
					"type": "error"
				},
				{
					"inputs": [
						{
							"internalType": "bytes32",
							"name": "commandId",
							"type": "bytes32"
						},
						{
							"internalType": "string",
							"name": "sourceChain",
							"type": "string"
						},
						{
							"internalType": "string",
							"name": "sourceAddress",
							"type": "string"
						},
						{
							"internalType": "bytes",
							"name": "payload",
							"type": "bytes"
						}
					],
					"name": "execute",
					"outputs": [],
					"stateMutability": "nonpayable",
					"type": "function"
				},
				{
					"inputs": [
						{
							"internalType": "bytes32",
							"name": "commandId",
							"type": "bytes32"
						},
						{
							"internalType": "string",
							"name": "sourceChain",
							"type": "string"
						},
						{
							"internalType": "string",
							"name": "sourceAddress",
							"type": "string"
						},
						{
							"internalType": "bytes",
							"name": "payload",
							"type": "bytes"
						},
						{
							"internalType": "string",
							"name": "tokenSymbol",
							"type": "string"
						},
						{
							"internalType": "uint256",
							"name": "amount",
							"type": "uint256"
						}
					],
					"name": "executeWithToken",
					"outputs": [],
					"stateMutability": "nonpayable",
					"type": "function"
				},
				{
					"inputs": [],
					"name": "gateway",
					"outputs": [
						{
							"internalType": "contract IAxelarGateway",
							"name": "",
							"type": "address"
						}
					],
					"stateMutability": "view",
					"type": "function"
				}
			],
			"devdoc": {
				"kind": "dev",
				"methods": {},
				"version": 1
			},
			"evm": {
				"assembly": "    /* \"@axelar-network/axelar-gmp-sdk-solidity/contracts/executable/AxelarExecutable.sol\":199:1925  contract AxelarExecutable is IAxelarExecutable {... */\n  mstore(0x40, 0xa0)\n    /* \"@axelar-network/axelar-gmp-sdk-solidity/contracts/executable/AxelarExecutable.sol\":298:441  constructor(address gateway_) {... */\n  callvalue\n  dup1\n  iszero\n  tag_1\n  jumpi\n  0x00\n  dup1\n  revert\ntag_1:\n  pop\n  mload(0x40)\n  sub(codesize, bytecodeSize)\n  dup1\n  bytecodeSize\n  dup4\n  codecopy\n  dup2\n  dup2\n  add\n  0x40\n  mstore\n  dup2\n  add\n  swap1\n  tag_2\n  swap2\n  swap1\n  tag_3\n  jump\t// in\ntag_2:\n    /* \"@axelar-network/axelar-gmp-sdk-solidity/contracts/executable/AxelarExecutable.sol\":362:363  0 */\n  0x00\n    /* \"@axelar-network/axelar-gmp-sdk-solidity/contracts/executable/AxelarExecutable.sol\":342:364  gateway_ == address(0) */\n  0xffffffffffffffffffffffffffffffffffffffff\n  and\n    /* \"@axelar-network/axelar-gmp-sdk-solidity/contracts/executable/AxelarExecutable.sol\":342:350  gateway_ */\n  dup2\n    /* \"@axelar-network/axelar-gmp-sdk-solidity/contracts/executable/AxelarExecutable.sol\":342:364  gateway_ == address(0) */\n  0xffffffffffffffffffffffffffffffffffffffff\n  and\n  sub\n    /* \"@axelar-network/axelar-gmp-sdk-solidity/contracts/executable/AxelarExecutable.sol\":338:389  if (gateway_ == address(0)) revert InvalidAddress() */\n  tag_6\n  jumpi\n    /* \"@axelar-network/axelar-gmp-sdk-solidity/contracts/executable/AxelarExecutable.sol\":373:389  InvalidAddress() */\n  mload(0x40)\n  0xe6c4247b00000000000000000000000000000000000000000000000000000000\n  dup2\n  mstore\n  0x04\n  add\n  mload(0x40)\n  dup1\n  swap2\n  sub\n  swap1\n  revert\n    /* \"@axelar-network/axelar-gmp-sdk-solidity/contracts/executable/AxelarExecutable.sol\":338:389  if (gateway_ == address(0)) revert InvalidAddress() */\ntag_6:\n    /* \"@axelar-network/axelar-gmp-sdk-solidity/contracts/executable/AxelarExecutable.sol\":425:433  gateway_ */\n  dup1\n    /* \"@axelar-network/axelar-gmp-sdk-solidity/contracts/executable/AxelarExecutable.sol\":400:434  gateway = IAxelarGateway(gateway_) */\n  0xffffffffffffffffffffffffffffffffffffffff\n  and\n  0x80\n  dup2\n  0xffffffffffffffffffffffffffffffffffffffff\n  and\n  dup2\n  mstore\n  pop\n  pop\n    /* \"@axelar-network/axelar-gmp-sdk-solidity/contracts/executable/AxelarExecutable.sol\":298:441  constructor(address gateway_) {... */\n  pop\n    /* \"@axelar-network/axelar-gmp-sdk-solidity/contracts/executable/AxelarExecutable.sol\":199:1925  contract AxelarExecutable is IAxelarExecutable {... */\n  jump(tag_7)\n    /* \"#utility.yul\":88:205   */\ntag_9:\n    /* \"#utility.yul\":197:198   */\n  0x00\n    /* \"#utility.yul\":194:195   */\n  dup1\n    /* \"#utility.yul\":187:199   */\n  revert\n    /* \"#utility.yul\":334:460   */\ntag_11:\n    /* \"#utility.yul\":371:378   */\n  0x00\n    /* \"#utility.yul\":411:453   */\n  0xffffffffffffffffffffffffffffffffffffffff\n    /* \"#utility.yul\":404:409   */\n  dup3\n    /* \"#utility.yul\":400:454   */\n  and\n    /* \"#utility.yul\":389:454   */\n  swap1\n  pop\n    /* \"#utility.yul\":334:460   */\n  swap2\n  swap1\n  pop\n  jump\t// out\n    /* \"#utility.yul\":466:562   */\ntag_12:\n    /* \"#utility.yul\":503:510   */\n  0x00\n    /* \"#utility.yul\":532:556   */\n  tag_21\n    /* \"#utility.yul\":550:555   */\n  dup3\n    /* \"#utility.yul\":532:556   */\n  tag_11\n  jump\t// in\ntag_21:\n    /* \"#utility.yul\":521:556   */\n  swap1\n  pop\n    /* \"#utility.yul\":466:562   */\n  swap2\n  swap1\n  pop\n  jump\t// out\n    /* \"#utility.yul\":568:690   */\ntag_13:\n    /* \"#utility.yul\":641:665   */\n  tag_23\n    /* \"#utility.yul\":659:664   */\n  dup2\n    /* \"#utility.yul\":641:665   */\n  tag_12\n  jump\t// in\ntag_23:\n    /* \"#utility.yul\":634:639   */\n  dup2\n    /* \"#utility.yul\":631:666   */\n  eq\n    /* \"#utility.yul\":621:684   */\n  tag_24\n  jumpi\n    /* \"#utility.yul\":680:681   */\n  0x00\n    /* \"#utility.yul\":677:678   */\n  dup1\n    /* \"#utility.yul\":670:682   */\n  revert\n    /* \"#utility.yul\":621:684   */\ntag_24:\n    /* \"#utility.yul\":568:690   */\n  pop\n  jump\t// out\n    /* \"#utility.yul\":696:839   */\ntag_14:\n    /* \"#utility.yul\":753:758   */\n  0x00\n    /* \"#utility.yul\":784:790   */\n  dup2\n    /* \"#utility.yul\":778:791   */\n  mload\n    /* \"#utility.yul\":769:791   */\n  swap1\n  pop\n    /* \"#utility.yul\":800:833   */\n  tag_26\n    /* \"#utility.yul\":827:832   */\n  dup2\n    /* \"#utility.yul\":800:833   */\n  tag_13\n  jump\t// in\ntag_26:\n    /* \"#utility.yul\":696:839   */\n  swap3\n  swap2\n  pop\n  pop\n  jump\t// out\n    /* \"#utility.yul\":845:1196   */\ntag_3:\n    /* \"#utility.yul\":915:921   */\n  0x00\n    /* \"#utility.yul\":964:966   */\n  0x20\n    /* \"#utility.yul\":952:961   */\n  dup3\n    /* \"#utility.yul\":943:950   */\n  dup5\n    /* \"#utility.yul\":939:962   */\n  sub\n    /* \"#utility.yul\":935:967   */\n  slt\n    /* \"#utility.yul\":932:1051   */\n  iszero\n  tag_28\n  jumpi\n    /* \"#utility.yul\":970:1049   */\n  tag_29\n  tag_9\n  jump\t// in\ntag_29:\n    /* \"#utility.yul\":932:1051   */\ntag_28:\n    /* \"#utility.yul\":1090:1091   */\n  0x00\n    /* \"#utility.yul\":1115:1179   */\n  tag_30\n    /* \"#utility.yul\":1171:1178   */\n  dup5\n    /* \"#utility.yul\":1162:1168   */\n  dup3\n    /* \"#utility.yul\":1151:1160   */\n  dup6\n    /* \"#utility.yul\":1147:1169   */\n  add\n    /* \"#utility.yul\":1115:1179   */\n  tag_14\n  jump\t// in\ntag_30:\n    /* \"#utility.yul\":1105:1179   */\n  swap2\n  pop\n    /* \"#utility.yul\":1061:1189   */\n  pop\n    /* \"#utility.yul\":845:1196   */\n  swap3\n  swap2\n  pop\n  pop\n  jump\t// out\n    /* \"@axelar-network/axelar-gmp-sdk-solidity/contracts/executable/AxelarExecutable.sol\":199:1925  contract AxelarExecutable is IAxelarExecutable {... */\ntag_7:\n  mload(0x80)\n  codecopy(0x00, dataOffset(sub_0), dataSize(sub_0))\n  0x00\n  assignImmutable(\"0x1a192fabce13988b84994d4296e6cdc418d55e2f1d7f942188d4040b94fc57ac\")\n  return(0x00, dataSize(sub_0))\nstop\n\nsub_0: assembly {\n        /* \"@axelar-network/axelar-gmp-sdk-solidity/contracts/executable/AxelarExecutable.sol\":199:1925  contract AxelarExecutable is IAxelarExecutable {... */\n      mstore(0x40, 0x80)\n      callvalue\n      dup1\n      iszero\n      tag_1\n      jumpi\n      0x00\n      dup1\n      revert\n    tag_1:\n      pop\n      jumpi(tag_2, lt(calldatasize, 0x04))\n      shr(0xe0, calldataload(0x00))\n      dup1\n      0x116191b6\n      eq\n      tag_3\n      jumpi\n      dup1\n      0x1a98b2e0\n      eq\n      tag_4\n      jumpi\n      dup1\n      0x49160658\n      eq\n      tag_5\n      jumpi\n    tag_2:\n      0x00\n      dup1\n      revert\n        /* \"@axelar-network/axelar-gmp-sdk-solidity/contracts/executable/AxelarExecutable.sol\":252:291  IAxelarGateway public immutable gateway */\n    tag_3:\n      tag_6\n      tag_7\n      jump\t// in\n    tag_6:\n      mload(0x40)\n      tag_8\n      swap2\n      swap1\n      tag_9\n      jump\t// in\n    tag_8:\n      mload(0x40)\n      dup1\n      swap2\n      sub\n      swap1\n      return\n        /* \"@axelar-network/axelar-gmp-sdk-solidity/contracts/executable/AxelarExecutable.sol\":872:1539  function executeWithToken(... */\n    tag_4:\n      tag_10\n      0x04\n      dup1\n      calldatasize\n      sub\n      dup2\n      add\n      swap1\n      tag_11\n      swap2\n      swap1\n      tag_12\n      jump\t// in\n    tag_11:\n      tag_13\n      jump\t// in\n    tag_10:\n      stop\n        /* \"@axelar-network/axelar-gmp-sdk-solidity/contracts/executable/AxelarExecutable.sol\":447:866  function execute(... */\n    tag_5:\n      tag_14\n      0x04\n      dup1\n      calldatasize\n      sub\n      dup2\n      add\n      swap1\n      tag_15\n      swap2\n      swap1\n      tag_16\n      jump\t// in\n    tag_15:\n      tag_17\n      jump\t// in\n    tag_14:\n      stop\n        /* \"@axelar-network/axelar-gmp-sdk-solidity/contracts/executable/AxelarExecutable.sol\":252:291  IAxelarGateway public immutable gateway */\n    tag_7:\n      immutable(\"0x1a192fabce13988b84994d4296e6cdc418d55e2f1d7f942188d4040b94fc57ac\")\n      dup2\n      jump\t// out\n        /* \"@axelar-network/axelar-gmp-sdk-solidity/contracts/executable/AxelarExecutable.sol\":872:1539  function executeWithToken(... */\n    tag_13:\n        /* \"@axelar-network/axelar-gmp-sdk-solidity/contracts/executable/AxelarExecutable.sol\":1119:1138  bytes32 payloadHash */\n      0x00\n        /* \"@axelar-network/axelar-gmp-sdk-solidity/contracts/executable/AxelarExecutable.sol\":1151:1158  payload */\n      dup6\n      dup6\n        /* \"@axelar-network/axelar-gmp-sdk-solidity/contracts/executable/AxelarExecutable.sol\":1141:1159  keccak256(payload) */\n      mload(0x40)\n      tag_19\n      swap3\n      swap2\n      swap1\n      tag_20\n      jump\t// in\n    tag_19:\n      mload(0x40)\n      dup1\n      swap2\n      sub\n      swap1\n      keccak256\n        /* \"@axelar-network/axelar-gmp-sdk-solidity/contracts/executable/AxelarExecutable.sol\":1119:1159  bytes32 payloadHash = keccak256(payload) */\n      swap1\n      pop\n        /* \"@axelar-network/axelar-gmp-sdk-solidity/contracts/executable/AxelarExecutable.sol\":1188:1195  gateway */\n      immutable(\"0x1a192fabce13988b84994d4296e6cdc418d55e2f1d7f942188d4040b94fc57ac\")\n        /* \"@axelar-network/axelar-gmp-sdk-solidity/contracts/executable/AxelarExecutable.sol\":1188:1223  gateway.validateContractCallAndMint */\n      0xffffffffffffffffffffffffffffffffffffffff\n      and\n      0x1876eed9\n        /* \"@axelar-network/axelar-gmp-sdk-solidity/contracts/executable/AxelarExecutable.sol\":1241:1250  commandId */\n      dup13\n        /* \"@axelar-network/axelar-gmp-sdk-solidity/contracts/executable/AxelarExecutable.sol\":1268:1279  sourceChain */\n      dup13\n      dup13\n        /* \"@axelar-network/axelar-gmp-sdk-solidity/contracts/executable/AxelarExecutable.sol\":1297:1310  sourceAddress */\n      dup13\n      dup13\n        /* \"@axelar-network/axelar-gmp-sdk-solidity/contracts/executable/AxelarExecutable.sol\":1328:1339  payloadHash */\n      dup8\n        /* \"@axelar-network/axelar-gmp-sdk-solidity/contracts/executable/AxelarExecutable.sol\":1357:1368  tokenSymbol */\n      dup12\n      dup12\n        /* \"@axelar-network/axelar-gmp-sdk-solidity/contracts/executable/AxelarExecutable.sol\":1386:1392  amount */\n      dup12\n        /* \"@axelar-network/axelar-gmp-sdk-solidity/contracts/executable/AxelarExecutable.sol\":1188:1406  gateway.validateContractCallAndMint(... */\n      mload(0x40)\n      dup11\n      0xffffffff\n      and\n      0xe0\n      shl\n      dup2\n      mstore\n      0x04\n      add\n      tag_21\n      swap10\n      swap9\n      swap8\n      swap7\n      swap6\n      swap5\n      swap4\n      swap3\n      swap2\n      swap1\n      tag_22\n      jump\t// in\n    tag_21:\n      0x20\n      mload(0x40)\n      dup1\n      dup4\n      sub\n      dup2\n      0x00\n      dup8\n      gas\n      call\n      iszero\n      dup1\n      iszero\n      tag_24\n      jumpi\n      returndatasize\n      0x00\n      dup1\n      returndatacopy\n      revert(0x00, returndatasize)\n    tag_24:\n      pop\n      pop\n      pop\n      pop\n      mload(0x40)\n      returndatasize\n      not(0x1f)\n      0x1f\n      dup3\n      add\n      and\n      dup3\n      add\n      dup1\n      0x40\n      mstore\n      pop\n      dup2\n      add\n      swap1\n      tag_25\n      swap2\n      swap1\n      tag_26\n      jump\t// in\n    tag_25:\n        /* \"@axelar-network/axelar-gmp-sdk-solidity/contracts/executable/AxelarExecutable.sol\":1170:1446  if (... */\n      tag_27\n      jumpi\n        /* \"@axelar-network/axelar-gmp-sdk-solidity/contracts/executable/AxelarExecutable.sol\":1424:1446  NotApprovedByGateway() */\n      mload(0x40)\n      0x500c44b400000000000000000000000000000000000000000000000000000000\n      dup2\n      mstore\n      0x04\n      add\n      mload(0x40)\n      dup1\n      swap2\n      sub\n      swap1\n      revert\n        /* \"@axelar-network/axelar-gmp-sdk-solidity/contracts/executable/AxelarExecutable.sol\":1170:1446  if (... */\n    tag_27:\n        /* \"@axelar-network/axelar-gmp-sdk-solidity/contracts/executable/AxelarExecutable.sol\":1457:1532  _executeWithToken(sourceChain, sourceAddress, payload, tokenSymbol, amount) */\n      tag_28\n        /* \"@axelar-network/axelar-gmp-sdk-solidity/contracts/executable/AxelarExecutable.sol\":1475:1486  sourceChain */\n      dup11\n      dup11\n        /* \"@axelar-network/axelar-gmp-sdk-solidity/contracts/executable/AxelarExecutable.sol\":1488:1501  sourceAddress */\n      dup11\n      dup11\n        /* \"@axelar-network/axelar-gmp-sdk-solidity/contracts/executable/AxelarExecutable.sol\":1503:1510  payload */\n      dup11\n      dup11\n        /* \"@axelar-network/axelar-gmp-sdk-solidity/contracts/executable/AxelarExecutable.sol\":1512:1523  tokenSymbol */\n      dup11\n      dup11\n        /* \"@axelar-network/axelar-gmp-sdk-solidity/contracts/executable/AxelarExecutable.sol\":1525:1531  amount */\n      dup11\n        /* \"@axelar-network/axelar-gmp-sdk-solidity/contracts/executable/AxelarExecutable.sol\":1457:1474  _executeWithToken */\n      tag_29\n        /* \"@axelar-network/axelar-gmp-sdk-solidity/contracts/executable/AxelarExecutable.sol\":1457:1532  _executeWithToken(sourceChain, sourceAddress, payload, tokenSymbol, amount) */\n      jump\t// in\n    tag_28:\n        /* \"@axelar-network/axelar-gmp-sdk-solidity/contracts/executable/AxelarExecutable.sol\":1109:1539  {... */\n      pop\n        /* \"@axelar-network/axelar-gmp-sdk-solidity/contracts/executable/AxelarExecutable.sol\":872:1539  function executeWithToken(... */\n      pop\n      pop\n      pop\n      pop\n      pop\n      pop\n      pop\n      pop\n      pop\n      pop\n      jump\t// out\n        /* \"@axelar-network/axelar-gmp-sdk-solidity/contracts/executable/AxelarExecutable.sol\":447:866  function execute(... */\n    tag_17:\n        /* \"@axelar-network/axelar-gmp-sdk-solidity/contracts/executable/AxelarExecutable.sol\":624:643  bytes32 payloadHash */\n      0x00\n        /* \"@axelar-network/axelar-gmp-sdk-solidity/contracts/executable/AxelarExecutable.sol\":656:663  payload */\n      dup3\n      dup3\n        /* \"@axelar-network/axelar-gmp-sdk-solidity/contracts/executable/AxelarExecutable.sol\":646:664  keccak256(payload) */\n      mload(0x40)\n      tag_31\n      swap3\n      swap2\n      swap1\n      tag_20\n      jump\t// in\n    tag_31:\n      mload(0x40)\n      dup1\n      swap2\n      sub\n      swap1\n      keccak256\n        /* \"@axelar-network/axelar-gmp-sdk-solidity/contracts/executable/AxelarExecutable.sol\":624:664  bytes32 payloadHash = keccak256(payload) */\n      swap1\n      pop\n        /* \"@axelar-network/axelar-gmp-sdk-solidity/contracts/executable/AxelarExecutable.sol\":680:687  gateway */\n      immutable(\"0x1a192fabce13988b84994d4296e6cdc418d55e2f1d7f942188d4040b94fc57ac\")\n        /* \"@axelar-network/axelar-gmp-sdk-solidity/contracts/executable/AxelarExecutable.sol\":680:708  gateway.validateContractCall */\n      0xffffffffffffffffffffffffffffffffffffffff\n      and\n      0x5f6970c3\n        /* \"@axelar-network/axelar-gmp-sdk-solidity/contracts/executable/AxelarExecutable.sol\":709:718  commandId */\n      dup10\n        /* \"@axelar-network/axelar-gmp-sdk-solidity/contracts/executable/AxelarExecutable.sol\":720:731  sourceChain */\n      dup10\n      dup10\n        /* \"@axelar-network/axelar-gmp-sdk-solidity/contracts/executable/AxelarExecutable.sol\":733:746  sourceAddress */\n      dup10\n      dup10\n        /* \"@axelar-network/axelar-gmp-sdk-solidity/contracts/executable/AxelarExecutable.sol\":748:759  payloadHash */\n      dup8\n        /* \"@axelar-network/axelar-gmp-sdk-solidity/contracts/executable/AxelarExecutable.sol\":680:760  gateway.validateContractCall(commandId, sourceChain, sourceAddress, payloadHash) */\n      mload(0x40)\n      dup8\n      0xffffffff\n      and\n      0xe0\n      shl\n      dup2\n      mstore\n      0x04\n      add\n      tag_32\n      swap7\n      swap6\n      swap5\n      swap4\n      swap3\n      swap2\n      swap1\n      tag_33\n      jump\t// in\n    tag_32:\n      0x20\n      mload(0x40)\n      dup1\n      dup4\n      sub\n      dup2\n      0x00\n      dup8\n      gas\n      call\n      iszero\n      dup1\n      iszero\n      tag_35\n      jumpi\n      returndatasize\n      0x00\n      dup1\n      returndatacopy\n      revert(0x00, returndatasize)\n    tag_35:\n      pop\n      pop\n      pop\n      pop\n      mload(0x40)\n      returndatasize\n      not(0x1f)\n      0x1f\n      dup3\n      add\n      and\n      dup3\n      add\n      dup1\n      0x40\n      mstore\n      pop\n      dup2\n      add\n      swap1\n      tag_36\n      swap2\n      swap1\n      tag_26\n      jump\t// in\n    tag_36:\n        /* \"@axelar-network/axelar-gmp-sdk-solidity/contracts/executable/AxelarExecutable.sol\":675:803  if (!gateway.validateContractCall(commandId, sourceChain, sourceAddress, payloadHash))... */\n      tag_37\n      jumpi\n        /* \"@axelar-network/axelar-gmp-sdk-solidity/contracts/executable/AxelarExecutable.sol\":781:803  NotApprovedByGateway() */\n      mload(0x40)\n      0x500c44b400000000000000000000000000000000000000000000000000000000\n      dup2\n      mstore\n      0x04\n      add\n      mload(0x40)\n      dup1\n      swap2\n      sub\n      swap1\n      revert\n        /* \"@axelar-network/axelar-gmp-sdk-solidity/contracts/executable/AxelarExecutable.sol\":675:803  if (!gateway.validateContractCall(commandId, sourceChain, sourceAddress, payloadHash))... */\n    tag_37:\n        /* \"@axelar-network/axelar-gmp-sdk-solidity/contracts/executable/AxelarExecutable.sol\":814:859  _execute(sourceChain, sourceAddress, payload) */\n      tag_38\n        /* \"@axelar-network/axelar-gmp-sdk-solidity/contracts/executable/AxelarExecutable.sol\":823:834  sourceChain */\n      dup8\n      dup8\n        /* \"@axelar-network/axelar-gmp-sdk-solidity/contracts/executable/AxelarExecutable.sol\":836:849  sourceAddress */\n      dup8\n      dup8\n        /* \"@axelar-network/axelar-gmp-sdk-solidity/contracts/executable/AxelarExecutable.sol\":851:858  payload */\n      dup8\n      dup8\n        /* \"@axelar-network/axelar-gmp-sdk-solidity/contracts/executable/AxelarExecutable.sol\":814:822  _execute */\n      tag_39\n        /* \"@axelar-network/axelar-gmp-sdk-solidity/contracts/executable/AxelarExecutable.sol\":814:859  _execute(sourceChain, sourceAddress, payload) */\n      jump\t// in\n    tag_38:\n        /* \"@axelar-network/axelar-gmp-sdk-solidity/contracts/executable/AxelarExecutable.sol\":614:866  {... */\n      pop\n        /* \"@axelar-network/axelar-gmp-sdk-solidity/contracts/executable/AxelarExecutable.sol\":447:866  function execute(... */\n      pop\n      pop\n      pop\n      pop\n      pop\n      pop\n      pop\n      jump\t// out\n        /* \"@axelar-network/axelar-gmp-sdk-solidity/contracts/executable/AxelarExecutable.sol\":1702:1923  function _executeWithToken(... */\n    tag_29:\n      pop\n      pop\n      pop\n      pop\n      pop\n      pop\n      pop\n      pop\n      pop\n      jump\t// out\n        /* \"@axelar-network/axelar-gmp-sdk-solidity/contracts/executable/AxelarExecutable.sol\":1545:1696  function _execute(... */\n    tag_39:\n      pop\n      pop\n      pop\n      pop\n      pop\n      pop\n      jump\t// out\n        /* \"#utility.yul\":7:133   */\n    tag_42:\n        /* \"#utility.yul\":44:51   */\n      0x00\n        /* \"#utility.yul\":84:126   */\n      0xffffffffffffffffffffffffffffffffffffffff\n        /* \"#utility.yul\":77:82   */\n      dup3\n        /* \"#utility.yul\":73:127   */\n      and\n        /* \"#utility.yul\":62:127   */\n      swap1\n      pop\n        /* \"#utility.yul\":7:133   */\n      swap2\n      swap1\n      pop\n      jump\t// out\n        /* \"#utility.yul\":139:199   */\n    tag_43:\n        /* \"#utility.yul\":167:170   */\n      0x00\n        /* \"#utility.yul\":188:193   */\n      dup2\n        /* \"#utility.yul\":181:193   */\n      swap1\n      pop\n        /* \"#utility.yul\":139:199   */\n      swap2\n      swap1\n      pop\n      jump\t// out\n        /* \"#utility.yul\":205:347   */\n    tag_44:\n        /* \"#utility.yul\":255:264   */\n      0x00\n        /* \"#utility.yul\":288:341   */\n      tag_77\n        /* \"#utility.yul\":306:340   */\n      tag_78\n        /* \"#utility.yul\":315:339   */\n      tag_79\n        /* \"#utility.yul\":333:338   */\n      dup5\n        /* \"#utility.yul\":315:339   */\n      tag_42\n      jump\t// in\n    tag_79:\n        /* \"#utility.yul\":306:340   */\n      tag_43\n      jump\t// in\n    tag_78:\n        /* \"#utility.yul\":288:341   */\n      tag_42\n      jump\t// in\n    tag_77:\n        /* \"#utility.yul\":275:341   */\n      swap1\n      pop\n        /* \"#utility.yul\":205:347   */\n      swap2\n      swap1\n      pop\n      jump\t// out\n        /* \"#utility.yul\":353:479   */\n    tag_45:\n        /* \"#utility.yul\":403:412   */\n      0x00\n        /* \"#utility.yul\":436:473   */\n      tag_81\n        /* \"#utility.yul\":467:472   */\n      dup3\n        /* \"#utility.yul\":436:473   */\n      tag_44\n      jump\t// in\n    tag_81:\n        /* \"#utility.yul\":423:473   */\n      swap1\n      pop\n        /* \"#utility.yul\":353:479   */\n      swap2\n      swap1\n      pop\n      jump\t// out\n        /* \"#utility.yul\":485:633   */\n    tag_46:\n        /* \"#utility.yul\":557:566   */\n      0x00\n        /* \"#utility.yul\":590:627   */\n      tag_83\n        /* \"#utility.yul\":621:626   */\n      dup3\n        /* \"#utility.yul\":590:627   */\n      tag_45\n      jump\t// in\n    tag_83:\n        /* \"#utility.yul\":577:627   */\n      swap1\n      pop\n        /* \"#utility.yul\":485:633   */\n      swap2\n      swap1\n      pop\n      jump\t// out\n        /* \"#utility.yul\":639:814   */\n    tag_47:\n        /* \"#utility.yul\":748:807   */\n      tag_85\n        /* \"#utility.yul\":801:806   */\n      dup2\n        /* \"#utility.yul\":748:807   */\n      tag_46\n      jump\t// in\n    tag_85:\n        /* \"#utility.yul\":743:746   */\n      dup3\n        /* \"#utility.yul\":736:808   */\n      mstore\n        /* \"#utility.yul\":639:814   */\n      pop\n      pop\n      jump\t// out\n        /* \"#utility.yul\":820:1086   */\n    tag_9:\n        /* \"#utility.yul\":935:939   */\n      0x00\n        /* \"#utility.yul\":973:975   */\n      0x20\n        /* \"#utility.yul\":962:971   */\n      dup3\n        /* \"#utility.yul\":958:976   */\n      add\n        /* \"#utility.yul\":950:976   */\n      swap1\n      pop\n        /* \"#utility.yul\":986:1079   */\n      tag_87\n        /* \"#utility.yul\":1076:1077   */\n      0x00\n        /* \"#utility.yul\":1065:1074   */\n      dup4\n        /* \"#utility.yul\":1061:1078   */\n      add\n        /* \"#utility.yul\":1052:1058   */\n      dup5\n        /* \"#utility.yul\":986:1079   */\n      tag_47\n      jump\t// in\n    tag_87:\n        /* \"#utility.yul\":820:1086   */\n      swap3\n      swap2\n      pop\n      pop\n      jump\t// out\n        /* \"#utility.yul\":1173:1290   */\n    tag_49:\n        /* \"#utility.yul\":1282:1283   */\n      0x00\n        /* \"#utility.yul\":1279:1280   */\n      dup1\n        /* \"#utility.yul\":1272:1284   */\n      revert\n        /* \"#utility.yul\":1296:1413   */\n    tag_50:\n        /* \"#utility.yul\":1405:1406   */\n      0x00\n        /* \"#utility.yul\":1402:1403   */\n      dup1\n        /* \"#utility.yul\":1395:1407   */\n      revert\n        /* \"#utility.yul\":1419:1496   */\n    tag_51:\n        /* \"#utility.yul\":1456:1463   */\n      0x00\n        /* \"#utility.yul\":1485:1490   */\n      dup2\n        /* \"#utility.yul\":1474:1490   */\n      swap1\n      pop\n        /* \"#utility.yul\":1419:1496   */\n      swap2\n      swap1\n      pop\n      jump\t// out\n        /* \"#utility.yul\":1502:1624   */\n    tag_52:\n        /* \"#utility.yul\":1575:1599   */\n      tag_93\n        /* \"#utility.yul\":1593:1598   */\n      dup2\n        /* \"#utility.yul\":1575:1599   */\n      tag_51\n      jump\t// in\n    tag_93:\n        /* \"#utility.yul\":1568:1573   */\n      dup2\n        /* \"#utility.yul\":1565:1600   */\n      eq\n        /* \"#utility.yul\":1555:1618   */\n      tag_94\n      jumpi\n        /* \"#utility.yul\":1614:1615   */\n      0x00\n        /* \"#utility.yul\":1611:1612   */\n      dup1\n        /* \"#utility.yul\":1604:1616   */\n      revert\n        /* \"#utility.yul\":1555:1618   */\n    tag_94:\n        /* \"#utility.yul\":1502:1624   */\n      pop\n      jump\t// out\n        /* \"#utility.yul\":1630:1769   */\n    tag_53:\n        /* \"#utility.yul\":1676:1681   */\n      0x00\n        /* \"#utility.yul\":1714:1720   */\n      dup2\n        /* \"#utility.yul\":1701:1721   */\n      calldataload\n        /* \"#utility.yul\":1692:1721   */\n      swap1\n      pop\n        /* \"#utility.yul\":1730:1763   */\n      tag_96\n        /* \"#utility.yul\":1757:1762   */\n      dup2\n        /* \"#utility.yul\":1730:1763   */\n      tag_52\n      jump\t// in\n    tag_96:\n        /* \"#utility.yul\":1630:1769   */\n      swap3\n      swap2\n      pop\n      pop\n      jump\t// out\n        /* \"#utility.yul\":1775:1892   */\n    tag_54:\n        /* \"#utility.yul\":1884:1885   */\n      0x00\n        /* \"#utility.yul\":1881:1882   */\n      dup1\n        /* \"#utility.yul\":1874:1886   */\n      revert\n        /* \"#utility.yul\":1898:2015   */\n    tag_55:\n        /* \"#utility.yul\":2007:2008   */\n      0x00\n        /* \"#utility.yul\":2004:2005   */\n      dup1\n        /* \"#utility.yul\":1997:2009   */\n      revert\n        /* \"#utility.yul\":2021:2138   */\n    tag_56:\n        /* \"#utility.yul\":2130:2131   */\n      0x00\n        /* \"#utility.yul\":2127:2128   */\n      dup1\n        /* \"#utility.yul\":2120:2132   */\n      revert\n        /* \"#utility.yul\":2158:2711   */\n    tag_57:\n        /* \"#utility.yul\":2216:2224   */\n      0x00\n        /* \"#utility.yul\":2226:2232   */\n      dup1\n        /* \"#utility.yul\":2276:2279   */\n      dup4\n        /* \"#utility.yul\":2269:2273   */\n      0x1f\n        /* \"#utility.yul\":2261:2267   */\n      dup5\n        /* \"#utility.yul\":2257:2274   */\n      add\n        /* \"#utility.yul\":2253:2280   */\n      slt\n        /* \"#utility.yul\":2243:2365   */\n      tag_101\n      jumpi\n        /* \"#utility.yul\":2284:2363   */\n      tag_102\n      tag_54\n      jump\t// in\n    tag_102:\n        /* \"#utility.yul\":2243:2365   */\n    tag_101:\n        /* \"#utility.yul\":2397:2403   */\n      dup3\n        /* \"#utility.yul\":2384:2404   */\n      calldataload\n        /* \"#utility.yul\":2374:2404   */\n      swap1\n      pop\n        /* \"#utility.yul\":2427:2445   */\n      0xffffffffffffffff\n        /* \"#utility.yul\":2419:2425   */\n      dup2\n        /* \"#utility.yul\":2416:2446   */\n      gt\n        /* \"#utility.yul\":2413:2530   */\n      iszero\n      tag_103\n      jumpi\n        /* \"#utility.yul\":2449:2528   */\n      tag_104\n      tag_55\n      jump\t// in\n    tag_104:\n        /* \"#utility.yul\":2413:2530   */\n    tag_103:\n        /* \"#utility.yul\":2563:2567   */\n      0x20\n        /* \"#utility.yul\":2555:2561   */\n      dup4\n        /* \"#utility.yul\":2551:2568   */\n      add\n        /* \"#utility.yul\":2539:2568   */\n      swap2\n      pop\n        /* \"#utility.yul\":2617:2620   */\n      dup4\n        /* \"#utility.yul\":2609:2613   */\n      0x01\n        /* \"#utility.yul\":2601:2607   */\n      dup3\n        /* \"#utility.yul\":2597:2614   */\n      mul\n        /* \"#utility.yul\":2587:2595   */\n      dup4\n        /* \"#utility.yul\":2583:2615   */\n      add\n        /* \"#utility.yul\":2580:2621   */\n      gt\n        /* \"#utility.yul\":2577:2705   */\n      iszero\n      tag_105\n      jumpi\n        /* \"#utility.yul\":2624:2703   */\n      tag_106\n      tag_56\n      jump\t// in\n    tag_106:\n        /* \"#utility.yul\":2577:2705   */\n    tag_105:\n        /* \"#utility.yul\":2158:2711   */\n      swap3\n      pop\n      swap3\n      swap1\n      pop\n      jump\t// out\n        /* \"#utility.yul\":2730:3282   */\n    tag_58:\n        /* \"#utility.yul\":2787:2795   */\n      0x00\n        /* \"#utility.yul\":2797:2803   */\n      dup1\n        /* \"#utility.yul\":2847:2850   */\n      dup4\n        /* \"#utility.yul\":2840:2844   */\n      0x1f\n        /* \"#utility.yul\":2832:2838   */\n      dup5\n        /* \"#utility.yul\":2828:2845   */\n      add\n        /* \"#utility.yul\":2824:2851   */\n      slt\n        /* \"#utility.yul\":2814:2936   */\n      tag_108\n      jumpi\n        /* \"#utility.yul\":2855:2934   */\n      tag_109\n      tag_54\n      jump\t// in\n    tag_109:\n        /* \"#utility.yul\":2814:2936   */\n    tag_108:\n        /* \"#utility.yul\":2968:2974   */\n      dup3\n        /* \"#utility.yul\":2955:2975   */\n      calldataload\n        /* \"#utility.yul\":2945:2975   */\n      swap1\n      pop\n        /* \"#utility.yul\":2998:3016   */\n      0xffffffffffffffff\n        /* \"#utility.yul\":2990:2996   */\n      dup2\n        /* \"#utility.yul\":2987:3017   */\n      gt\n        /* \"#utility.yul\":2984:3101   */\n      iszero\n      tag_110\n      jumpi\n        /* \"#utility.yul\":3020:3099   */\n      tag_111\n      tag_55\n      jump\t// in\n    tag_111:\n        /* \"#utility.yul\":2984:3101   */\n    tag_110:\n        /* \"#utility.yul\":3134:3138   */\n      0x20\n        /* \"#utility.yul\":3126:3132   */\n      dup4\n        /* \"#utility.yul\":3122:3139   */\n      add\n        /* \"#utility.yul\":3110:3139   */\n      swap2\n      pop\n        /* \"#utility.yul\":3188:3191   */\n      dup4\n        /* \"#utility.yul\":3180:3184   */\n      0x01\n        /* \"#utility.yul\":3172:3178   */\n      dup3\n        /* \"#utility.yul\":3168:3185   */\n      mul\n        /* \"#utility.yul\":3158:3166   */\n      dup4\n        /* \"#utility.yul\":3154:3186   */\n      add\n        /* \"#utility.yul\":3151:3192   */\n      gt\n        /* \"#utility.yul\":3148:3276   */\n      iszero\n      tag_112\n      jumpi\n        /* \"#utility.yul\":3195:3274   */\n      tag_113\n      tag_56\n      jump\t// in\n    tag_113:\n        /* \"#utility.yul\":3148:3276   */\n    tag_112:\n        /* \"#utility.yul\":2730:3282   */\n      swap3\n      pop\n      swap3\n      swap1\n      pop\n      jump\t// out\n        /* \"#utility.yul\":3288:3365   */\n    tag_59:\n        /* \"#utility.yul\":3325:3332   */\n      0x00\n        /* \"#utility.yul\":3354:3359   */\n      dup2\n        /* \"#utility.yul\":3343:3359   */\n      swap1\n      pop\n        /* \"#utility.yul\":3288:3365   */\n      swap2\n      swap1\n      pop\n      jump\t// out\n        /* \"#utility.yul\":3371:3493   */\n    tag_60:\n        /* \"#utility.yul\":3444:3468   */\n      tag_116\n        /* \"#utility.yul\":3462:3467   */\n      dup2\n        /* \"#utility.yul\":3444:3468   */\n      tag_59\n      jump\t// in\n    tag_116:\n        /* \"#utility.yul\":3437:3442   */\n      dup2\n        /* \"#utility.yul\":3434:3469   */\n      eq\n        /* \"#utility.yul\":3424:3487   */\n      tag_117\n      jumpi\n        /* \"#utility.yul\":3483:3484   */\n      0x00\n        /* \"#utility.yul\":3480:3481   */\n      dup1\n        /* \"#utility.yul\":3473:3485   */\n      revert\n        /* \"#utility.yul\":3424:3487   */\n    tag_117:\n        /* \"#utility.yul\":3371:3493   */\n      pop\n      jump\t// out\n        /* \"#utility.yul\":3499:3638   */\n    tag_61:\n        /* \"#utility.yul\":3545:3550   */\n      0x00\n        /* \"#utility.yul\":3583:3589   */\n      dup2\n        /* \"#utility.yul\":3570:3590   */\n      calldataload\n        /* \"#utility.yul\":3561:3590   */\n      swap1\n      pop\n        /* \"#utility.yul\":3599:3632   */\n      tag_119\n        /* \"#utility.yul\":3626:3631   */\n      dup2\n        /* \"#utility.yul\":3599:3632   */\n      tag_60\n      jump\t// in\n    tag_119:\n        /* \"#utility.yul\":3499:3638   */\n      swap3\n      swap2\n      pop\n      pop\n      jump\t// out\n        /* \"#utility.yul\":3644:5499   */\n    tag_12:\n        /* \"#utility.yul\":3795:3801   */\n      0x00\n        /* \"#utility.yul\":3803:3809   */\n      dup1\n        /* \"#utility.yul\":3811:3817   */\n      0x00\n        /* \"#utility.yul\":3819:3825   */\n      dup1\n        /* \"#utility.yul\":3827:3833   */\n      0x00\n        /* \"#utility.yul\":3835:3841   */\n      dup1\n        /* \"#utility.yul\":3843:3849   */\n      0x00\n        /* \"#utility.yul\":3851:3857   */\n      dup1\n        /* \"#utility.yul\":3859:3865   */\n      0x00\n        /* \"#utility.yul\":3867:3873   */\n      dup1\n        /* \"#utility.yul\":3916:3919   */\n      0xc0\n        /* \"#utility.yul\":3904:3913   */\n      dup12\n        /* \"#utility.yul\":3895:3902   */\n      dup14\n        /* \"#utility.yul\":3891:3914   */\n      sub\n        /* \"#utility.yul\":3887:3920   */\n      slt\n        /* \"#utility.yul\":3884:4004   */\n      iszero\n      tag_121\n      jumpi\n        /* \"#utility.yul\":3923:4002   */\n      tag_122\n      tag_49\n      jump\t// in\n    tag_122:\n        /* \"#utility.yul\":3884:4004   */\n    tag_121:\n        /* \"#utility.yul\":4043:4044   */\n      0x00\n        /* \"#utility.yul\":4068:4121   */\n      tag_123\n        /* \"#utility.yul\":4113:4120   */\n      dup14\n        /* \"#utility.yul\":4104:4110   */\n      dup3\n        /* \"#utility.yul\":4093:4102   */\n      dup15\n        /* \"#utility.yul\":4089:4111   */\n      add\n        /* \"#utility.yul\":4068:4121   */\n      tag_53\n      jump\t// in\n    tag_123:\n        /* \"#utility.yul\":4058:4121   */\n      swap11\n      pop\n        /* \"#utility.yul\":4014:4131   */\n      pop\n        /* \"#utility.yul\":4198:4200   */\n      0x20\n        /* \"#utility.yul\":4187:4196   */\n      dup12\n        /* \"#utility.yul\":4183:4201   */\n      add\n        /* \"#utility.yul\":4170:4202   */\n      calldataload\n        /* \"#utility.yul\":4229:4247   */\n      0xffffffffffffffff\n        /* \"#utility.yul\":4221:4227   */\n      dup2\n        /* \"#utility.yul\":4218:4248   */\n      gt\n        /* \"#utility.yul\":4215:4332   */\n      iszero\n      tag_124\n      jumpi\n        /* \"#utility.yul\":4251:4330   */\n      tag_125\n      tag_50\n      jump\t// in\n    tag_125:\n        /* \"#utility.yul\":4215:4332   */\n    tag_124:\n        /* \"#utility.yul\":4364:4429   */\n      tag_126\n        /* \"#utility.yul\":4421:4428   */\n      dup14\n        /* \"#utility.yul\":4412:4418   */\n      dup3\n        /* \"#utility.yul\":4401:4410   */\n      dup15\n        /* \"#utility.yul\":4397:4419   */\n      add\n        /* \"#utility.yul\":4364:4429   */\n      tag_57\n      jump\t// in\n    tag_126:\n        /* \"#utility.yul\":4346:4429   */\n      swap10\n      pop\n      swap10\n      pop\n        /* \"#utility.yul\":4141:4439   */\n      pop\n        /* \"#utility.yul\":4506:4508   */\n      0x40\n        /* \"#utility.yul\":4495:4504   */\n      dup12\n        /* \"#utility.yul\":4491:4509   */\n      add\n        /* \"#utility.yul\":4478:4510   */\n      calldataload\n        /* \"#utility.yul\":4537:4555   */\n      0xffffffffffffffff\n        /* \"#utility.yul\":4529:4535   */\n      dup2\n        /* \"#utility.yul\":4526:4556   */\n      gt\n        /* \"#utility.yul\":4523:4640   */\n      iszero\n      tag_127\n      jumpi\n        /* \"#utility.yul\":4559:4638   */\n      tag_128\n      tag_50\n      jump\t// in\n    tag_128:\n        /* \"#utility.yul\":4523:4640   */\n    tag_127:\n        /* \"#utility.yul\":4672:4737   */\n      tag_129\n        /* \"#utility.yul\":4729:4736   */\n      dup14\n        /* \"#utility.yul\":4720:4726   */\n      dup3\n        /* \"#utility.yul\":4709:4718   */\n      dup15\n        /* \"#utility.yul\":4705:4727   */\n      add\n        /* \"#utility.yul\":4672:4737   */\n      tag_57\n      jump\t// in\n    tag_129:\n        /* \"#utility.yul\":4654:4737   */\n      swap8\n      pop\n      swap8\n      pop\n        /* \"#utility.yul\":4449:4747   */\n      pop\n        /* \"#utility.yul\":4814:4816   */\n      0x60\n        /* \"#utility.yul\":4803:4812   */\n      dup12\n        /* \"#utility.yul\":4799:4817   */\n      add\n        /* \"#utility.yul\":4786:4818   */\n      calldataload\n        /* \"#utility.yul\":4845:4863   */\n      0xffffffffffffffff\n        /* \"#utility.yul\":4837:4843   */\n      dup2\n        /* \"#utility.yul\":4834:4864   */\n      gt\n        /* \"#utility.yul\":4831:4948   */\n      iszero\n      tag_130\n      jumpi\n        /* \"#utility.yul\":4867:4946   */\n      tag_131\n      tag_50\n      jump\t// in\n    tag_131:\n        /* \"#utility.yul\":4831:4948   */\n    tag_130:\n        /* \"#utility.yul\":4980:5044   */\n      tag_132\n        /* \"#utility.yul\":5036:5043   */\n      dup14\n        /* \"#utility.yul\":5027:5033   */\n      dup3\n        /* \"#utility.yul\":5016:5025   */\n      dup15\n        /* \"#utility.yul\":5012:5034   */\n      add\n        /* \"#utility.yul\":4980:5044   */\n      tag_58\n      jump\t// in\n    tag_132:\n        /* \"#utility.yul\":4962:5044   */\n      swap6\n      pop\n      swap6\n      pop\n        /* \"#utility.yul\":4757:5054   */\n      pop\n        /* \"#utility.yul\":5121:5124   */\n      0x80\n        /* \"#utility.yul\":5110:5119   */\n      dup12\n        /* \"#utility.yul\":5106:5125   */\n      add\n        /* \"#utility.yul\":5093:5126   */\n      calldataload\n        /* \"#utility.yul\":5153:5171   */\n      0xffffffffffffffff\n        /* \"#utility.yul\":5145:5151   */\n      dup2\n        /* \"#utility.yul\":5142:5172   */\n      gt\n        /* \"#utility.yul\":5139:5256   */\n      iszero\n      tag_133\n      jumpi\n        /* \"#utility.yul\":5175:5254   */\n      tag_134\n      tag_50\n      jump\t// in\n    tag_134:\n        /* \"#utility.yul\":5139:5256   */\n    tag_133:\n        /* \"#utility.yul\":5288:5353   */\n      tag_135\n        /* \"#utility.yul\":5345:5352   */\n      dup14\n        /* \"#utility.yul\":5336:5342   */\n      dup3\n        /* \"#utility.yul\":5325:5334   */\n      dup15\n        /* \"#utility.yul\":5321:5343   */\n      add\n        /* \"#utility.yul\":5288:5353   */\n      tag_57\n      jump\t// in\n    tag_135:\n        /* \"#utility.yul\":5270:5353   */\n      swap4\n      pop\n      swap4\n      pop\n        /* \"#utility.yul\":5064:5363   */\n      pop\n        /* \"#utility.yul\":5402:5405   */\n      0xa0\n        /* \"#utility.yul\":5429:5482   */\n      tag_136\n        /* \"#utility.yul\":5474:5481   */\n      dup14\n        /* \"#utility.yul\":5465:5471   */\n      dup3\n        /* \"#utility.yul\":5454:5463   */\n      dup15\n        /* \"#utility.yul\":5450:5472   */\n      add\n        /* \"#utility.yul\":5429:5482   */\n      tag_61\n      jump\t// in\n    tag_136:\n        /* \"#utility.yul\":5419:5482   */\n      swap2\n      pop\n        /* \"#utility.yul\":5373:5492   */\n      pop\n        /* \"#utility.yul\":3644:5499   */\n      swap3\n      swap6\n      swap9\n      swap12\n      swap2\n      swap5\n      swap8\n      swap11\n      pop\n      swap3\n      swap6\n      swap9\n      pop\n      jump\t// out\n        /* \"#utility.yul\":5505:6868   */\n    tag_16:\n        /* \"#utility.yul\":5626:5632   */\n      0x00\n        /* \"#utility.yul\":5634:5640   */\n      dup1\n        /* \"#utility.yul\":5642:5648   */\n      0x00\n        /* \"#utility.yul\":5650:5656   */\n      dup1\n        /* \"#utility.yul\":5658:5664   */\n      0x00\n        /* \"#utility.yul\":5666:5672   */\n      dup1\n        /* \"#utility.yul\":5674:5680   */\n      0x00\n        /* \"#utility.yul\":5723:5726   */\n      0x80\n        /* \"#utility.yul\":5711:5720   */\n      dup9\n        /* \"#utility.yul\":5702:5709   */\n      dup11\n        /* \"#utility.yul\":5698:5721   */\n      sub\n        /* \"#utility.yul\":5694:5727   */\n      slt\n        /* \"#utility.yul\":5691:5811   */\n      iszero\n      tag_138\n      jumpi\n        /* \"#utility.yul\":5730:5809   */\n      tag_139\n      tag_49\n      jump\t// in\n    tag_139:\n        /* \"#utility.yul\":5691:5811   */\n    tag_138:\n        /* \"#utility.yul\":5850:5851   */\n      0x00\n        /* \"#utility.yul\":5875:5928   */\n      tag_140\n        /* \"#utility.yul\":5920:5927   */\n      dup11\n        /* \"#utility.yul\":5911:5917   */\n      dup3\n        /* \"#utility.yul\":5900:5909   */\n      dup12\n        /* \"#utility.yul\":5896:5918   */\n      add\n        /* \"#utility.yul\":5875:5928   */\n      tag_53\n      jump\t// in\n    tag_140:\n        /* \"#utility.yul\":5865:5928   */\n      swap8\n      pop\n        /* \"#utility.yul\":5821:5938   */\n      pop\n        /* \"#utility.yul\":6005:6007   */\n      0x20\n        /* \"#utility.yul\":5994:6003   */\n      dup9\n        /* \"#utility.yul\":5990:6008   */\n      add\n        /* \"#utility.yul\":5977:6009   */\n      calldataload\n        /* \"#utility.yul\":6036:6054   */\n      0xffffffffffffffff\n        /* \"#utility.yul\":6028:6034   */\n      dup2\n        /* \"#utility.yul\":6025:6055   */\n      gt\n        /* \"#utility.yul\":6022:6139   */\n      iszero\n      tag_141\n      jumpi\n        /* \"#utility.yul\":6058:6137   */\n      tag_142\n      tag_50\n      jump\t// in\n    tag_142:\n        /* \"#utility.yul\":6022:6139   */\n    tag_141:\n        /* \"#utility.yul\":6171:6236   */\n      tag_143\n        /* \"#utility.yul\":6228:6235   */\n      dup11\n        /* \"#utility.yul\":6219:6225   */\n      dup3\n        /* \"#utility.yul\":6208:6217   */\n      dup12\n        /* \"#utility.yul\":6204:6226   */\n      add\n        /* \"#utility.yul\":6171:6236   */\n      tag_57\n      jump\t// in\n    tag_143:\n        /* \"#utility.yul\":6153:6236   */\n      swap7\n      pop\n      swap7\n      pop\n        /* \"#utility.yul\":5948:6246   */\n      pop\n        /* \"#utility.yul\":6313:6315   */\n      0x40\n        /* \"#utility.yul\":6302:6311   */\n      dup9\n        /* \"#utility.yul\":6298:6316   */\n      add\n        /* \"#utility.yul\":6285:6317   */\n      calldataload\n        /* \"#utility.yul\":6344:6362   */\n      0xffffffffffffffff\n        /* \"#utility.yul\":6336:6342   */\n      dup2\n        /* \"#utility.yul\":6333:6363   */\n      gt\n        /* \"#utility.yul\":6330:6447   */\n      iszero\n      tag_144\n      jumpi\n        /* \"#utility.yul\":6366:6445   */\n      tag_145\n      tag_50\n      jump\t// in\n    tag_145:\n        /* \"#utility.yul\":6330:6447   */\n    tag_144:\n        /* \"#utility.yul\":6479:6544   */\n      tag_146\n        /* \"#utility.yul\":6536:6543   */\n      dup11\n        /* \"#utility.yul\":6527:6533   */\n      dup3\n        /* \"#utility.yul\":6516:6525   */\n      dup12\n        /* \"#utility.yul\":6512:6534   */\n      add\n        /* \"#utility.yul\":6479:6544   */\n      tag_57\n      jump\t// in\n    tag_146:\n        /* \"#utility.yul\":6461:6544   */\n      swap5\n      pop\n      swap5\n      pop\n        /* \"#utility.yul\":6256:6554   */\n      pop\n        /* \"#utility.yul\":6621:6623   */\n      0x60\n        /* \"#utility.yul\":6610:6619   */\n      dup9\n        /* \"#utility.yul\":6606:6624   */\n      add\n        /* \"#utility.yul\":6593:6625   */\n      calldataload\n        /* \"#utility.yul\":6652:6670   */\n      0xffffffffffffffff\n        /* \"#utility.yul\":6644:6650   */\n      dup2\n        /* \"#utility.yul\":6641:6671   */\n      gt\n        /* \"#utility.yul\":6638:6755   */\n      iszero\n      tag_147\n      jumpi\n        /* \"#utility.yul\":6674:6753   */\n      tag_148\n      tag_50\n      jump\t// in\n    tag_148:\n        /* \"#utility.yul\":6638:6755   */\n    tag_147:\n        /* \"#utility.yul\":6787:6851   */\n      tag_149\n        /* \"#utility.yul\":6843:6850   */\n      dup11\n        /* \"#utility.yul\":6834:6840   */\n      dup3\n        /* \"#utility.yul\":6823:6832   */\n      dup12\n        /* \"#utility.yul\":6819:6841   */\n      add\n        /* \"#utility.yul\":6787:6851   */\n      tag_58\n      jump\t// in\n    tag_149:\n        /* \"#utility.yul\":6769:6851   */\n      swap3\n      pop\n      swap3\n      pop\n        /* \"#utility.yul\":6564:6861   */\n      pop\n        /* \"#utility.yul\":5505:6868   */\n      swap3\n      swap6\n      swap9\n      swap2\n      swap5\n      swap8\n      pop\n      swap3\n      swap6\n      pop\n      jump\t// out\n        /* \"#utility.yul\":6874:7021   */\n    tag_62:\n        /* \"#utility.yul\":6975:6986   */\n      0x00\n        /* \"#utility.yul\":7012:7015   */\n      dup2\n        /* \"#utility.yul\":6997:7015   */\n      swap1\n      pop\n        /* \"#utility.yul\":6874:7021   */\n      swap3\n      swap2\n      pop\n      pop\n      jump\t// out\n        /* \"#utility.yul\":7027:7175   */\n    tag_63:\n        /* \"#utility.yul\":7125:7131   */\n      dup3\n        /* \"#utility.yul\":7120:7123   */\n      dup2\n        /* \"#utility.yul\":7115:7118   */\n      dup4\n        /* \"#utility.yul\":7102:7132   */\n      calldatacopy\n        /* \"#utility.yul\":7166:7167   */\n      0x00\n        /* \"#utility.yul\":7157:7163   */\n      dup4\n        /* \"#utility.yul\":7152:7155   */\n      dup4\n        /* \"#utility.yul\":7148:7164   */\n      add\n        /* \"#utility.yul\":7141:7168   */\n      mstore\n        /* \"#utility.yul\":7027:7175   */\n      pop\n      pop\n      pop\n      jump\t// out\n        /* \"#utility.yul\":7203:7530   */\n    tag_64:\n        /* \"#utility.yul\":7317:7320   */\n      0x00\n        /* \"#utility.yul\":7338:7426   */\n      tag_153\n        /* \"#utility.yul\":7419:7425   */\n      dup4\n        /* \"#utility.yul\":7414:7417   */\n      dup6\n        /* \"#utility.yul\":7338:7426   */\n      tag_62\n      jump\t// in\n    tag_153:\n        /* \"#utility.yul\":7331:7426   */\n      swap4\n      pop\n        /* \"#utility.yul\":7436:7492   */\n      tag_154\n        /* \"#utility.yul\":7485:7491   */\n      dup4\n        /* \"#utility.yul\":7480:7483   */\n      dup6\n        /* \"#utility.yul\":7473:7478   */\n      dup5\n        /* \"#utility.yul\":7436:7492   */\n      tag_63\n      jump\t// in\n    tag_154:\n        /* \"#utility.yul\":7517:7523   */\n      dup3\n        /* \"#utility.yul\":7512:7515   */\n      dup5\n        /* \"#utility.yul\":7508:7524   */\n      add\n        /* \"#utility.yul\":7501:7524   */\n      swap1\n      pop\n        /* \"#utility.yul\":7203:7530   */\n      swap4\n      swap3\n      pop\n      pop\n      pop\n      jump\t// out\n        /* \"#utility.yul\":7536:7827   */\n    tag_20:\n        /* \"#utility.yul\":7676:7679   */\n      0x00\n        /* \"#utility.yul\":7698:7801   */\n      tag_156\n        /* \"#utility.yul\":7797:7800   */\n      dup3\n        /* \"#utility.yul\":7788:7794   */\n      dup5\n        /* \"#utility.yul\":7780:7786   */\n      dup7\n        /* \"#utility.yul\":7698:7801   */\n      tag_64\n      jump\t// in\n    tag_156:\n        /* \"#utility.yul\":7691:7801   */\n      swap2\n      pop\n        /* \"#utility.yul\":7818:7821   */\n      dup2\n        /* \"#utility.yul\":7811:7821   */\n      swap1\n      pop\n        /* \"#utility.yul\":7536:7827   */\n      swap4\n      swap3\n      pop\n      pop\n      pop\n      jump\t// out\n        /* \"#utility.yul\":7833:7951   */\n    tag_65:\n        /* \"#utility.yul\":7920:7944   */\n      tag_158\n        /* \"#utility.yul\":7938:7943   */\n      dup2\n        /* \"#utility.yul\":7920:7944   */\n      tag_51\n      jump\t// in\n    tag_158:\n        /* \"#utility.yul\":7915:7918   */\n      dup3\n        /* \"#utility.yul\":7908:7945   */\n      mstore\n        /* \"#utility.yul\":7833:7951   */\n      pop\n      pop\n      jump\t// out\n        /* \"#utility.yul\":7957:8126   */\n    tag_66:\n        /* \"#utility.yul\":8041:8052   */\n      0x00\n        /* \"#utility.yul\":8075:8081   */\n      dup3\n        /* \"#utility.yul\":8070:8073   */\n      dup3\n        /* \"#utility.yul\":8063:8082   */\n      mstore\n        /* \"#utility.yul\":8115:8119   */\n      0x20\n        /* \"#utility.yul\":8110:8113   */\n      dup3\n        /* \"#utility.yul\":8106:8120   */\n      add\n        /* \"#utility.yul\":8091:8120   */\n      swap1\n      pop\n        /* \"#utility.yul\":7957:8126   */\n      swap3\n      swap2\n      pop\n      pop\n      jump\t// out\n        /* \"#utility.yul\":8132:8234   */\n    tag_67:\n        /* \"#utility.yul\":8173:8179   */\n      0x00\n        /* \"#utility.yul\":8224:8226   */\n      0x1f\n        /* \"#utility.yul\":8220:8227   */\n      not\n        /* \"#utility.yul\":8215:8217   */\n      0x1f\n        /* \"#utility.yul\":8208:8213   */\n      dup4\n        /* \"#utility.yul\":8204:8218   */\n      add\n        /* \"#utility.yul\":8200:8228   */\n      and\n        /* \"#utility.yul\":8190:8228   */\n      swap1\n      pop\n        /* \"#utility.yul\":8132:8234   */\n      swap2\n      swap1\n      pop\n      jump\t// out\n        /* \"#utility.yul\":8264:8581   */\n    tag_68:\n        /* \"#utility.yul\":8362:8365   */\n      0x00\n        /* \"#utility.yul\":8383:8454   */\n      tag_162\n        /* \"#utility.yul\":8447:8453   */\n      dup4\n        /* \"#utility.yul\":8442:8445   */\n      dup6\n        /* \"#utility.yul\":8383:8454   */\n      tag_66\n      jump\t// in\n    tag_162:\n        /* \"#utility.yul\":8376:8454   */\n      swap4\n      pop\n        /* \"#utility.yul\":8464:8520   */\n      tag_163\n        /* \"#utility.yul\":8513:8519   */\n      dup4\n        /* \"#utility.yul\":8508:8511   */\n      dup6\n        /* \"#utility.yul\":8501:8506   */\n      dup5\n        /* \"#utility.yul\":8464:8520   */\n      tag_63\n      jump\t// in\n    tag_163:\n        /* \"#utility.yul\":8545:8574   */\n      tag_164\n        /* \"#utility.yul\":8567:8573   */\n      dup4\n        /* \"#utility.yul\":8545:8574   */\n      tag_67\n      jump\t// in\n    tag_164:\n        /* \"#utility.yul\":8540:8543   */\n      dup5\n        /* \"#utility.yul\":8536:8575   */\n      add\n        /* \"#utility.yul\":8529:8575   */\n      swap1\n      pop\n        /* \"#utility.yul\":8264:8581   */\n      swap4\n      swap3\n      pop\n      pop\n      pop\n      jump\t// out\n        /* \"#utility.yul\":8587:8705   */\n    tag_69:\n        /* \"#utility.yul\":8674:8698   */\n      tag_166\n        /* \"#utility.yul\":8692:8697   */\n      dup2\n        /* \"#utility.yul\":8674:8698   */\n      tag_59\n      jump\t// in\n    tag_166:\n        /* \"#utility.yul\":8669:8672   */\n      dup3\n        /* \"#utility.yul\":8662:8699   */\n      mstore\n        /* \"#utility.yul\":8587:8705   */\n      pop\n      pop\n      jump\t// out\n        /* \"#utility.yul\":8711:9819   */\n    tag_22:\n        /* \"#utility.yul\":9034:9038   */\n      0x00\n        /* \"#utility.yul\":9072:9075   */\n      0xc0\n        /* \"#utility.yul\":9061:9070   */\n      dup3\n        /* \"#utility.yul\":9057:9076   */\n      add\n        /* \"#utility.yul\":9049:9076   */\n      swap1\n      pop\n        /* \"#utility.yul\":9086:9157   */\n      tag_168\n        /* \"#utility.yul\":9154:9155   */\n      0x00\n        /* \"#utility.yul\":9143:9152   */\n      dup4\n        /* \"#utility.yul\":9139:9156   */\n      add\n        /* \"#utility.yul\":9130:9136   */\n      dup13\n        /* \"#utility.yul\":9086:9157   */\n      tag_65\n      jump\t// in\n    tag_168:\n        /* \"#utility.yul\":9204:9213   */\n      dup2\n        /* \"#utility.yul\":9198:9202   */\n      dup2\n        /* \"#utility.yul\":9194:9214   */\n      sub\n        /* \"#utility.yul\":9189:9191   */\n      0x20\n        /* \"#utility.yul\":9178:9187   */\n      dup4\n        /* \"#utility.yul\":9174:9192   */\n      add\n        /* \"#utility.yul\":9167:9215   */\n      mstore\n        /* \"#utility.yul\":9232:9320   */\n      tag_169\n        /* \"#utility.yul\":9315:9319   */\n      dup2\n        /* \"#utility.yul\":9306:9312   */\n      dup11\n        /* \"#utility.yul\":9298:9304   */\n      dup13\n        /* \"#utility.yul\":9232:9320   */\n      tag_68\n      jump\t// in\n    tag_169:\n        /* \"#utility.yul\":9224:9320   */\n      swap1\n      pop\n        /* \"#utility.yul\":9367:9376   */\n      dup2\n        /* \"#utility.yul\":9361:9365   */\n      dup2\n        /* \"#utility.yul\":9357:9377   */\n      sub\n        /* \"#utility.yul\":9352:9354   */\n      0x40\n        /* \"#utility.yul\":9341:9350   */\n      dup4\n        /* \"#utility.yul\":9337:9355   */\n      add\n        /* \"#utility.yul\":9330:9378   */\n      mstore\n        /* \"#utility.yul\":9395:9483   */\n      tag_170\n        /* \"#utility.yul\":9478:9482   */\n      dup2\n        /* \"#utility.yul\":9469:9475   */\n      dup9\n        /* \"#utility.yul\":9461:9467   */\n      dup11\n        /* \"#utility.yul\":9395:9483   */\n      tag_68\n      jump\t// in\n    tag_170:\n        /* \"#utility.yul\":9387:9483   */\n      swap1\n      pop\n        /* \"#utility.yul\":9493:9565   */\n      tag_171\n        /* \"#utility.yul\":9561:9563   */\n      0x60\n        /* \"#utility.yul\":9550:9559   */\n      dup4\n        /* \"#utility.yul\":9546:9564   */\n      add\n        /* \"#utility.yul\":9537:9543   */\n      dup8\n        /* \"#utility.yul\":9493:9565   */\n      tag_65\n      jump\t// in\n    tag_171:\n        /* \"#utility.yul\":9613:9622   */\n      dup2\n        /* \"#utility.yul\":9607:9611   */\n      dup2\n        /* \"#utility.yul\":9603:9623   */\n      sub\n        /* \"#utility.yul\":9597:9600   */\n      0x80\n        /* \"#utility.yul\":9586:9595   */\n      dup4\n        /* \"#utility.yul\":9582:9601   */\n      add\n        /* \"#utility.yul\":9575:9624   */\n      mstore\n        /* \"#utility.yul\":9641:9729   */\n      tag_172\n        /* \"#utility.yul\":9724:9728   */\n      dup2\n        /* \"#utility.yul\":9715:9721   */\n      dup6\n        /* \"#utility.yul\":9707:9713   */\n      dup8\n        /* \"#utility.yul\":9641:9729   */\n      tag_68\n      jump\t// in\n    tag_172:\n        /* \"#utility.yul\":9633:9729   */\n      swap1\n      pop\n        /* \"#utility.yul\":9739:9812   */\n      tag_173\n        /* \"#utility.yul\":9807:9810   */\n      0xa0\n        /* \"#utility.yul\":9796:9805   */\n      dup4\n        /* \"#utility.yul\":9792:9811   */\n      add\n        /* \"#utility.yul\":9783:9789   */\n      dup5\n        /* \"#utility.yul\":9739:9812   */\n      tag_69\n      jump\t// in\n    tag_173:\n        /* \"#utility.yul\":8711:9819   */\n      swap11\n      swap10\n      pop\n      pop\n      pop\n      pop\n      pop\n      pop\n      pop\n      pop\n      pop\n      pop\n      jump\t// out\n        /* \"#utility.yul\":9825:9915   */\n    tag_70:\n        /* \"#utility.yul\":9859:9866   */\n      0x00\n        /* \"#utility.yul\":9902:9907   */\n      dup2\n        /* \"#utility.yul\":9895:9908   */\n      iszero\n        /* \"#utility.yul\":9888:9909   */\n      iszero\n        /* \"#utility.yul\":9877:9909   */\n      swap1\n      pop\n        /* \"#utility.yul\":9825:9915   */\n      swap2\n      swap1\n      pop\n      jump\t// out\n        /* \"#utility.yul\":9921:10037   */\n    tag_71:\n        /* \"#utility.yul\":9991:10012   */\n      tag_176\n        /* \"#utility.yul\":10006:10011   */\n      dup2\n        /* \"#utility.yul\":9991:10012   */\n      tag_70\n      jump\t// in\n    tag_176:\n        /* \"#utility.yul\":9984:9989   */\n      dup2\n        /* \"#utility.yul\":9981:10013   */\n      eq\n        /* \"#utility.yul\":9971:10031   */\n      tag_177\n      jumpi\n        /* \"#utility.yul\":10027:10028   */\n      0x00\n        /* \"#utility.yul\":10024:10025   */\n      dup1\n        /* \"#utility.yul\":10017:10029   */\n      revert\n        /* \"#utility.yul\":9971:10031   */\n    tag_177:\n        /* \"#utility.yul\":9921:10037   */\n      pop\n      jump\t// out\n        /* \"#utility.yul\":10043:10180   */\n    tag_72:\n        /* \"#utility.yul\":10097:10102   */\n      0x00\n        /* \"#utility.yul\":10128:10134   */\n      dup2\n        /* \"#utility.yul\":10122:10135   */\n      mload\n        /* \"#utility.yul\":10113:10135   */\n      swap1\n      pop\n        /* \"#utility.yul\":10144:10174   */\n      tag_179\n        /* \"#utility.yul\":10168:10173   */\n      dup2\n        /* \"#utility.yul\":10144:10174   */\n      tag_71\n      jump\t// in\n    tag_179:\n        /* \"#utility.yul\":10043:10180   */\n      swap3\n      swap2\n      pop\n      pop\n      jump\t// out\n        /* \"#utility.yul\":10186:10531   */\n    tag_26:\n        /* \"#utility.yul\":10253:10259   */\n      0x00\n        /* \"#utility.yul\":10302:10304   */\n      0x20\n        /* \"#utility.yul\":10290:10299   */\n      dup3\n        /* \"#utility.yul\":10281:10288   */\n      dup5\n        /* \"#utility.yul\":10277:10300   */\n      sub\n        /* \"#utility.yul\":10273:10305   */\n      slt\n        /* \"#utility.yul\":10270:10389   */\n      iszero\n      tag_181\n      jumpi\n        /* \"#utility.yul\":10308:10387   */\n      tag_182\n      tag_49\n      jump\t// in\n    tag_182:\n        /* \"#utility.yul\":10270:10389   */\n    tag_181:\n        /* \"#utility.yul\":10428:10429   */\n      0x00\n        /* \"#utility.yul\":10453:10514   */\n      tag_183\n        /* \"#utility.yul\":10506:10513   */\n      dup5\n        /* \"#utility.yul\":10497:10503   */\n      dup3\n        /* \"#utility.yul\":10486:10495   */\n      dup6\n        /* \"#utility.yul\":10482:10504   */\n      add\n        /* \"#utility.yul\":10453:10514   */\n      tag_72\n      jump\t// in\n    tag_183:\n        /* \"#utility.yul\":10443:10514   */\n      swap2\n      pop\n        /* \"#utility.yul\":10399:10524   */\n      pop\n        /* \"#utility.yul\":10186:10531   */\n      swap3\n      swap2\n      pop\n      pop\n      jump\t// out\n        /* \"#utility.yul\":10537:11312   */\n    tag_33:\n        /* \"#utility.yul\":10774:10778   */\n      0x00\n        /* \"#utility.yul\":10812:10815   */\n      0x80\n        /* \"#utility.yul\":10801:10810   */\n      dup3\n        /* \"#utility.yul\":10797:10816   */\n      add\n        /* \"#utility.yul\":10789:10816   */\n      swap1\n      pop\n        /* \"#utility.yul\":10826:10897   */\n      tag_185\n        /* \"#utility.yul\":10894:10895   */\n      0x00\n        /* \"#utility.yul\":10883:10892   */\n      dup4\n        /* \"#utility.yul\":10879:10896   */\n      add\n        /* \"#utility.yul\":10870:10876   */\n      dup10\n        /* \"#utility.yul\":10826:10897   */\n      tag_65\n      jump\t// in\n    tag_185:\n        /* \"#utility.yul\":10944:10953   */\n      dup2\n        /* \"#utility.yul\":10938:10942   */\n      dup2\n        /* \"#utility.yul\":10934:10954   */\n      sub\n        /* \"#utility.yul\":10929:10931   */\n      0x20\n        /* \"#utility.yul\":10918:10927   */\n      dup4\n        /* \"#utility.yul\":10914:10932   */\n      add\n        /* \"#utility.yul\":10907:10955   */\n      mstore\n        /* \"#utility.yul\":10972:11060   */\n      tag_186\n        /* \"#utility.yul\":11055:11059   */\n      dup2\n        /* \"#utility.yul\":11046:11052   */\n      dup8\n        /* \"#utility.yul\":11038:11044   */\n      dup10\n        /* \"#utility.yul\":10972:11060   */\n      tag_68\n      jump\t// in\n    tag_186:\n        /* \"#utility.yul\":10964:11060   */\n      swap1\n      pop\n        /* \"#utility.yul\":11107:11116   */\n      dup2\n        /* \"#utility.yul\":11101:11105   */\n      dup2\n        /* \"#utility.yul\":11097:11117   */\n      sub\n        /* \"#utility.yul\":11092:11094   */\n      0x40\n        /* \"#utility.yul\":11081:11090   */\n      dup4\n        /* \"#utility.yul\":11077:11095   */\n      add\n        /* \"#utility.yul\":11070:11118   */\n      mstore\n        /* \"#utility.yul\":11135:11223   */\n      tag_187\n        /* \"#utility.yul\":11218:11222   */\n      dup2\n        /* \"#utility.yul\":11209:11215   */\n      dup6\n        /* \"#utility.yul\":11201:11207   */\n      dup8\n        /* \"#utility.yul\":11135:11223   */\n      tag_68\n      jump\t// in\n    tag_187:\n        /* \"#utility.yul\":11127:11223   */\n      swap1\n      pop\n        /* \"#utility.yul\":11233:11305   */\n      tag_188\n        /* \"#utility.yul\":11301:11303   */\n      0x60\n        /* \"#utility.yul\":11290:11299   */\n      dup4\n        /* \"#utility.yul\":11286:11304   */\n      add\n        /* \"#utility.yul\":11277:11283   */\n      dup5\n        /* \"#utility.yul\":11233:11305   */\n      tag_65\n      jump\t// in\n    tag_188:\n        /* \"#utility.yul\":10537:11312   */\n      swap8\n      swap7\n      pop\n      pop\n      pop\n      pop\n      pop\n      pop\n      pop\n      jump\t// out\n\n    auxdata: 0xa264697066735822122032331573320446a8db7095ded7dfa30e94ebf6d6f6996d5238fbda880bf5037664736f6c634300081a0033\n}\n",
				"bytecode": {
					"linkReferences": {},
					"object": "60a060405234801561000f575f80fd5b50604051610a19380380610a198339818101604052810190610031919061012e565b5f73ffffffffffffffffffffffffffffffffffffffff168173ffffffffffffffffffffffffffffffffffffffff1603610096576040517fe6c4247b00000000000000000000000000000000000000000000000000000000815260040160405180910390fd5b8073ffffffffffffffffffffffffffffffffffffffff1660808173ffffffffffffffffffffffffffffffffffffffff168152505050610159565b5f80fd5b5f73ffffffffffffffffffffffffffffffffffffffff82169050919050565b5f6100fd826100d4565b9050919050565b61010d816100f3565b8114610117575f80fd5b50565b5f8151905061012881610104565b92915050565b5f60208284031215610143576101426100d0565b5b5f6101508482850161011a565b91505092915050565b60805161089c61017d5f395f8181609b0152818160da01526101f2015261089c5ff3fe608060405234801561000f575f80fd5b506004361061003f575f3560e01c8063116191b6146100435780631a98b2e014610061578063491606581461007d575b5f80fd5b61004b610099565b604051610058919061036e565b60405180910390f35b61007b600480360381019061007691906104ab565b6100bd565b005b610097600480360381019061009291906105b5565b6101d5565b005b7f000000000000000000000000000000000000000000000000000000000000000081565b5f85856040516100ce9291906106b5565b604051809103902090507f000000000000000000000000000000000000000000000000000000000000000073ffffffffffffffffffffffffffffffffffffffff16631876eed98c8c8c8c8c878b8b8b6040518a63ffffffff1660e01b815260040161014199989796959493929190610737565b6020604051808303815f875af115801561015d573d5f803e3d5ffd5b505050506040513d601f19601f8201168201806040525081019061018191906107e6565b6101b7576040517f500c44b400000000000000000000000000000000000000000000000000000000815260040160405180910390fd5b6101c88a8a8a8a8a8a8a8a8a6102e1565b5050505050505050505050565b5f82826040516101e69291906106b5565b604051809103902090507f000000000000000000000000000000000000000000000000000000000000000073ffffffffffffffffffffffffffffffffffffffff16635f6970c38989898989876040518763ffffffff1660e01b815260040161025396959493929190610811565b6020604051808303815f875af115801561026f573d5f803e3d5ffd5b505050506040513d601f19601f8201168201806040525081019061029391906107e6565b6102c9576040517f500c44b400000000000000000000000000000000000000000000000000000000815260040160405180910390fd5b6102d78787878787876102ec565b5050505050505050565b505050505050505050565b505050505050565b5f73ffffffffffffffffffffffffffffffffffffffff82169050919050565b5f819050919050565b5f61033661033161032c846102f4565b610313565b6102f4565b9050919050565b5f6103478261031c565b9050919050565b5f6103588261033d565b9050919050565b6103688161034e565b82525050565b5f6020820190506103815f83018461035f565b92915050565b5f80fd5b5f80fd5b5f819050919050565b6103a18161038f565b81146103ab575f80fd5b50565b5f813590506103bc81610398565b92915050565b5f80fd5b5f80fd5b5f80fd5b5f8083601f8401126103e3576103e26103c2565b5b8235905067ffffffffffffffff811115610400576103ff6103c6565b5b60208301915083600182028301111561041c5761041b6103ca565b5b9250929050565b5f8083601f840112610438576104376103c2565b5b8235905067ffffffffffffffff811115610455576104546103c6565b5b602083019150836001820283011115610471576104706103ca565b5b9250929050565b5f819050919050565b61048a81610478565b8114610494575f80fd5b50565b5f813590506104a581610481565b92915050565b5f805f805f805f805f8060c08b8d0312156104c9576104c8610387565b5b5f6104d68d828e016103ae565b9a505060208b013567ffffffffffffffff8111156104f7576104f661038b565b5b6105038d828e016103ce565b995099505060408b013567ffffffffffffffff8111156105265761052561038b565b5b6105328d828e016103ce565b975097505060608b013567ffffffffffffffff8111156105555761055461038b565b5b6105618d828e01610423565b955095505060808b013567ffffffffffffffff8111156105845761058361038b565b5b6105908d828e016103ce565b935093505060a06105a38d828e01610497565b9150509295989b9194979a5092959850565b5f805f805f805f6080888a0312156105d0576105cf610387565b5b5f6105dd8a828b016103ae565b975050602088013567ffffffffffffffff8111156105fe576105fd61038b565b5b61060a8a828b016103ce565b9650965050604088013567ffffffffffffffff81111561062d5761062c61038b565b5b6106398a828b016103ce565b9450945050606088013567ffffffffffffffff81111561065c5761065b61038b565b5b6106688a828b01610423565b925092505092959891949750929550565b5f81905092915050565b828183375f83830152505050565b5f61069c8385610679565b93506106a9838584610683565b82840190509392505050565b5f6106c1828486610691565b91508190509392505050565b6106d68161038f565b82525050565b5f82825260208201905092915050565b5f601f19601f8301169050919050565b5f61070783856106dc565b9350610714838584610683565b61071d836106ec565b840190509392505050565b61073181610478565b82525050565b5f60c08201905061074a5f83018c6106cd565b818103602083015261075d818a8c6106fc565b9050818103604083015261077281888a6106fc565b905061078160608301876106cd565b81810360808301526107948185876106fc565b90506107a360a0830184610728565b9a9950505050505050505050565b5f8115159050919050565b6107c5816107b1565b81146107cf575f80fd5b50565b5f815190506107e0816107bc565b92915050565b5f602082840312156107fb576107fa610387565b5b5f610808848285016107d2565b91505092915050565b5f6080820190506108245f8301896106cd565b81810360208301526108378187896106fc565b9050818103604083015261084c8185876106fc565b905061085b60608301846106cd565b97965050505050505056fea264697066735822122032331573320446a8db7095ded7dfa30e94ebf6d6f6996d5238fbda880bf5037664736f6c634300081a0033",
					"opcodes": "PUSH1 0xA0 PUSH1 0x40 MSTORE CALLVALUE DUP1 ISZERO PUSH2 0xF JUMPI PUSH0 DUP1 REVERT JUMPDEST POP PUSH1 0x40 MLOAD PUSH2 0xA19 CODESIZE SUB DUP1 PUSH2 0xA19 DUP4 CODECOPY DUP2 DUP2 ADD PUSH1 0x40 MSTORE DUP2 ADD SWAP1 PUSH2 0x31 SWAP2 SWAP1 PUSH2 0x12E JUMP JUMPDEST PUSH0 PUSH20 0xFFFFFFFFFFFFFFFFFFFFFFFFFFFFFFFFFFFFFFFF AND DUP2 PUSH20 0xFFFFFFFFFFFFFFFFFFFFFFFFFFFFFFFFFFFFFFFF AND SUB PUSH2 0x96 JUMPI PUSH1 0x40 MLOAD PUSH32 0xE6C4247B00000000000000000000000000000000000000000000000000000000 DUP2 MSTORE PUSH1 0x4 ADD PUSH1 0x40 MLOAD DUP1 SWAP2 SUB SWAP1 REVERT JUMPDEST DUP1 PUSH20 0xFFFFFFFFFFFFFFFFFFFFFFFFFFFFFFFFFFFFFFFF AND PUSH1 0x80 DUP2 PUSH20 0xFFFFFFFFFFFFFFFFFFFFFFFFFFFFFFFFFFFFFFFF AND DUP2 MSTORE POP POP POP PUSH2 0x159 JUMP JUMPDEST PUSH0 DUP1 REVERT JUMPDEST PUSH0 PUSH20 0xFFFFFFFFFFFFFFFFFFFFFFFFFFFFFFFFFFFFFFFF DUP3 AND SWAP1 POP SWAP2 SWAP1 POP JUMP JUMPDEST PUSH0 PUSH2 0xFD DUP3 PUSH2 0xD4 JUMP JUMPDEST SWAP1 POP SWAP2 SWAP1 POP JUMP JUMPDEST PUSH2 0x10D DUP2 PUSH2 0xF3 JUMP JUMPDEST DUP2 EQ PUSH2 0x117 JUMPI PUSH0 DUP1 REVERT JUMPDEST POP JUMP JUMPDEST PUSH0 DUP2 MLOAD SWAP1 POP PUSH2 0x128 DUP2 PUSH2 0x104 JUMP JUMPDEST SWAP3 SWAP2 POP POP JUMP JUMPDEST PUSH0 PUSH1 0x20 DUP3 DUP5 SUB SLT ISZERO PUSH2 0x143 JUMPI PUSH2 0x142 PUSH2 0xD0 JUMP JUMPDEST JUMPDEST PUSH0 PUSH2 0x150 DUP5 DUP3 DUP6 ADD PUSH2 0x11A JUMP JUMPDEST SWAP2 POP POP SWAP3 SWAP2 POP POP JUMP JUMPDEST PUSH1 0x80 MLOAD PUSH2 0x89C PUSH2 0x17D PUSH0 CODECOPY PUSH0 DUP2 DUP2 PUSH1 0x9B ADD MSTORE DUP2 DUP2 PUSH1 0xDA ADD MSTORE PUSH2 0x1F2 ADD MSTORE PUSH2 0x89C PUSH0 RETURN INVALID PUSH1 0x80 PUSH1 0x40 MSTORE CALLVALUE DUP1 ISZERO PUSH2 0xF JUMPI PUSH0 DUP1 REVERT JUMPDEST POP PUSH1 0x4 CALLDATASIZE LT PUSH2 0x3F JUMPI PUSH0 CALLDATALOAD PUSH1 0xE0 SHR DUP1 PUSH4 0x116191B6 EQ PUSH2 0x43 JUMPI DUP1 PUSH4 0x1A98B2E0 EQ PUSH2 0x61 JUMPI DUP1 PUSH4 0x49160658 EQ PUSH2 0x7D JUMPI JUMPDEST PUSH0 DUP1 REVERT JUMPDEST PUSH2 0x4B PUSH2 0x99 JUMP JUMPDEST PUSH1 0x40 MLOAD PUSH2 0x58 SWAP2 SWAP1 PUSH2 0x36E JUMP JUMPDEST PUSH1 0x40 MLOAD DUP1 SWAP2 SUB SWAP1 RETURN JUMPDEST PUSH2 0x7B PUSH1 0x4 DUP1 CALLDATASIZE SUB DUP2 ADD SWAP1 PUSH2 0x76 SWAP2 SWAP1 PUSH2 0x4AB JUMP JUMPDEST PUSH2 0xBD JUMP JUMPDEST STOP JUMPDEST PUSH2 0x97 PUSH1 0x4 DUP1 CALLDATASIZE SUB DUP2 ADD SWAP1 PUSH2 0x92 SWAP2 SWAP1 PUSH2 0x5B5 JUMP JUMPDEST PUSH2 0x1D5 JUMP JUMPDEST STOP JUMPDEST PUSH32 0x0 DUP2 JUMP JUMPDEST PUSH0 DUP6 DUP6 PUSH1 0x40 MLOAD PUSH2 0xCE SWAP3 SWAP2 SWAP1 PUSH2 0x6B5 JUMP JUMPDEST PUSH1 0x40 MLOAD DUP1 SWAP2 SUB SWAP1 KECCAK256 SWAP1 POP PUSH32 0x0 PUSH20 0xFFFFFFFFFFFFFFFFFFFFFFFFFFFFFFFFFFFFFFFF AND PUSH4 0x1876EED9 DUP13 DUP13 DUP13 DUP13 DUP13 DUP8 DUP12 DUP12 DUP12 PUSH1 0x40 MLOAD DUP11 PUSH4 0xFFFFFFFF AND PUSH1 0xE0 SHL DUP2 MSTORE PUSH1 0x4 ADD PUSH2 0x141 SWAP10 SWAP9 SWAP8 SWAP7 SWAP6 SWAP5 SWAP4 SWAP3 SWAP2 SWAP1 PUSH2 0x737 JUMP JUMPDEST PUSH1 0x20 PUSH1 0x40 MLOAD DUP1 DUP4 SUB DUP2 PUSH0 DUP8 GAS CALL ISZERO DUP1 ISZERO PUSH2 0x15D JUMPI RETURNDATASIZE PUSH0 DUP1 RETURNDATACOPY RETURNDATASIZE PUSH0 REVERT JUMPDEST POP POP POP POP PUSH1 0x40 MLOAD RETURNDATASIZE PUSH1 0x1F NOT PUSH1 0x1F DUP3 ADD AND DUP3 ADD DUP1 PUSH1 0x40 MSTORE POP DUP2 ADD SWAP1 PUSH2 0x181 SWAP2 SWAP1 PUSH2 0x7E6 JUMP JUMPDEST PUSH2 0x1B7 JUMPI PUSH1 0x40 MLOAD PUSH32 0x500C44B400000000000000000000000000000000000000000000000000000000 DUP2 MSTORE PUSH1 0x4 ADD PUSH1 0x40 MLOAD DUP1 SWAP2 SUB SWAP1 REVERT JUMPDEST PUSH2 0x1C8 DUP11 DUP11 DUP11 DUP11 DUP11 DUP11 DUP11 DUP11 DUP11 PUSH2 0x2E1 JUMP JUMPDEST POP POP POP POP POP POP POP POP POP POP POP JUMP JUMPDEST PUSH0 DUP3 DUP3 PUSH1 0x40 MLOAD PUSH2 0x1E6 SWAP3 SWAP2 SWAP1 PUSH2 0x6B5 JUMP JUMPDEST PUSH1 0x40 MLOAD DUP1 SWAP2 SUB SWAP1 KECCAK256 SWAP1 POP PUSH32 0x0 PUSH20 0xFFFFFFFFFFFFFFFFFFFFFFFFFFFFFFFFFFFFFFFF AND PUSH4 0x5F6970C3 DUP10 DUP10 DUP10 DUP10 DUP10 DUP8 PUSH1 0x40 MLOAD DUP8 PUSH4 0xFFFFFFFF AND PUSH1 0xE0 SHL DUP2 MSTORE PUSH1 0x4 ADD PUSH2 0x253 SWAP7 SWAP6 SWAP5 SWAP4 SWAP3 SWAP2 SWAP1 PUSH2 0x811 JUMP JUMPDEST PUSH1 0x20 PUSH1 0x40 MLOAD DUP1 DUP4 SUB DUP2 PUSH0 DUP8 GAS CALL ISZERO DUP1 ISZERO PUSH2 0x26F JUMPI RETURNDATASIZE PUSH0 DUP1 RETURNDATACOPY RETURNDATASIZE PUSH0 REVERT JUMPDEST POP POP POP POP PUSH1 0x40 MLOAD RETURNDATASIZE PUSH1 0x1F NOT PUSH1 0x1F DUP3 ADD AND DUP3 ADD DUP1 PUSH1 0x40 MSTORE POP DUP2 ADD SWAP1 PUSH2 0x293 SWAP2 SWAP1 PUSH2 0x7E6 JUMP JUMPDEST PUSH2 0x2C9 JUMPI PUSH1 0x40 MLOAD PUSH32 0x500C44B400000000000000000000000000000000000000000000000000000000 DUP2 MSTORE PUSH1 0x4 ADD PUSH1 0x40 MLOAD DUP1 SWAP2 SUB SWAP1 REVERT JUMPDEST PUSH2 0x2D7 DUP8 DUP8 DUP8 DUP8 DUP8 DUP8 PUSH2 0x2EC JUMP JUMPDEST POP POP POP POP POP POP POP POP JUMP JUMPDEST POP POP POP POP POP POP POP POP POP JUMP JUMPDEST POP POP POP POP POP POP JUMP JUMPDEST PUSH0 PUSH20 0xFFFFFFFFFFFFFFFFFFFFFFFFFFFFFFFFFFFFFFFF DUP3 AND SWAP1 POP SWAP2 SWAP1 POP JUMP JUMPDEST PUSH0 DUP2 SWAP1 POP SWAP2 SWAP1 POP JUMP JUMPDEST PUSH0 PUSH2 0x336 PUSH2 0x331 PUSH2 0x32C DUP5 PUSH2 0x2F4 JUMP JUMPDEST PUSH2 0x313 JUMP JUMPDEST PUSH2 0x2F4 JUMP JUMPDEST SWAP1 POP SWAP2 SWAP1 POP JUMP JUMPDEST PUSH0 PUSH2 0x347 DUP3 PUSH2 0x31C JUMP JUMPDEST SWAP1 POP SWAP2 SWAP1 POP JUMP JUMPDEST PUSH0 PUSH2 0x358 DUP3 PUSH2 0x33D JUMP JUMPDEST SWAP1 POP SWAP2 SWAP1 POP JUMP JUMPDEST PUSH2 0x368 DUP2 PUSH2 0x34E JUMP JUMPDEST DUP3 MSTORE POP POP JUMP JUMPDEST PUSH0 PUSH1 0x20 DUP3 ADD SWAP1 POP PUSH2 0x381 PUSH0 DUP4 ADD DUP5 PUSH2 0x35F JUMP JUMPDEST SWAP3 SWAP2 POP POP JUMP JUMPDEST PUSH0 DUP1 REVERT JUMPDEST PUSH0 DUP1 REVERT JUMPDEST PUSH0 DUP2 SWAP1 POP SWAP2 SWAP1 POP JUMP JUMPDEST PUSH2 0x3A1 DUP2 PUSH2 0x38F JUMP JUMPDEST DUP2 EQ PUSH2 0x3AB JUMPI PUSH0 DUP1 REVERT JUMPDEST POP JUMP JUMPDEST PUSH0 DUP2 CALLDATALOAD SWAP1 POP PUSH2 0x3BC DUP2 PUSH2 0x398 JUMP JUMPDEST SWAP3 SWAP2 POP POP JUMP JUMPDEST PUSH0 DUP1 REVERT JUMPDEST PUSH0 DUP1 REVERT JUMPDEST PUSH0 DUP1 REVERT JUMPDEST PUSH0 DUP1 DUP4 PUSH1 0x1F DUP5 ADD SLT PUSH2 0x3E3 JUMPI PUSH2 0x3E2 PUSH2 0x3C2 JUMP JUMPDEST JUMPDEST DUP3 CALLDATALOAD SWAP1 POP PUSH8 0xFFFFFFFFFFFFFFFF DUP2 GT ISZERO PUSH2 0x400 JUMPI PUSH2 0x3FF PUSH2 0x3C6 JUMP JUMPDEST JUMPDEST PUSH1 0x20 DUP4 ADD SWAP2 POP DUP4 PUSH1 0x1 DUP3 MUL DUP4 ADD GT ISZERO PUSH2 0x41C JUMPI PUSH2 0x41B PUSH2 0x3CA JUMP JUMPDEST JUMPDEST SWAP3 POP SWAP3 SWAP1 POP JUMP JUMPDEST PUSH0 DUP1 DUP4 PUSH1 0x1F DUP5 ADD SLT PUSH2 0x438 JUMPI PUSH2 0x437 PUSH2 0x3C2 JUMP JUMPDEST JUMPDEST DUP3 CALLDATALOAD SWAP1 POP PUSH8 0xFFFFFFFFFFFFFFFF DUP2 GT ISZERO PUSH2 0x455 JUMPI PUSH2 0x454 PUSH2 0x3C6 JUMP JUMPDEST JUMPDEST PUSH1 0x20 DUP4 ADD SWAP2 POP DUP4 PUSH1 0x1 DUP3 MUL DUP4 ADD GT ISZERO PUSH2 0x471 JUMPI PUSH2 0x470 PUSH2 0x3CA JUMP JUMPDEST JUMPDEST SWAP3 POP SWAP3 SWAP1 POP JUMP JUMPDEST PUSH0 DUP2 SWAP1 POP SWAP2 SWAP1 POP JUMP JUMPDEST PUSH2 0x48A DUP2 PUSH2 0x478 JUMP JUMPDEST DUP2 EQ PUSH2 0x494 JUMPI PUSH0 DUP1 REVERT JUMPDEST POP JUMP JUMPDEST PUSH0 DUP2 CALLDATALOAD SWAP1 POP PUSH2 0x4A5 DUP2 PUSH2 0x481 JUMP JUMPDEST SWAP3 SWAP2 POP POP JUMP JUMPDEST PUSH0 DUP1 PUSH0 DUP1 PUSH0 DUP1 PUSH0 DUP1 PUSH0 DUP1 PUSH1 0xC0 DUP12 DUP14 SUB SLT ISZERO PUSH2 0x4C9 JUMPI PUSH2 0x4C8 PUSH2 0x387 JUMP JUMPDEST JUMPDEST PUSH0 PUSH2 0x4D6 DUP14 DUP3 DUP15 ADD PUSH2 0x3AE JUMP JUMPDEST SWAP11 POP POP PUSH1 0x20 DUP12 ADD CALLDATALOAD PUSH8 0xFFFFFFFFFFFFFFFF DUP2 GT ISZERO PUSH2 0x4F7 JUMPI PUSH2 0x4F6 PUSH2 0x38B JUMP JUMPDEST JUMPDEST PUSH2 0x503 DUP14 DUP3 DUP15 ADD PUSH2 0x3CE JUMP JUMPDEST SWAP10 POP SWAP10 POP POP PUSH1 0x40 DUP12 ADD CALLDATALOAD PUSH8 0xFFFFFFFFFFFFFFFF DUP2 GT ISZERO PUSH2 0x526 JUMPI PUSH2 0x525 PUSH2 0x38B JUMP JUMPDEST JUMPDEST PUSH2 0x532 DUP14 DUP3 DUP15 ADD PUSH2 0x3CE JUMP JUMPDEST SWAP8 POP SWAP8 POP POP PUSH1 0x60 DUP12 ADD CALLDATALOAD PUSH8 0xFFFFFFFFFFFFFFFF DUP2 GT ISZERO PUSH2 0x555 JUMPI PUSH2 0x554 PUSH2 0x38B JUMP JUMPDEST JUMPDEST PUSH2 0x561 DUP14 DUP3 DUP15 ADD PUSH2 0x423 JUMP JUMPDEST SWAP6 POP SWAP6 POP POP PUSH1 0x80 DUP12 ADD CALLDATALOAD PUSH8 0xFFFFFFFFFFFFFFFF DUP2 GT ISZERO PUSH2 0x584 JUMPI PUSH2 0x583 PUSH2 0x38B JUMP JUMPDEST JUMPDEST PUSH2 0x590 DUP14 DUP3 DUP15 ADD PUSH2 0x3CE JUMP JUMPDEST SWAP4 POP SWAP4 POP POP PUSH1 0xA0 PUSH2 0x5A3 DUP14 DUP3 DUP15 ADD PUSH2 0x497 JUMP JUMPDEST SWAP2 POP POP SWAP3 SWAP6 SWAP9 SWAP12 SWAP2 SWAP5 SWAP8 SWAP11 POP SWAP3 SWAP6 SWAP9 POP JUMP JUMPDEST PUSH0 DUP1 PUSH0 DUP1 PUSH0 DUP1 PUSH0 PUSH1 0x80 DUP9 DUP11 SUB SLT ISZERO PUSH2 0x5D0 JUMPI PUSH2 0x5CF PUSH2 0x387 JUMP JUMPDEST JUMPDEST PUSH0 PUSH2 0x5DD DUP11 DUP3 DUP12 ADD PUSH2 0x3AE JUMP JUMPDEST SWAP8 POP POP PUSH1 0x20 DUP9 ADD CALLDATALOAD PUSH8 0xFFFFFFFFFFFFFFFF DUP2 GT ISZERO PUSH2 0x5FE JUMPI PUSH2 0x5FD PUSH2 0x38B JUMP JUMPDEST JUMPDEST PUSH2 0x60A DUP11 DUP3 DUP12 ADD PUSH2 0x3CE JUMP JUMPDEST SWAP7 POP SWAP7 POP POP PUSH1 0x40 DUP9 ADD CALLDATALOAD PUSH8 0xFFFFFFFFFFFFFFFF DUP2 GT ISZERO PUSH2 0x62D JUMPI PUSH2 0x62C PUSH2 0x38B JUMP JUMPDEST JUMPDEST PUSH2 0x639 DUP11 DUP3 DUP12 ADD PUSH2 0x3CE JUMP JUMPDEST SWAP5 POP SWAP5 POP POP PUSH1 0x60 DUP9 ADD CALLDATALOAD PUSH8 0xFFFFFFFFFFFFFFFF DUP2 GT ISZERO PUSH2 0x65C JUMPI PUSH2 0x65B PUSH2 0x38B JUMP JUMPDEST JUMPDEST PUSH2 0x668 DUP11 DUP3 DUP12 ADD PUSH2 0x423 JUMP JUMPDEST SWAP3 POP SWAP3 POP POP SWAP3 SWAP6 SWAP9 SWAP2 SWAP5 SWAP8 POP SWAP3 SWAP6 POP JUMP JUMPDEST PUSH0 DUP2 SWAP1 POP SWAP3 SWAP2 POP POP JUMP JUMPDEST DUP3 DUP2 DUP4 CALLDATACOPY PUSH0 DUP4 DUP4 ADD MSTORE POP POP POP JUMP JUMPDEST PUSH0 PUSH2 0x69C DUP4 DUP6 PUSH2 0x679 JUMP JUMPDEST SWAP4 POP PUSH2 0x6A9 DUP4 DUP6 DUP5 PUSH2 0x683 JUMP JUMPDEST DUP3 DUP5 ADD SWAP1 POP SWAP4 SWAP3 POP POP POP JUMP JUMPDEST PUSH0 PUSH2 0x6C1 DUP3 DUP5 DUP7 PUSH2 0x691 JUMP JUMPDEST SWAP2 POP DUP2 SWAP1 POP SWAP4 SWAP3 POP POP POP JUMP JUMPDEST PUSH2 0x6D6 DUP2 PUSH2 0x38F JUMP JUMPDEST DUP3 MSTORE POP POP JUMP JUMPDEST PUSH0 DUP3 DUP3 MSTORE PUSH1 0x20 DUP3 ADD SWAP1 POP SWAP3 SWAP2 POP POP JUMP JUMPDEST PUSH0 PUSH1 0x1F NOT PUSH1 0x1F DUP4 ADD AND SWAP1 POP SWAP2 SWAP1 POP JUMP JUMPDEST PUSH0 PUSH2 0x707 DUP4 DUP6 PUSH2 0x6DC JUMP JUMPDEST SWAP4 POP PUSH2 0x714 DUP4 DUP6 DUP5 PUSH2 0x683 JUMP JUMPDEST PUSH2 0x71D DUP4 PUSH2 0x6EC JUMP JUMPDEST DUP5 ADD SWAP1 POP SWAP4 SWAP3 POP POP POP JUMP JUMPDEST PUSH2 0x731 DUP2 PUSH2 0x478 JUMP JUMPDEST DUP3 MSTORE POP POP JUMP JUMPDEST PUSH0 PUSH1 0xC0 DUP3 ADD SWAP1 POP PUSH2 0x74A PUSH0 DUP4 ADD DUP13 PUSH2 0x6CD JUMP JUMPDEST DUP2 DUP2 SUB PUSH1 0x20 DUP4 ADD MSTORE PUSH2 0x75D DUP2 DUP11 DUP13 PUSH2 0x6FC JUMP JUMPDEST SWAP1 POP DUP2 DUP2 SUB PUSH1 0x40 DUP4 ADD MSTORE PUSH2 0x772 DUP2 DUP9 DUP11 PUSH2 0x6FC JUMP JUMPDEST SWAP1 POP PUSH2 0x781 PUSH1 0x60 DUP4 ADD DUP8 PUSH2 0x6CD JUMP JUMPDEST DUP2 DUP2 SUB PUSH1 0x80 DUP4 ADD MSTORE PUSH2 0x794 DUP2 DUP6 DUP8 PUSH2 0x6FC JUMP JUMPDEST SWAP1 POP PUSH2 0x7A3 PUSH1 0xA0 DUP4 ADD DUP5 PUSH2 0x728 JUMP JUMPDEST SWAP11 SWAP10 POP POP POP POP POP POP POP POP POP POP JUMP JUMPDEST PUSH0 DUP2 ISZERO ISZERO SWAP1 POP SWAP2 SWAP1 POP JUMP JUMPDEST PUSH2 0x7C5 DUP2 PUSH2 0x7B1 JUMP JUMPDEST DUP2 EQ PUSH2 0x7CF JUMPI PUSH0 DUP1 REVERT JUMPDEST POP JUMP JUMPDEST PUSH0 DUP2 MLOAD SWAP1 POP PUSH2 0x7E0 DUP2 PUSH2 0x7BC JUMP JUMPDEST SWAP3 SWAP2 POP POP JUMP JUMPDEST PUSH0 PUSH1 0x20 DUP3 DUP5 SUB SLT ISZERO PUSH2 0x7FB JUMPI PUSH2 0x7FA PUSH2 0x387 JUMP JUMPDEST JUMPDEST PUSH0 PUSH2 0x808 DUP5 DUP3 DUP6 ADD PUSH2 0x7D2 JUMP JUMPDEST SWAP2 POP POP SWAP3 SWAP2 POP POP JUMP JUMPDEST PUSH0 PUSH1 0x80 DUP3 ADD SWAP1 POP PUSH2 0x824 PUSH0 DUP4 ADD DUP10 PUSH2 0x6CD JUMP JUMPDEST DUP2 DUP2 SUB PUSH1 0x20 DUP4 ADD MSTORE PUSH2 0x837 DUP2 DUP8 DUP10 PUSH2 0x6FC JUMP JUMPDEST SWAP1 POP DUP2 DUP2 SUB PUSH1 0x40 DUP4 ADD MSTORE PUSH2 0x84C DUP2 DUP6 DUP8 PUSH2 0x6FC JUMP JUMPDEST SWAP1 POP PUSH2 0x85B PUSH1 0x60 DUP4 ADD DUP5 PUSH2 0x6CD JUMP JUMPDEST SWAP8 SWAP7 POP POP POP POP POP POP POP JUMP INVALID LOG2 PUSH5 0x6970667358 0x22 SLT KECCAK256 ORIGIN CALLER ISZERO PUSH20 0x320446A8DB7095DED7DFA30E94EBF6D6F6996D52 CODESIZE 0xFB 0xDA DUP9 SIGNEXTEND CREATE2 SUB PUSH23 0x64736F6C634300081A0033000000000000000000000000 "
				},
				"gasEstimates": {
					"creation": {
						"codeDepositCost": "440800",
						"executionCost": "infinite",
						"totalCost": "infinite"
					},
					"external": {
						"execute(bytes32,string,string,bytes)": "infinite",
						"executeWithToken(bytes32,string,string,bytes,string,uint256)": "infinite",
						"gateway()": "infinite"
					},
					"internal": {
						"_execute(string calldata,string calldata,bytes calldata)": "21",
						"_executeWithToken(string calldata,string calldata,bytes calldata,string calldata,uint256)": "27"
					}
				},
				"methodIdentifiers": {
					"execute(bytes32,string,string,bytes)": "49160658",
					"executeWithToken(bytes32,string,string,bytes,string,uint256)": "1a98b2e0",
					"gateway()": "116191b6"
				}
			},
			"storageLayout": {
				"storage": [],
				"types": null
			},
			"userdoc": {
				"kind": "user",
				"methods": {},
				"version": 1
			}
		}
	}
}