{
	"contracts/GreetingCard.sol": {
		"GreetingCard": {
			"abi": [
				{
					"inputs": [
						{
							"internalType": "address",
							"name": "gateway_",
							"type": "address"
						},
						{
							"internalType": "address",
							"name": "gasService_",
							"type": "address"
						}
					],
					"stateMutability": "nonpayable",
					"type": "constructor"
				},
				{
					"inputs": [],
					"name": "InvalidAddress",
					"type": "error"
				},
				{
					"inputs": [],
					"name": "NotApprovedByGateway",
					"type": "error"
				},
				{
					"anonymous": false,
					"inputs": [
						{
							"indexed": true,
							"internalType": "address",
							"name": "sender",
							"type": "address"
						},
						{
							"indexed": false,
							"internalType": "string",
							"name": "destinationChain",
							"type": "string"
						},
						{
							"indexed": false,
							"internalType": "string",
							"name": "recipient",
							"type": "string"
						}
					],
					"name": "CrossChainQuoteSent",
					"type": "event"
				},
				{
					"anonymous": false,
					"inputs": [
						{
							"indexed": true,
							"internalType": "address",
							"name": "sender",
							"type": "address"
						},
						{
							"indexed": false,
							"internalType": "string",
							"name": "quote",
							"type": "string"
						}
					],
					"name": "QuoteStored",
					"type": "event"
				},
				{
					"inputs": [
						{
							"internalType": "bytes32",
							"name": "commandId",
							"type": "bytes32"
						},
						{
							"internalType": "string",
							"name": "sourceChain",
							"type": "string"
						},
						{
							"internalType": "string",
							"name": "sourceAddress",
							"type": "string"
						},
						{
							"internalType": "bytes",
							"name": "payload",
							"type": "bytes"
						}
					],
					"name": "execute",
					"outputs": [],
					"stateMutability": "nonpayable",
					"type": "function"
				},
				{
					"inputs": [
						{
							"internalType": "bytes32",
							"name": "commandId",
							"type": "bytes32"
						},
						{
							"internalType": "string",
							"name": "sourceChain",
							"type": "string"
						},
						{
							"internalType": "string",
							"name": "sourceAddress",
							"type": "string"
						},
						{
							"internalType": "bytes",
							"name": "payload",
							"type": "bytes"
						},
						{
							"internalType": "string",
							"name": "tokenSymbol",
							"type": "string"
						},
						{
							"internalType": "uint256",
							"name": "amount",
							"type": "uint256"
						}
					],
					"name": "executeWithToken",
					"outputs": [],
					"stateMutability": "nonpayable",
					"type": "function"
				},
				{
					"inputs": [],
					"name": "gasService",
					"outputs": [
						{
							"internalType": "contract IAxelarGasService",
							"name": "",
							"type": "address"
						}
					],
					"stateMutability": "view",
					"type": "function"
				},
				{
					"inputs": [],
					"name": "gateway",
					"outputs": [
						{
							"internalType": "contract IAxelarGateway",
							"name": "",
							"type": "address"
						}
					],
					"stateMutability": "view",
					"type": "function"
				},
				{
					"inputs": [
						{
							"internalType": "address",
							"name": "",
							"type": "address"
						}
					],
					"name": "quotes",
					"outputs": [
						{
							"internalType": "string",
							"name": "",
							"type": "string"
						}
					],
					"stateMutability": "view",
					"type": "function"
				},
				{
					"inputs": [
						{
							"internalType": "address",
							"name": "_address",
							"type": "address"
						}
					],
					"name": "retrieveQuote",
					"outputs": [
						{
							"internalType": "string",
							"name": "",
							"type": "string"
						}
					],
					"stateMutability": "view",
					"type": "function"
				},
				{
					"inputs": [
						{
							"internalType": "string",
							"name": "destinationChain",
							"type": "string"
						},
						{
							"internalType": "string",
							"name": "destinationAddress",
							"type": "string"
						},
						{
							"internalType": "string",
							"name": "_quote",
							"type": "string"
						},
						{
							"internalType": "string",
							"name": "wardenRouterAddress",
							"type": "string"
						}
					],
					"name": "sendCrossChainQuote",
					"outputs": [],
					"stateMutability": "payable",
					"type": "function"
				},
				{
					"inputs": [
						{
							"internalType": "string",
							"name": "_quote",
							"type": "string"
						}
					],
					"name": "storeQuote",
					"outputs": [],
					"stateMutability": "nonpayable",
					"type": "function"
				}
			],
			"devdoc": {
				"kind": "dev",
				"methods": {},
				"version": 1
			},
			"evm": {
				"assembly": "    /* \"contracts/GreetingCard.sol\":296:3198  contract GreetingCard is AxelarExecutable {... */\n  mstore(0x40, 0xc0)\n    /* \"contracts/GreetingCard.sol\":615:753  constructor(address gateway_, address gasService_) AxelarExecutable(gateway_) {... */\n  callvalue\n  dup1\n  iszero\n  tag_1\n  jumpi\n  0x00\n  dup1\n  revert\ntag_1:\n  pop\n  mload(0x40)\n  sub(codesize, bytecodeSize)\n  dup1\n  bytecodeSize\n  dup4\n  codecopy\n  dup2\n  dup2\n  add\n  0x40\n  mstore\n  dup2\n  add\n  swap1\n  tag_2\n  swap2\n  swap1\n  tag_3\n  jump\t// in\ntag_2:\n    /* \"contracts/GreetingCard.sol\":683:691  gateway_ */\n  dup2\n    /* \"@axelar-network/axelar-gmp-sdk-solidity/contracts/executable/AxelarExecutable.sol\":362:363  0 */\n  0x00\n    /* \"@axelar-network/axelar-gmp-sdk-solidity/contracts/executable/AxelarExecutable.sol\":342:364  gateway_ == address(0) */\n  0xffffffffffffffffffffffffffffffffffffffff\n  and\n    /* \"@axelar-network/axelar-gmp-sdk-solidity/contracts/executable/AxelarExecutable.sol\":342:350  gateway_ */\n  dup2\n    /* \"@axelar-network/axelar-gmp-sdk-solidity/contracts/executable/AxelarExecutable.sol\":342:364  gateway_ == address(0) */\n  0xffffffffffffffffffffffffffffffffffffffff\n  and\n  sub\n    /* \"@axelar-network/axelar-gmp-sdk-solidity/contracts/executable/AxelarExecutable.sol\":338:389  if (gateway_ == address(0)) revert InvalidAddress() */\n  tag_7\n  jumpi\n    /* \"@axelar-network/axelar-gmp-sdk-solidity/contracts/executable/AxelarExecutable.sol\":373:389  InvalidAddress() */\n  mload(0x40)\n  0xe6c4247b00000000000000000000000000000000000000000000000000000000\n  dup2\n  mstore\n  0x04\n  add\n  mload(0x40)\n  dup1\n  swap2\n  sub\n  swap1\n  revert\n    /* \"@axelar-network/axelar-gmp-sdk-solidity/contracts/executable/AxelarExecutable.sol\":338:389  if (gateway_ == address(0)) revert InvalidAddress() */\ntag_7:\n    /* \"@axelar-network/axelar-gmp-sdk-solidity/contracts/executable/AxelarExecutable.sol\":425:433  gateway_ */\n  dup1\n    /* \"@axelar-network/axelar-gmp-sdk-solidity/contracts/executable/AxelarExecutable.sol\":400:434  gateway = IAxelarGateway(gateway_) */\n  0xffffffffffffffffffffffffffffffffffffffff\n  and\n  0x80\n  dup2\n  0xffffffffffffffffffffffffffffffffffffffff\n  and\n  dup2\n  mstore\n  pop\n  pop\n    /* \"@axelar-network/axelar-gmp-sdk-solidity/contracts/executable/AxelarExecutable.sol\":298:441  constructor(address gateway_) {... */\n  pop\n    /* \"contracts/GreetingCard.sol\":734:745  gasService_ */\n  dup1\n    /* \"contracts/GreetingCard.sol\":703:746  gasService = IAxelarGasService(gasService_) */\n  0xffffffffffffffffffffffffffffffffffffffff\n  and\n  0xa0\n  dup2\n  0xffffffffffffffffffffffffffffffffffffffff\n  and\n  dup2\n  mstore\n  pop\n  pop\n    /* \"contracts/GreetingCard.sol\":615:753  constructor(address gateway_, address gasService_) AxelarExecutable(gateway_) {... */\n  pop\n  pop\n    /* \"contracts/GreetingCard.sol\":296:3198  contract GreetingCard is AxelarExecutable {... */\n  jump(tag_9)\n    /* \"#utility.yul\":88:205   */\ntag_11:\n    /* \"#utility.yul\":197:198   */\n  0x00\n    /* \"#utility.yul\":194:195   */\n  dup1\n    /* \"#utility.yul\":187:199   */\n  revert\n    /* \"#utility.yul\":334:460   */\ntag_13:\n    /* \"#utility.yul\":371:378   */\n  0x00\n    /* \"#utility.yul\":411:453   */\n  0xffffffffffffffffffffffffffffffffffffffff\n    /* \"#utility.yul\":404:409   */\n  dup3\n    /* \"#utility.yul\":400:454   */\n  and\n    /* \"#utility.yul\":389:454   */\n  swap1\n  pop\n    /* \"#utility.yul\":334:460   */\n  swap2\n  swap1\n  pop\n  jump\t// out\n    /* \"#utility.yul\":466:562   */\ntag_14:\n    /* \"#utility.yul\":503:510   */\n  0x00\n    /* \"#utility.yul\":532:556   */\n  tag_23\n    /* \"#utility.yul\":550:555   */\n  dup3\n    /* \"#utility.yul\":532:556   */\n  tag_13\n  jump\t// in\ntag_23:\n    /* \"#utility.yul\":521:556   */\n  swap1\n  pop\n    /* \"#utility.yul\":466:562   */\n  swap2\n  swap1\n  pop\n  jump\t// out\n    /* \"#utility.yul\":568:690   */\ntag_15:\n    /* \"#utility.yul\":641:665   */\n  tag_25\n    /* \"#utility.yul\":659:664   */\n  dup2\n    /* \"#utility.yul\":641:665   */\n  tag_14\n  jump\t// in\ntag_25:\n    /* \"#utility.yul\":634:639   */\n  dup2\n    /* \"#utility.yul\":631:666   */\n  eq\n    /* \"#utility.yul\":621:684   */\n  tag_26\n  jumpi\n    /* \"#utility.yul\":680:681   */\n  0x00\n    /* \"#utility.yul\":677:678   */\n  dup1\n    /* \"#utility.yul\":670:682   */\n  revert\n    /* \"#utility.yul\":621:684   */\ntag_26:\n    /* \"#utility.yul\":568:690   */\n  pop\n  jump\t// out\n    /* \"#utility.yul\":696:839   */\ntag_16:\n    /* \"#utility.yul\":753:758   */\n  0x00\n    /* \"#utility.yul\":784:790   */\n  dup2\n    /* \"#utility.yul\":778:791   */\n  mload\n    /* \"#utility.yul\":769:791   */\n  swap1\n  pop\n    /* \"#utility.yul\":800:833   */\n  tag_28\n    /* \"#utility.yul\":827:832   */\n  dup2\n    /* \"#utility.yul\":800:833   */\n  tag_15\n  jump\t// in\ntag_28:\n    /* \"#utility.yul\":696:839   */\n  swap3\n  swap2\n  pop\n  pop\n  jump\t// out\n    /* \"#utility.yul\":845:1352   */\ntag_3:\n    /* \"#utility.yul\":924:930   */\n  0x00\n    /* \"#utility.yul\":932:938   */\n  dup1\n    /* \"#utility.yul\":981:983   */\n  0x40\n    /* \"#utility.yul\":969:978   */\n  dup4\n    /* \"#utility.yul\":960:967   */\n  dup6\n    /* \"#utility.yul\":956:979   */\n  sub\n    /* \"#utility.yul\":952:984   */\n  slt\n    /* \"#utility.yul\":949:1068   */\n  iszero\n  tag_30\n  jumpi\n    /* \"#utility.yul\":987:1066   */\n  tag_31\n  tag_11\n  jump\t// in\ntag_31:\n    /* \"#utility.yul\":949:1068   */\ntag_30:\n    /* \"#utility.yul\":1107:1108   */\n  0x00\n    /* \"#utility.yul\":1132:1196   */\n  tag_32\n    /* \"#utility.yul\":1188:1195   */\n  dup6\n    /* \"#utility.yul\":1179:1185   */\n  dup3\n    /* \"#utility.yul\":1168:1177   */\n  dup7\n    /* \"#utility.yul\":1164:1186   */\n  add\n    /* \"#utility.yul\":1132:1196   */\n  tag_16\n  jump\t// in\ntag_32:\n    /* \"#utility.yul\":1122:1196   */\n  swap3\n  pop\n    /* \"#utility.yul\":1078:1206   */\n  pop\n    /* \"#utility.yul\":1245:1247   */\n  0x20\n    /* \"#utility.yul\":1271:1335   */\n  tag_33\n    /* \"#utility.yul\":1327:1334   */\n  dup6\n    /* \"#utility.yul\":1318:1324   */\n  dup3\n    /* \"#utility.yul\":1307:1316   */\n  dup7\n    /* \"#utility.yul\":1303:1325   */\n  add\n    /* \"#utility.yul\":1271:1335   */\n  tag_16\n  jump\t// in\ntag_33:\n    /* \"#utility.yul\":1261:1335   */\n  swap2\n  pop\n    /* \"#utility.yul\":1216:1345   */\n  pop\n    /* \"#utility.yul\":845:1352   */\n  swap3\n  pop\n  swap3\n  swap1\n  pop\n  jump\t// out\n    /* \"contracts/GreetingCard.sol\":296:3198  contract GreetingCard is AxelarExecutable {... */\ntag_9:\n  mload(0x80)\n  mload(0xa0)\n  codecopy(0x00, dataOffset(sub_0), dataSize(sub_0))\n  0x00\n  assignImmutable(\"0x4d7932e2b0f5046e3c64c89aef0c4a447299a3c81322f0d16fc00deba555d55e\")\n  0x00\n  assignImmutable(\"0x1a192fabce13988b84994d4296e6cdc418d55e2f1d7f942188d4040b94fc57ac\")\n  return(0x00, dataSize(sub_0))\nstop\n\nsub_0: assembly {\n        /* \"contracts/GreetingCard.sol\":296:3198  contract GreetingCard is AxelarExecutable {... */\n      mstore(0x40, 0x80)\n      jumpi(tag_1, lt(calldatasize, 0x04))\n      shr(0xe0, calldataload(0x00))\n      dup1\n      0x6a22d8cc\n      gt\n      tag_10\n      jumpi\n      dup1\n      0x6a22d8cc\n      eq\n      tag_6\n      jumpi\n      dup1\n      0x864e13e1\n      eq\n      tag_7\n      jumpi\n      dup1\n      0x96bdcd72\n      eq\n      tag_8\n      jumpi\n      dup1\n      0xb0651841\n      eq\n      tag_9\n      jumpi\n      jump(tag_1)\n    tag_10:\n      dup1\n      0x116191b6\n      eq\n      tag_2\n      jumpi\n      dup1\n      0x1a98b2e0\n      eq\n      tag_3\n      jumpi\n      dup1\n      0x49160658\n      eq\n      tag_4\n      jumpi\n      dup1\n      0x5311312f\n      eq\n      tag_5\n      jumpi\n    tag_1:\n      0x00\n      dup1\n      revert\n        /* \"@axelar-network/axelar-gmp-sdk-solidity/contracts/executable/AxelarExecutable.sol\":252:291  IAxelarGateway public immutable gateway */\n    tag_2:\n      callvalue\n      dup1\n      iszero\n      tag_11\n      jumpi\n      0x00\n      dup1\n      revert\n    tag_11:\n      pop\n      tag_12\n      tag_13\n      jump\t// in\n    tag_12:\n      mload(0x40)\n      tag_14\n      swap2\n      swap1\n      tag_15\n      jump\t// in\n    tag_14:\n      mload(0x40)\n      dup1\n      swap2\n      sub\n      swap1\n      return\n        /* \"@axelar-network/axelar-gmp-sdk-solidity/contracts/executable/AxelarExecutable.sol\":872:1539  function executeWithToken(... */\n    tag_3:\n      callvalue\n      dup1\n      iszero\n      tag_16\n      jumpi\n      0x00\n      dup1\n      revert\n    tag_16:\n      pop\n      tag_17\n      0x04\n      dup1\n      calldatasize\n      sub\n      dup2\n      add\n      swap1\n      tag_18\n      swap2\n      swap1\n      tag_19\n      jump\t// in\n    tag_18:\n      tag_20\n      jump\t// in\n    tag_17:\n      stop\n        /* \"@axelar-network/axelar-gmp-sdk-solidity/contracts/executable/AxelarExecutable.sol\":447:866  function execute(... */\n    tag_4:\n      callvalue\n      dup1\n      iszero\n      tag_21\n      jumpi\n      0x00\n      dup1\n      revert\n    tag_21:\n      pop\n      tag_22\n      0x04\n      dup1\n      calldatasize\n      sub\n      dup2\n      add\n      swap1\n      tag_23\n      swap2\n      swap1\n      tag_24\n      jump\t// in\n    tag_23:\n      tag_25\n      jump\t// in\n    tag_22:\n      stop\n        /* \"contracts/GreetingCard.sol\":400:440  mapping(address => string) public quotes */\n    tag_5:\n      callvalue\n      dup1\n      iszero\n      tag_26\n      jumpi\n      0x00\n      dup1\n      revert\n    tag_26:\n      pop\n      tag_27\n      0x04\n      dup1\n      calldatasize\n      sub\n      dup2\n      add\n      swap1\n      tag_28\n      swap2\n      swap1\n      tag_29\n      jump\t// in\n    tag_28:\n      tag_30\n      jump\t// in\n    tag_27:\n      mload(0x40)\n      tag_31\n      swap2\n      swap1\n      tag_32\n      jump\t// in\n    tag_31:\n      mload(0x40)\n      dup1\n      swap2\n      sub\n      swap1\n      return\n        /* \"contracts/GreetingCard.sol\":344:389  IAxelarGasService public immutable gasService */\n    tag_6:\n      callvalue\n      dup1\n      iszero\n      tag_33\n      jumpi\n      0x00\n      dup1\n      revert\n    tag_33:\n      pop\n      tag_34\n      tag_35\n      jump\t// in\n    tag_34:\n      mload(0x40)\n      tag_36\n      swap2\n      swap1\n      tag_37\n      jump\t// in\n    tag_36:\n      mload(0x40)\n      dup1\n      swap2\n      sub\n      swap1\n      return\n        /* \"contracts/GreetingCard.sol\":912:1029  function retrieveQuote(address _address) public view returns (string memory) {... */\n    tag_7:\n      callvalue\n      dup1\n      iszero\n      tag_38\n      jumpi\n      0x00\n      dup1\n      revert\n    tag_38:\n      pop\n      tag_39\n      0x04\n      dup1\n      calldatasize\n      sub\n      dup2\n      add\n      swap1\n      tag_40\n      swap2\n      swap1\n      tag_29\n      jump\t// in\n    tag_40:\n      tag_41\n      jump\t// in\n    tag_39:\n      mload(0x40)\n      tag_42\n      swap2\n      swap1\n      tag_32\n      jump\t// in\n    tag_42:\n      mload(0x40)\n      dup1\n      swap2\n      sub\n      swap1\n      return\n        /* \"contracts/GreetingCard.sol\":1039:2006  function sendCrossChainQuote(... */\n    tag_8:\n      tag_43\n      0x04\n      dup1\n      calldatasize\n      sub\n      dup2\n      add\n      swap1\n      tag_44\n      swap2\n      swap1\n      tag_45\n      jump\t// in\n    tag_44:\n      tag_46\n      jump\t// in\n    tag_43:\n      stop\n        /* \"contracts/GreetingCard.sol\":763:902  function storeQuote(string memory _quote) public {... */\n    tag_9:\n      callvalue\n      dup1\n      iszero\n      tag_47\n      jumpi\n      0x00\n      dup1\n      revert\n    tag_47:\n      pop\n      tag_48\n      0x04\n      dup1\n      calldatasize\n      sub\n      dup2\n      add\n      swap1\n      tag_49\n      swap2\n      swap1\n      tag_50\n      jump\t// in\n    tag_49:\n      tag_51\n      jump\t// in\n    tag_48:\n      stop\n        /* \"@axelar-network/axelar-gmp-sdk-solidity/contracts/executable/AxelarExecutable.sol\":252:291  IAxelarGateway public immutable gateway */\n    tag_13:\n      immutable(\"0x1a192fabce13988b84994d4296e6cdc418d55e2f1d7f942188d4040b94fc57ac\")\n      dup2\n      jump\t// out\n        /* \"@axelar-network/axelar-gmp-sdk-solidity/contracts/executable/AxelarExecutable.sol\":872:1539  function executeWithToken(... */\n    tag_20:\n        /* \"@axelar-network/axelar-gmp-sdk-solidity/contracts/executable/AxelarExecutable.sol\":1119:1138  bytes32 payloadHash */\n      0x00\n        /* \"@axelar-network/axelar-gmp-sdk-solidity/contracts/executable/AxelarExecutable.sol\":1151:1158  payload */\n      dup6\n      dup6\n        /* \"@axelar-network/axelar-gmp-sdk-solidity/contracts/executable/AxelarExecutable.sol\":1141:1159  keccak256(payload) */\n      mload(0x40)\n      tag_53\n      swap3\n      swap2\n      swap1\n      tag_54\n      jump\t// in\n    tag_53:\n      mload(0x40)\n      dup1\n      swap2\n      sub\n      swap1\n      keccak256\n        /* \"@axelar-network/axelar-gmp-sdk-solidity/contracts/executable/AxelarExecutable.sol\":1119:1159  bytes32 payloadHash = keccak256(payload) */\n      swap1\n      pop\n        /* \"@axelar-network/axelar-gmp-sdk-solidity/contracts/executable/AxelarExecutable.sol\":1188:1195  gateway */\n      immutable(\"0x1a192fabce13988b84994d4296e6cdc418d55e2f1d7f942188d4040b94fc57ac\")\n        /* \"@axelar-network/axelar-gmp-sdk-solidity/contracts/executable/AxelarExecutable.sol\":1188:1223  gateway.validateContractCallAndMint */\n      0xffffffffffffffffffffffffffffffffffffffff\n      and\n      0x1876eed9\n        /* \"@axelar-network/axelar-gmp-sdk-solidity/contracts/executable/AxelarExecutable.sol\":1241:1250  commandId */\n      dup13\n        /* \"@axelar-network/axelar-gmp-sdk-solidity/contracts/executable/AxelarExecutable.sol\":1268:1279  sourceChain */\n      dup13\n      dup13\n        /* \"@axelar-network/axelar-gmp-sdk-solidity/contracts/executable/AxelarExecutable.sol\":1297:1310  sourceAddress */\n      dup13\n      dup13\n        /* \"@axelar-network/axelar-gmp-sdk-solidity/contracts/executable/AxelarExecutable.sol\":1328:1339  payloadHash */\n      dup8\n        /* \"@axelar-network/axelar-gmp-sdk-solidity/contracts/executable/AxelarExecutable.sol\":1357:1368  tokenSymbol */\n      dup12\n      dup12\n        /* \"@axelar-network/axelar-gmp-sdk-solidity/contracts/executable/AxelarExecutable.sol\":1386:1392  amount */\n      dup12\n        /* \"@axelar-network/axelar-gmp-sdk-solidity/contracts/executable/AxelarExecutable.sol\":1188:1406  gateway.validateContractCallAndMint(... */\n      mload(0x40)\n      dup11\n      0xffffffff\n      and\n      0xe0\n      shl\n      dup2\n      mstore\n      0x04\n      add\n      tag_55\n      swap10\n      swap9\n      swap8\n      swap7\n      swap6\n      swap5\n      swap4\n      swap3\n      swap2\n      swap1\n      tag_56\n      jump\t// in\n    tag_55:\n      0x20\n      mload(0x40)\n      dup1\n      dup4\n      sub\n      dup2\n      0x00\n      dup8\n      gas\n      call\n      iszero\n      dup1\n      iszero\n      tag_58\n      jumpi\n      returndatasize\n      0x00\n      dup1\n      returndatacopy\n      revert(0x00, returndatasize)\n    tag_58:\n      pop\n      pop\n      pop\n      pop\n      mload(0x40)\n      returndatasize\n      not(0x1f)\n      0x1f\n      dup3\n      add\n      and\n      dup3\n      add\n      dup1\n      0x40\n      mstore\n      pop\n      dup2\n      add\n      swap1\n      tag_59\n      swap2\n      swap1\n      tag_60\n      jump\t// in\n    tag_59:\n        /* \"@axelar-network/axelar-gmp-sdk-solidity/contracts/executable/AxelarExecutable.sol\":1170:1446  if (... */\n      tag_61\n      jumpi\n        /* \"@axelar-network/axelar-gmp-sdk-solidity/contracts/executable/AxelarExecutable.sol\":1424:1446  NotApprovedByGateway() */\n      mload(0x40)\n      0x500c44b400000000000000000000000000000000000000000000000000000000\n      dup2\n      mstore\n      0x04\n      add\n      mload(0x40)\n      dup1\n      swap2\n      sub\n      swap1\n      revert\n        /* \"@axelar-network/axelar-gmp-sdk-solidity/contracts/executable/AxelarExecutable.sol\":1170:1446  if (... */\n    tag_61:\n        /* \"@axelar-network/axelar-gmp-sdk-solidity/contracts/executable/AxelarExecutable.sol\":1457:1532  _executeWithToken(sourceChain, sourceAddress, payload, tokenSymbol, amount) */\n      tag_62\n        /* \"@axelar-network/axelar-gmp-sdk-solidity/contracts/executable/AxelarExecutable.sol\":1475:1486  sourceChain */\n      dup11\n      dup11\n        /* \"@axelar-network/axelar-gmp-sdk-solidity/contracts/executable/AxelarExecutable.sol\":1488:1501  sourceAddress */\n      dup11\n      dup11\n        /* \"@axelar-network/axelar-gmp-sdk-solidity/contracts/executable/AxelarExecutable.sol\":1503:1510  payload */\n      dup11\n      dup11\n        /* \"@axelar-network/axelar-gmp-sdk-solidity/contracts/executable/AxelarExecutable.sol\":1512:1523  tokenSymbol */\n      dup11\n      dup11\n        /* \"@axelar-network/axelar-gmp-sdk-solidity/contracts/executable/AxelarExecutable.sol\":1525:1531  amount */\n      dup11\n        /* \"@axelar-network/axelar-gmp-sdk-solidity/contracts/executable/AxelarExecutable.sol\":1457:1474  _executeWithToken */\n      tag_63\n        /* \"@axelar-network/axelar-gmp-sdk-solidity/contracts/executable/AxelarExecutable.sol\":1457:1532  _executeWithToken(sourceChain, sourceAddress, payload, tokenSymbol, amount) */\n      jump\t// in\n    tag_62:\n        /* \"@axelar-network/axelar-gmp-sdk-solidity/contracts/executable/AxelarExecutable.sol\":1109:1539  {... */\n      pop\n        /* \"@axelar-network/axelar-gmp-sdk-solidity/contracts/executable/AxelarExecutable.sol\":872:1539  function executeWithToken(... */\n      pop\n      pop\n      pop\n      pop\n      pop\n      pop\n      pop\n      pop\n      pop\n      pop\n      jump\t// out\n        /* \"@axelar-network/axelar-gmp-sdk-solidity/contracts/executable/AxelarExecutable.sol\":447:866  function execute(... */\n    tag_25:\n        /* \"@axelar-network/axelar-gmp-sdk-solidity/contracts/executable/AxelarExecutable.sol\":624:643  bytes32 payloadHash */\n      0x00\n        /* \"@axelar-network/axelar-gmp-sdk-solidity/contracts/executable/AxelarExecutable.sol\":656:663  payload */\n      dup3\n      dup3\n        /* \"@axelar-network/axelar-gmp-sdk-solidity/contracts/executable/AxelarExecutable.sol\":646:664  keccak256(payload) */\n      mload(0x40)\n      tag_65\n      swap3\n      swap2\n      swap1\n      tag_54\n      jump\t// in\n    tag_65:\n      mload(0x40)\n      dup1\n      swap2\n      sub\n      swap1\n      keccak256\n        /* \"@axelar-network/axelar-gmp-sdk-solidity/contracts/executable/AxelarExecutable.sol\":624:664  bytes32 payloadHash = keccak256(payload) */\n      swap1\n      pop\n        /* \"@axelar-network/axelar-gmp-sdk-solidity/contracts/executable/AxelarExecutable.sol\":680:687  gateway */\n      immutable(\"0x1a192fabce13988b84994d4296e6cdc418d55e2f1d7f942188d4040b94fc57ac\")\n        /* \"@axelar-network/axelar-gmp-sdk-solidity/contracts/executable/AxelarExecutable.sol\":680:708  gateway.validateContractCall */\n      0xffffffffffffffffffffffffffffffffffffffff\n      and\n      0x5f6970c3\n        /* \"@axelar-network/axelar-gmp-sdk-solidity/contracts/executable/AxelarExecutable.sol\":709:718  commandId */\n      dup10\n        /* \"@axelar-network/axelar-gmp-sdk-solidity/contracts/executable/AxelarExecutable.sol\":720:731  sourceChain */\n      dup10\n      dup10\n        /* \"@axelar-network/axelar-gmp-sdk-solidity/contracts/executable/AxelarExecutable.sol\":733:746  sourceAddress */\n      dup10\n      dup10\n        /* \"@axelar-network/axelar-gmp-sdk-solidity/contracts/executable/AxelarExecutable.sol\":748:759  payloadHash */\n      dup8\n        /* \"@axelar-network/axelar-gmp-sdk-solidity/contracts/executable/AxelarExecutable.sol\":680:760  gateway.validateContractCall(commandId, sourceChain, sourceAddress, payloadHash) */\n      mload(0x40)\n      dup8\n      0xffffffff\n      and\n      0xe0\n      shl\n      dup2\n      mstore\n      0x04\n      add\n      tag_66\n      swap7\n      swap6\n      swap5\n      swap4\n      swap3\n      swap2\n      swap1\n      tag_67\n      jump\t// in\n    tag_66:\n      0x20\n      mload(0x40)\n      dup1\n      dup4\n      sub\n      dup2\n      0x00\n      dup8\n      gas\n      call\n      iszero\n      dup1\n      iszero\n      tag_69\n      jumpi\n      returndatasize\n      0x00\n      dup1\n      returndatacopy\n      revert(0x00, returndatasize)\n    tag_69:\n      pop\n      pop\n      pop\n      pop\n      mload(0x40)\n      returndatasize\n      not(0x1f)\n      0x1f\n      dup3\n      add\n      and\n      dup3\n      add\n      dup1\n      0x40\n      mstore\n      pop\n      dup2\n      add\n      swap1\n      tag_70\n      swap2\n      swap1\n      tag_60\n      jump\t// in\n    tag_70:\n        /* \"@axelar-network/axelar-gmp-sdk-solidity/contracts/executable/AxelarExecutable.sol\":675:803  if (!gateway.validateContractCall(commandId, sourceChain, sourceAddress, payloadHash))... */\n      tag_71\n      jumpi\n        /* \"@axelar-network/axelar-gmp-sdk-solidity/contracts/executable/AxelarExecutable.sol\":781:803  NotApprovedByGateway() */\n      mload(0x40)\n      0x500c44b400000000000000000000000000000000000000000000000000000000\n      dup2\n      mstore\n      0x04\n      add\n      mload(0x40)\n      dup1\n      swap2\n      sub\n      swap1\n      revert\n        /* \"@axelar-network/axelar-gmp-sdk-solidity/contracts/executable/AxelarExecutable.sol\":675:803  if (!gateway.validateContractCall(commandId, sourceChain, sourceAddress, payloadHash))... */\n    tag_71:\n        /* \"@axelar-network/axelar-gmp-sdk-solidity/contracts/executable/AxelarExecutable.sol\":814:859  _execute(sourceChain, sourceAddress, payload) */\n      tag_72\n        /* \"@axelar-network/axelar-gmp-sdk-solidity/contracts/executable/AxelarExecutable.sol\":823:834  sourceChain */\n      dup8\n      dup8\n        /* \"@axelar-network/axelar-gmp-sdk-solidity/contracts/executable/AxelarExecutable.sol\":836:849  sourceAddress */\n      dup8\n      dup8\n        /* \"@axelar-network/axelar-gmp-sdk-solidity/contracts/executable/AxelarExecutable.sol\":851:858  payload */\n      dup8\n      dup8\n        /* \"@axelar-network/axelar-gmp-sdk-solidity/contracts/executable/AxelarExecutable.sol\":814:822  _execute */\n      tag_73\n        /* \"@axelar-network/axelar-gmp-sdk-solidity/contracts/executable/AxelarExecutable.sol\":814:859  _execute(sourceChain, sourceAddress, payload) */\n      jump\t// in\n    tag_72:\n        /* \"@axelar-network/axelar-gmp-sdk-solidity/contracts/executable/AxelarExecutable.sol\":614:866  {... */\n      pop\n        /* \"@axelar-network/axelar-gmp-sdk-solidity/contracts/executable/AxelarExecutable.sol\":447:866  function execute(... */\n      pop\n      pop\n      pop\n      pop\n      pop\n      pop\n      pop\n      jump\t// out\n        /* \"contracts/GreetingCard.sol\":400:440  mapping(address => string) public quotes */\n    tag_30:\n      mstore(0x20, 0x00)\n      dup1\n      0x00\n      mstore\n      keccak256(0x00, 0x40)\n      0x00\n      swap2\n      pop\n      swap1\n      pop\n      dup1\n      sload\n      tag_74\n      swap1\n      tag_75\n      jump\t// in\n    tag_74:\n      dup1\n      0x1f\n      add\n      0x20\n      dup1\n      swap2\n      div\n      mul\n      0x20\n      add\n      mload(0x40)\n      swap1\n      dup2\n      add\n      0x40\n      mstore\n      dup1\n      swap3\n      swap2\n      swap1\n      dup2\n      dup2\n      mstore\n      0x20\n      add\n      dup3\n      dup1\n      sload\n      tag_76\n      swap1\n      tag_75\n      jump\t// in\n    tag_76:\n      dup1\n      iszero\n      tag_77\n      jumpi\n      dup1\n      0x1f\n      lt\n      tag_78\n      jumpi\n      0x0100\n      dup1\n      dup4\n      sload\n      div\n      mul\n      dup4\n      mstore\n      swap2\n      0x20\n      add\n      swap2\n      jump(tag_77)\n    tag_78:\n      dup3\n      add\n      swap2\n      swap1\n      0x00\n      mstore\n      keccak256(0x00, 0x20)\n      swap1\n    tag_79:\n      dup2\n      sload\n      dup2\n      mstore\n      swap1\n      0x01\n      add\n      swap1\n      0x20\n      add\n      dup1\n      dup4\n      gt\n      tag_79\n      jumpi\n      dup3\n      swap1\n      sub\n      0x1f\n      and\n      dup3\n      add\n      swap2\n    tag_77:\n      pop\n      pop\n      pop\n      pop\n      pop\n      dup2\n      jump\t// out\n        /* \"contracts/GreetingCard.sol\":344:389  IAxelarGasService public immutable gasService */\n    tag_35:\n      immutable(\"0x4d7932e2b0f5046e3c64c89aef0c4a447299a3c81322f0d16fc00deba555d55e\")\n      dup2\n      jump\t// out\n        /* \"contracts/GreetingCard.sol\":912:1029  function retrieveQuote(address _address) public view returns (string memory) {... */\n    tag_41:\n        /* \"contracts/GreetingCard.sol\":974:987  string memory */\n      0x60\n        /* \"contracts/GreetingCard.sol\":1006:1012  quotes */\n      0x00\n        /* \"contracts/GreetingCard.sol\":1006:1022  quotes[_address] */\n      dup1\n        /* \"contracts/GreetingCard.sol\":1013:1021  _address */\n      dup4\n        /* \"contracts/GreetingCard.sol\":1006:1022  quotes[_address] */\n      0xffffffffffffffffffffffffffffffffffffffff\n      and\n      0xffffffffffffffffffffffffffffffffffffffff\n      and\n      dup2\n      mstore\n      0x20\n      add\n      swap1\n      dup2\n      mstore\n      0x20\n      add\n      0x00\n      keccak256\n        /* \"contracts/GreetingCard.sol\":999:1022  return quotes[_address] */\n      dup1\n      sload\n      tag_81\n      swap1\n      tag_75\n      jump\t// in\n    tag_81:\n      dup1\n      0x1f\n      add\n      0x20\n      dup1\n      swap2\n      div\n      mul\n      0x20\n      add\n      mload(0x40)\n      swap1\n      dup2\n      add\n      0x40\n      mstore\n      dup1\n      swap3\n      swap2\n      swap1\n      dup2\n      dup2\n      mstore\n      0x20\n      add\n      dup3\n      dup1\n      sload\n      tag_82\n      swap1\n      tag_75\n      jump\t// in\n    tag_82:\n      dup1\n      iszero\n      tag_83\n      jumpi\n      dup1\n      0x1f\n      lt\n      tag_84\n      jumpi\n      0x0100\n      dup1\n      dup4\n      sload\n      div\n      mul\n      dup4\n      mstore\n      swap2\n      0x20\n      add\n      swap2\n      jump(tag_83)\n    tag_84:\n      dup3\n      add\n      swap2\n      swap1\n      0x00\n      mstore\n      keccak256(0x00, 0x20)\n      swap1\n    tag_85:\n      dup2\n      sload\n      dup2\n      mstore\n      swap1\n      0x01\n      add\n      swap1\n      0x20\n      add\n      dup1\n      dup4\n      gt\n      tag_85\n      jumpi\n      dup3\n      swap1\n      sub\n      0x1f\n      and\n      dup3\n      add\n      swap2\n    tag_83:\n      pop\n      pop\n      pop\n      pop\n      pop\n      swap1\n      pop\n        /* \"contracts/GreetingCard.sol\":912:1029  function retrieveQuote(address _address) public view returns (string memory) {... */\n      swap2\n      swap1\n      pop\n      jump\t// out\n        /* \"contracts/GreetingCard.sol\":1039:2006  function sendCrossChainQuote(... */\n    tag_46:\n        /* \"contracts/GreetingCard.sol\":1287:1305  storeQuote(_quote) */\n      tag_87\n        /* \"contracts/GreetingCard.sol\":1298:1304  _quote */\n      dup3\n        /* \"contracts/GreetingCard.sol\":1287:1297  storeQuote */\n      tag_51\n        /* \"contracts/GreetingCard.sol\":1287:1305  storeQuote(_quote) */\n      jump\t// in\n    tag_87:\n        /* \"contracts/GreetingCard.sol\":1355:1375  bytes memory payload */\n      0x00\n        /* \"contracts/GreetingCard.sol\":1389:1407  destinationAddress */\n      dup4\n        /* \"contracts/GreetingCard.sol\":1409:1415  _quote */\n      dup4\n        /* \"contracts/GreetingCard.sol\":1378:1416  abi.encode(destinationAddress, _quote) */\n      add(0x20, mload(0x40))\n      tag_88\n      swap3\n      swap2\n      swap1\n      tag_89\n      jump\t// in\n    tag_88:\n      mload(0x40)\n      0x20\n      dup2\n      dup4\n      sub\n      sub\n      dup2\n      mstore\n      swap1\n      0x40\n      mstore\n        /* \"contracts/GreetingCard.sol\":1355:1416  bytes memory payload = abi.encode(destinationAddress, _quote) */\n      swap1\n      pop\n        /* \"contracts/GreetingCard.sol\":1474:1475  0 */\n      0x00\n        /* \"contracts/GreetingCard.sol\":1462:1471  msg.value */\n      callvalue\n        /* \"contracts/GreetingCard.sol\":1462:1475  msg.value > 0 */\n      gt\n        /* \"contracts/GreetingCard.sol\":1458:1727  if (msg.value > 0) {... */\n      iszero\n      tag_90\n      jumpi\n        /* \"contracts/GreetingCard.sol\":1491:1501  gasService */\n      immutable(\"0x4d7932e2b0f5046e3c64c89aef0c4a447299a3c81322f0d16fc00deba555d55e\")\n        /* \"contracts/GreetingCard.sol\":1491:1529  gasService.payNativeGasForContractCall */\n      0xffffffffffffffffffffffffffffffffffffffff\n      and\n      0x0c93e3bb\n        /* \"contracts/GreetingCard.sol\":1537:1546  msg.value */\n      callvalue\n        /* \"contracts/GreetingCard.sol\":1573:1577  this */\n      address\n        /* \"contracts/GreetingCard.sol\":1596:1612  destinationChain */\n      dup9\n        /* \"contracts/GreetingCard.sol\":1630:1649  wardenRouterAddress */\n      dup7\n        /* \"contracts/GreetingCard.sol\":1667:1674  payload */\n      dup7\n        /* \"contracts/GreetingCard.sol\":1692:1702  msg.sender */\n      caller\n        /* \"contracts/GreetingCard.sol\":1491:1716  gasService.payNativeGasForContractCall{value: msg.value}(... */\n      mload(0x40)\n      dup8\n      0xffffffff\n      and\n      0xe0\n      shl\n      dup2\n      mstore\n      0x04\n      add\n      tag_91\n      swap6\n      swap5\n      swap4\n      swap3\n      swap2\n      swap1\n      tag_92\n      jump\t// in\n    tag_91:\n      0x00\n      mload(0x40)\n      dup1\n      dup4\n      sub\n      dup2\n      dup6\n      dup9\n      dup1\n      extcodesize\n      iszero\n      dup1\n      iszero\n      tag_93\n      jumpi\n      0x00\n      dup1\n      revert\n    tag_93:\n      pop\n      gas\n      call\n      iszero\n      dup1\n      iszero\n      tag_95\n      jumpi\n      returndatasize\n      0x00\n      dup1\n      returndatacopy\n      revert(0x00, returndatasize)\n    tag_95:\n      pop\n      pop\n      pop\n      pop\n      pop\n        /* \"contracts/GreetingCard.sol\":1458:1727  if (msg.value > 0) {... */\n    tag_90:\n        /* \"contracts/GreetingCard.sol\":1792:1799  gateway */\n      immutable(\"0x1a192fabce13988b84994d4296e6cdc418d55e2f1d7f942188d4040b94fc57ac\")\n        /* \"contracts/GreetingCard.sol\":1792:1812  gateway.callContract */\n      0xffffffffffffffffffffffffffffffffffffffff\n      and\n      0x1c92115f\n        /* \"contracts/GreetingCard.sol\":1826:1842  destinationChain */\n      dup7\n        /* \"contracts/GreetingCard.sol\":1856:1875  wardenRouterAddress */\n      dup5\n        /* \"contracts/GreetingCard.sol\":1889:1896  payload */\n      dup5\n        /* \"contracts/GreetingCard.sol\":1792:1906  gateway.callContract(... */\n      mload(0x40)\n      dup5\n      0xffffffff\n      and\n      0xe0\n      shl\n      dup2\n      mstore\n      0x04\n      add\n      tag_96\n      swap4\n      swap3\n      swap2\n      swap1\n      tag_97\n      jump\t// in\n    tag_96:\n      0x00\n      mload(0x40)\n      dup1\n      dup4\n      sub\n      dup2\n      0x00\n      dup8\n      dup1\n      extcodesize\n      iszero\n      dup1\n      iszero\n      tag_98\n      jumpi\n      0x00\n      dup1\n      revert\n    tag_98:\n      pop\n      gas\n      call\n      iszero\n      dup1\n      iszero\n      tag_100\n      jumpi\n      returndatasize\n      0x00\n      dup1\n      returndatacopy\n      revert(0x00, returndatasize)\n    tag_100:\n      pop\n      pop\n      pop\n      pop\n        /* \"contracts/GreetingCard.sol\":1950:1960  msg.sender */\n      caller\n        /* \"contracts/GreetingCard.sol\":1930:1999  CrossChainQuoteSent(msg.sender, destinationChain, destinationAddress) */\n      0xffffffffffffffffffffffffffffffffffffffff\n      and\n      0x477c4c283c001b4b523497e766a6ef514fd4bed3b825bd34d9ea8811062f277a\n        /* \"contracts/GreetingCard.sol\":1962:1978  destinationChain */\n      dup7\n        /* \"contracts/GreetingCard.sol\":1980:1998  destinationAddress */\n      dup7\n        /* \"contracts/GreetingCard.sol\":1930:1999  CrossChainQuoteSent(msg.sender, destinationChain, destinationAddress) */\n      mload(0x40)\n      tag_101\n      swap3\n      swap2\n      swap1\n      tag_89\n      jump\t// in\n    tag_101:\n      mload(0x40)\n      dup1\n      swap2\n      sub\n      swap1\n      log2\n        /* \"contracts/GreetingCard.sol\":1246:2006  {... */\n      pop\n        /* \"contracts/GreetingCard.sol\":1039:2006  function sendCrossChainQuote(... */\n      pop\n      pop\n      pop\n      pop\n      jump\t// out\n        /* \"contracts/GreetingCard.sol\":763:902  function storeQuote(string memory _quote) public {... */\n    tag_51:\n        /* \"contracts/GreetingCard.sol\":843:849  _quote */\n      dup1\n        /* \"contracts/GreetingCard.sol\":822:828  quotes */\n      0x00\n        /* \"contracts/GreetingCard.sol\":822:840  quotes[msg.sender] */\n      dup1\n        /* \"contracts/GreetingCard.sol\":829:839  msg.sender */\n      caller\n        /* \"contracts/GreetingCard.sol\":822:840  quotes[msg.sender] */\n      0xffffffffffffffffffffffffffffffffffffffff\n      and\n      0xffffffffffffffffffffffffffffffffffffffff\n      and\n      dup2\n      mstore\n      0x20\n      add\n      swap1\n      dup2\n      mstore\n      0x20\n      add\n      0x00\n      keccak256\n        /* \"contracts/GreetingCard.sol\":822:849  quotes[msg.sender] = _quote */\n      swap1\n      dup2\n      tag_103\n      swap2\n      swap1\n      tag_104\n      jump\t// in\n    tag_103:\n      pop\n        /* \"contracts/GreetingCard.sol\":876:886  msg.sender */\n      caller\n        /* \"contracts/GreetingCard.sol\":864:895  QuoteStored(msg.sender, _quote) */\n      0xffffffffffffffffffffffffffffffffffffffff\n      and\n      0xaf3172a58e0c209eeb3c0bb06c865dacbc3ea31a10840e4c8308627c855b8d70\n        /* \"contracts/GreetingCard.sol\":888:894  _quote */\n      dup3\n        /* \"contracts/GreetingCard.sol\":864:895  QuoteStored(msg.sender, _quote) */\n      mload(0x40)\n      tag_105\n      swap2\n      swap1\n      tag_32\n      jump\t// in\n    tag_105:\n      mload(0x40)\n      dup1\n      swap2\n      sub\n      swap1\n      log2\n        /* \"contracts/GreetingCard.sol\":763:902  function storeQuote(string memory _quote) public {... */\n      pop\n      jump\t// out\n        /* \"@axelar-network/axelar-gmp-sdk-solidity/contracts/executable/AxelarExecutable.sol\":1702:1923  function _executeWithToken(... */\n    tag_63:\n      pop\n      pop\n      pop\n      pop\n      pop\n      pop\n      pop\n      pop\n      pop\n      jump\t// out\n        /* \"contracts/GreetingCard.sol\":2012:2514  function _execute(... */\n    tag_73:\n        /* \"contracts/GreetingCard.sol\":2203:2226  string memory recipient */\n      0x00\n        /* \"contracts/GreetingCard.sol\":2228:2247  string memory quote */\n      dup1\n        /* \"contracts/GreetingCard.sol\":2262:2269  payload */\n      dup4\n      dup4\n        /* \"contracts/GreetingCard.sol\":2251:2288  abi.decode(payload, (string, string)) */\n      dup2\n      add\n      swap1\n      tag_108\n      swap2\n      swap1\n      tag_109\n      jump\t// in\n    tag_108:\n        /* \"contracts/GreetingCard.sol\":2202:2288  (string memory recipient, string memory quote) = abi.decode(payload, (string, string)) */\n      swap2\n      pop\n      swap2\n      pop\n        /* \"contracts/GreetingCard.sol\":2357:2381  address recipientAddress */\n      0x00\n        /* \"contracts/GreetingCard.sol\":2384:2411  _stringToAddress(recipient) */\n      tag_110\n        /* \"contracts/GreetingCard.sol\":2401:2410  recipient */\n      dup4\n        /* \"contracts/GreetingCard.sol\":2384:2400  _stringToAddress */\n      tag_111\n        /* \"contracts/GreetingCard.sol\":2384:2411  _stringToAddress(recipient) */\n      jump\t// in\n    tag_110:\n        /* \"contracts/GreetingCard.sol\":2357:2411  address recipientAddress = _stringToAddress(recipient) */\n      swap1\n      pop\n        /* \"contracts/GreetingCard.sol\":2502:2507  quote */\n      dup2\n        /* \"contracts/GreetingCard.sol\":2475:2481  quotes */\n      0x00\n        /* \"contracts/GreetingCard.sol\":2475:2499  quotes[recipientAddress] */\n      dup1\n        /* \"contracts/GreetingCard.sol\":2482:2498  recipientAddress */\n      dup4\n        /* \"contracts/GreetingCard.sol\":2475:2499  quotes[recipientAddress] */\n      0xffffffffffffffffffffffffffffffffffffffff\n      and\n      0xffffffffffffffffffffffffffffffffffffffff\n      and\n      dup2\n      mstore\n      0x20\n      add\n      swap1\n      dup2\n      mstore\n      0x20\n      add\n      0x00\n      keccak256\n        /* \"contracts/GreetingCard.sol\":2475:2507  quotes[recipientAddress] = quote */\n      swap1\n      dup2\n      tag_112\n      swap2\n      swap1\n      tag_104\n      jump\t// in\n    tag_112:\n      pop\n        /* \"contracts/GreetingCard.sol\":2162:2514  {... */\n      pop\n      pop\n      pop\n        /* \"contracts/GreetingCard.sol\":2012:2514  function _execute(... */\n      pop\n      pop\n      pop\n      pop\n      pop\n      pop\n      jump\t// out\n        /* \"contracts/GreetingCard.sol\":2576:3196  function _stringToAddress(string memory _address) internal pure returns (address) {... */\n    tag_111:\n        /* \"contracts/GreetingCard.sol\":2649:2656  address */\n      0x00\n        /* \"contracts/GreetingCard.sol\":2668:2685  bytes memory temp */\n      dup1\n        /* \"contracts/GreetingCard.sol\":2694:2702  _address */\n      dup3\n        /* \"contracts/GreetingCard.sol\":2668:2703  bytes memory temp = bytes(_address) */\n      swap1\n      pop\n        /* \"contracts/GreetingCard.sol\":2713:2727  uint160 result */\n      0x00\n        /* \"contracts/GreetingCard.sol\":2755:2761  uint i */\n      dup1\n        /* \"contracts/GreetingCard.sol\":2764:2765  2 */\n      0x02\n        /* \"contracts/GreetingCard.sol\":2755:2765  uint i = 2 */\n      swap1\n      pop\n        /* \"contracts/GreetingCard.sol\":2750:3149  for (uint i = 2; i < 42; i++) { // Skip '0x' prefix... */\n    tag_114:\n        /* \"contracts/GreetingCard.sol\":2771:2773  42 */\n      0x2a\n        /* \"contracts/GreetingCard.sol\":2767:2768  i */\n      dup2\n        /* \"contracts/GreetingCard.sol\":2767:2773  i < 42 */\n      lt\n        /* \"contracts/GreetingCard.sol\":2750:3149  for (uint i = 2; i < 42; i++) { // Skip '0x' prefix... */\n      iszero\n      tag_115\n      jumpi\n        /* \"contracts/GreetingCard.sol\":2814:2823  uint8 val */\n      0x00\n        /* \"contracts/GreetingCard.sol\":2832:2836  temp */\n      dup4\n        /* \"contracts/GreetingCard.sol\":2837:2838  i */\n      dup3\n        /* \"contracts/GreetingCard.sol\":2832:2839  temp[i] */\n      dup2\n      mload\n      dup2\n      lt\n      tag_117\n      jumpi\n      tag_118\n      tag_119\n      jump\t// in\n    tag_118:\n    tag_117:\n      0x20\n      add\n      add\n      mload\n      0xf8\n      shr\n      0xf8\n      shl\n        /* \"contracts/GreetingCard.sol\":2826:2840  uint8(temp[i]) */\n      0xf8\n      shr\n        /* \"contracts/GreetingCard.sol\":2814:2840  uint8 val = uint8(temp[i]) */\n      swap1\n      pop\n        /* \"contracts/GreetingCard.sol\":2865:2867  48 */\n      0x30\n        /* \"contracts/GreetingCard.sol\":2858:2861  val */\n      dup2\n        /* \"contracts/GreetingCard.sol\":2858:2867  val >= 48 */\n      0xff\n      and\n      lt\n      iszero\n        /* \"contracts/GreetingCard.sol\":2858:2880  val >= 48 && val <= 57 */\n      dup1\n      iszero\n      tag_120\n      jumpi\n      pop\n        /* \"contracts/GreetingCard.sol\":2878:2880  57 */\n      0x39\n        /* \"contracts/GreetingCard.sol\":2871:2874  val */\n      dup2\n        /* \"contracts/GreetingCard.sol\":2871:2880  val <= 57 */\n      0xff\n      and\n      gt\n      iszero\n        /* \"contracts/GreetingCard.sol\":2858:2880  val >= 48 && val <= 57 */\n    tag_120:\n        /* \"contracts/GreetingCard.sol\":2854:3077  if (val >= 48 && val <= 57) {... */\n      iszero\n      tag_121\n      jumpi\n        /* \"contracts/GreetingCard.sol\":2907:2909  48 */\n      0x30\n        /* \"contracts/GreetingCard.sol\":2900:2909  val -= 48 */\n      dup2\n      tag_122\n      swap2\n      swap1\n      tag_123\n      jump\t// in\n    tag_122:\n      swap1\n      pop\n        /* \"contracts/GreetingCard.sol\":2854:3077  if (val >= 48 && val <= 57) {... */\n      jump(tag_124)\n    tag_121:\n        /* \"contracts/GreetingCard.sol\":2941:2943  65 */\n      0x41\n        /* \"contracts/GreetingCard.sol\":2934:2937  val */\n      dup2\n        /* \"contracts/GreetingCard.sol\":2934:2943  val >= 65 */\n      0xff\n      and\n      lt\n      iszero\n        /* \"contracts/GreetingCard.sol\":2934:2956  val >= 65 && val <= 70 */\n      dup1\n      iszero\n      tag_125\n      jumpi\n      pop\n        /* \"contracts/GreetingCard.sol\":2954:2956  70 */\n      0x46\n        /* \"contracts/GreetingCard.sol\":2947:2950  val */\n      dup2\n        /* \"contracts/GreetingCard.sol\":2947:2956  val <= 70 */\n      0xff\n      and\n      gt\n      iszero\n        /* \"contracts/GreetingCard.sol\":2934:2956  val >= 65 && val <= 70 */\n    tag_125:\n        /* \"contracts/GreetingCard.sol\":2930:3077  if (val >= 65 && val <= 70) {... */\n      iszero\n      tag_126\n      jumpi\n        /* \"contracts/GreetingCard.sol\":2983:2985  55 */\n      0x37\n        /* \"contracts/GreetingCard.sol\":2976:2985  val -= 55 */\n      dup2\n      tag_127\n      swap2\n      swap1\n      tag_123\n      jump\t// in\n    tag_127:\n      swap1\n      pop\n        /* \"contracts/GreetingCard.sol\":2930:3077  if (val >= 65 && val <= 70) {... */\n      jump(tag_128)\n    tag_126:\n        /* \"contracts/GreetingCard.sol\":3017:3019  97 */\n      0x61\n        /* \"contracts/GreetingCard.sol\":3010:3013  val */\n      dup2\n        /* \"contracts/GreetingCard.sol\":3010:3019  val >= 97 */\n      0xff\n      and\n      lt\n      iszero\n        /* \"contracts/GreetingCard.sol\":3010:3033  val >= 97 && val <= 102 */\n      dup1\n      iszero\n      tag_129\n      jumpi\n      pop\n        /* \"contracts/GreetingCard.sol\":3030:3033  102 */\n      0x66\n        /* \"contracts/GreetingCard.sol\":3023:3026  val */\n      dup2\n        /* \"contracts/GreetingCard.sol\":3023:3033  val <= 102 */\n      0xff\n      and\n      gt\n      iszero\n        /* \"contracts/GreetingCard.sol\":3010:3033  val >= 97 && val <= 102 */\n    tag_129:\n        /* \"contracts/GreetingCard.sol\":3006:3077  if (val >= 97 && val <= 102) {... */\n      iszero\n      tag_130\n      jumpi\n        /* \"contracts/GreetingCard.sol\":3060:3062  87 */\n      0x57\n        /* \"contracts/GreetingCard.sol\":3053:3062  val -= 87 */\n      dup2\n      tag_131\n      swap2\n      swap1\n      tag_123\n      jump\t// in\n    tag_131:\n      swap1\n      pop\n        /* \"contracts/GreetingCard.sol\":3006:3077  if (val >= 97 && val <= 102) {... */\n    tag_130:\n        /* \"contracts/GreetingCard.sol\":2930:3077  if (val >= 65 && val <= 70) {... */\n    tag_128:\n        /* \"contracts/GreetingCard.sol\":2854:3077  if (val >= 48 && val <= 57) {... */\n    tag_124:\n        /* \"contracts/GreetingCard.sol\":3134:3137  val */\n      dup1\n        /* \"contracts/GreetingCard.sol\":3126:3138  uint160(val) */\n      0xff\n      and\n        /* \"contracts/GreetingCard.sol\":3121:3123  16 */\n      0x10\n        /* \"contracts/GreetingCard.sol\":3112:3118  result */\n      dup5\n        /* \"contracts/GreetingCard.sol\":3112:3123  result * 16 */\n      tag_132\n      swap2\n      swap1\n      tag_133\n      jump\t// in\n    tag_132:\n        /* \"contracts/GreetingCard.sol\":3112:3138  result * 16 + uint160(val) */\n      tag_134\n      swap2\n      swap1\n      tag_135\n      jump\t// in\n    tag_134:\n        /* \"contracts/GreetingCard.sol\":3103:3138  result = result * 16 + uint160(val) */\n      swap3\n      pop\n        /* \"contracts/GreetingCard.sol\":2780:3149  { // Skip '0x' prefix... */\n      pop\n        /* \"contracts/GreetingCard.sol\":2775:2778  i++ */\n      dup1\n      dup1\n      0x01\n      add\n      swap2\n      pop\n      pop\n        /* \"contracts/GreetingCard.sol\":2750:3149  for (uint i = 2; i < 42; i++) { // Skip '0x' prefix... */\n      jump(tag_114)\n    tag_115:\n      pop\n        /* \"contracts/GreetingCard.sol\":3182:3188  result */\n      dup1\n        /* \"contracts/GreetingCard.sol\":3167:3189  return address(result) */\n      swap3\n      pop\n      pop\n      pop\n        /* \"contracts/GreetingCard.sol\":2576:3196  function _stringToAddress(string memory _address) internal pure returns (address) {... */\n      swap2\n      swap1\n      pop\n      jump\t// out\n        /* \"#utility.yul\":7:133   */\n    tag_136:\n        /* \"#utility.yul\":44:51   */\n      0x00\n        /* \"#utility.yul\":84:126   */\n      0xffffffffffffffffffffffffffffffffffffffff\n        /* \"#utility.yul\":77:82   */\n      dup3\n        /* \"#utility.yul\":73:127   */\n      and\n        /* \"#utility.yul\":62:127   */\n      swap1\n      pop\n        /* \"#utility.yul\":7:133   */\n      swap2\n      swap1\n      pop\n      jump\t// out\n        /* \"#utility.yul\":139:199   */\n    tag_137:\n        /* \"#utility.yul\":167:170   */\n      0x00\n        /* \"#utility.yul\":188:193   */\n      dup2\n        /* \"#utility.yul\":181:193   */\n      swap1\n      pop\n        /* \"#utility.yul\":139:199   */\n      swap2\n      swap1\n      pop\n      jump\t// out\n        /* \"#utility.yul\":205:347   */\n    tag_138:\n        /* \"#utility.yul\":255:264   */\n      0x00\n        /* \"#utility.yul\":288:341   */\n      tag_207\n        /* \"#utility.yul\":306:340   */\n      tag_208\n        /* \"#utility.yul\":315:339   */\n      tag_209\n        /* \"#utility.yul\":333:338   */\n      dup5\n        /* \"#utility.yul\":315:339   */\n      tag_136\n      jump\t// in\n    tag_209:\n        /* \"#utility.yul\":306:340   */\n      tag_137\n      jump\t// in\n    tag_208:\n        /* \"#utility.yul\":288:341   */\n      tag_136\n      jump\t// in\n    tag_207:\n        /* \"#utility.yul\":275:341   */\n      swap1\n      pop\n        /* \"#utility.yul\":205:347   */\n      swap2\n      swap1\n      pop\n      jump\t// out\n        /* \"#utility.yul\":353:479   */\n    tag_139:\n        /* \"#utility.yul\":403:412   */\n      0x00\n        /* \"#utility.yul\":436:473   */\n      tag_211\n        /* \"#utility.yul\":467:472   */\n      dup3\n        /* \"#utility.yul\":436:473   */\n      tag_138\n      jump\t// in\n    tag_211:\n        /* \"#utility.yul\":423:473   */\n      swap1\n      pop\n        /* \"#utility.yul\":353:479   */\n      swap2\n      swap1\n      pop\n      jump\t// out\n        /* \"#utility.yul\":485:633   */\n    tag_140:\n        /* \"#utility.yul\":557:566   */\n      0x00\n        /* \"#utility.yul\":590:627   */\n      tag_213\n        /* \"#utility.yul\":621:626   */\n      dup3\n        /* \"#utility.yul\":590:627   */\n      tag_139\n      jump\t// in\n    tag_213:\n        /* \"#utility.yul\":577:627   */\n      swap1\n      pop\n        /* \"#utility.yul\":485:633   */\n      swap2\n      swap1\n      pop\n      jump\t// out\n        /* \"#utility.yul\":639:814   */\n    tag_141:\n        /* \"#utility.yul\":748:807   */\n      tag_215\n        /* \"#utility.yul\":801:806   */\n      dup2\n        /* \"#utility.yul\":748:807   */\n      tag_140\n      jump\t// in\n    tag_215:\n        /* \"#utility.yul\":743:746   */\n      dup3\n        /* \"#utility.yul\":736:808   */\n      mstore\n        /* \"#utility.yul\":639:814   */\n      pop\n      pop\n      jump\t// out\n        /* \"#utility.yul\":820:1086   */\n    tag_15:\n        /* \"#utility.yul\":935:939   */\n      0x00\n        /* \"#utility.yul\":973:975   */\n      0x20\n        /* \"#utility.yul\":962:971   */\n      dup3\n        /* \"#utility.yul\":958:976   */\n      add\n        /* \"#utility.yul\":950:976   */\n      swap1\n      pop\n        /* \"#utility.yul\":986:1079   */\n      tag_217\n        /* \"#utility.yul\":1076:1077   */\n      0x00\n        /* \"#utility.yul\":1065:1074   */\n      dup4\n        /* \"#utility.yul\":1061:1078   */\n      add\n        /* \"#utility.yul\":1052:1058   */\n      dup5\n        /* \"#utility.yul\":986:1079   */\n      tag_141\n      jump\t// in\n    tag_217:\n        /* \"#utility.yul\":820:1086   */\n      swap3\n      swap2\n      pop\n      pop\n      jump\t// out\n        /* \"#utility.yul\":1092:1167   */\n    tag_142:\n        /* \"#utility.yul\":1125:1131   */\n      0x00\n        /* \"#utility.yul\":1158:1160   */\n      0x40\n        /* \"#utility.yul\":1152:1161   */\n      mload\n        /* \"#utility.yul\":1142:1161   */\n      swap1\n      pop\n        /* \"#utility.yul\":1092:1167   */\n      swap1\n      jump\t// out\n        /* \"#utility.yul\":1173:1290   */\n    tag_143:\n        /* \"#utility.yul\":1282:1283   */\n      0x00\n        /* \"#utility.yul\":1279:1280   */\n      dup1\n        /* \"#utility.yul\":1272:1284   */\n      revert\n        /* \"#utility.yul\":1296:1413   */\n    tag_144:\n        /* \"#utility.yul\":1405:1406   */\n      0x00\n        /* \"#utility.yul\":1402:1403   */\n      dup1\n        /* \"#utility.yul\":1395:1407   */\n      revert\n        /* \"#utility.yul\":1419:1496   */\n    tag_145:\n        /* \"#utility.yul\":1456:1463   */\n      0x00\n        /* \"#utility.yul\":1485:1490   */\n      dup2\n        /* \"#utility.yul\":1474:1490   */\n      swap1\n      pop\n        /* \"#utility.yul\":1419:1496   */\n      swap2\n      swap1\n      pop\n      jump\t// out\n        /* \"#utility.yul\":1502:1624   */\n    tag_146:\n        /* \"#utility.yul\":1575:1599   */\n      tag_223\n        /* \"#utility.yul\":1593:1598   */\n      dup2\n        /* \"#utility.yul\":1575:1599   */\n      tag_145\n      jump\t// in\n    tag_223:\n        /* \"#utility.yul\":1568:1573   */\n      dup2\n        /* \"#utility.yul\":1565:1600   */\n      eq\n        /* \"#utility.yul\":1555:1618   */\n      tag_224\n      jumpi\n        /* \"#utility.yul\":1614:1615   */\n      0x00\n        /* \"#utility.yul\":1611:1612   */\n      dup1\n        /* \"#utility.yul\":1604:1616   */\n      revert\n        /* \"#utility.yul\":1555:1618   */\n    tag_224:\n        /* \"#utility.yul\":1502:1624   */\n      pop\n      jump\t// out\n        /* \"#utility.yul\":1630:1769   */\n    tag_147:\n        /* \"#utility.yul\":1676:1681   */\n      0x00\n        /* \"#utility.yul\":1714:1720   */\n      dup2\n        /* \"#utility.yul\":1701:1721   */\n      calldataload\n        /* \"#utility.yul\":1692:1721   */\n      swap1\n      pop\n        /* \"#utility.yul\":1730:1763   */\n      tag_226\n        /* \"#utility.yul\":1757:1762   */\n      dup2\n        /* \"#utility.yul\":1730:1763   */\n      tag_146\n      jump\t// in\n    tag_226:\n        /* \"#utility.yul\":1630:1769   */\n      swap3\n      swap2\n      pop\n      pop\n      jump\t// out\n        /* \"#utility.yul\":1775:1892   */\n    tag_148:\n        /* \"#utility.yul\":1884:1885   */\n      0x00\n        /* \"#utility.yul\":1881:1882   */\n      dup1\n        /* \"#utility.yul\":1874:1886   */\n      revert\n        /* \"#utility.yul\":1898:2015   */\n    tag_149:\n        /* \"#utility.yul\":2007:2008   */\n      0x00\n        /* \"#utility.yul\":2004:2005   */\n      dup1\n        /* \"#utility.yul\":1997:2009   */\n      revert\n        /* \"#utility.yul\":2021:2138   */\n    tag_150:\n        /* \"#utility.yul\":2130:2131   */\n      0x00\n        /* \"#utility.yul\":2127:2128   */\n      dup1\n        /* \"#utility.yul\":2120:2132   */\n      revert\n        /* \"#utility.yul\":2158:2711   */\n    tag_151:\n        /* \"#utility.yul\":2216:2224   */\n      0x00\n        /* \"#utility.yul\":2226:2232   */\n      dup1\n        /* \"#utility.yul\":2276:2279   */\n      dup4\n        /* \"#utility.yul\":2269:2273   */\n      0x1f\n        /* \"#utility.yul\":2261:2267   */\n      dup5\n        /* \"#utility.yul\":2257:2274   */\n      add\n        /* \"#utility.yul\":2253:2280   */\n      slt\n        /* \"#utility.yul\":2243:2365   */\n      tag_231\n      jumpi\n        /* \"#utility.yul\":2284:2363   */\n      tag_232\n      tag_148\n      jump\t// in\n    tag_232:\n        /* \"#utility.yul\":2243:2365   */\n    tag_231:\n        /* \"#utility.yul\":2397:2403   */\n      dup3\n        /* \"#utility.yul\":2384:2404   */\n      calldataload\n        /* \"#utility.yul\":2374:2404   */\n      swap1\n      pop\n        /* \"#utility.yul\":2427:2445   */\n      0xffffffffffffffff\n        /* \"#utility.yul\":2419:2425   */\n      dup2\n        /* \"#utility.yul\":2416:2446   */\n      gt\n        /* \"#utility.yul\":2413:2530   */\n      iszero\n      tag_233\n      jumpi\n        /* \"#utility.yul\":2449:2528   */\n      tag_234\n      tag_149\n      jump\t// in\n    tag_234:\n        /* \"#utility.yul\":2413:2530   */\n    tag_233:\n        /* \"#utility.yul\":2563:2567   */\n      0x20\n        /* \"#utility.yul\":2555:2561   */\n      dup4\n        /* \"#utility.yul\":2551:2568   */\n      add\n        /* \"#utility.yul\":2539:2568   */\n      swap2\n      pop\n        /* \"#utility.yul\":2617:2620   */\n      dup4\n        /* \"#utility.yul\":2609:2613   */\n      0x01\n        /* \"#utility.yul\":2601:2607   */\n      dup3\n        /* \"#utility.yul\":2597:2614   */\n      mul\n        /* \"#utility.yul\":2587:2595   */\n      dup4\n        /* \"#utility.yul\":2583:2615   */\n      add\n        /* \"#utility.yul\":2580:2621   */\n      gt\n        /* \"#utility.yul\":2577:2705   */\n      iszero\n      tag_235\n      jumpi\n        /* \"#utility.yul\":2624:2703   */\n      tag_236\n      tag_150\n      jump\t// in\n    tag_236:\n        /* \"#utility.yul\":2577:2705   */\n    tag_235:\n        /* \"#utility.yul\":2158:2711   */\n      swap3\n      pop\n      swap3\n      swap1\n      pop\n      jump\t// out\n        /* \"#utility.yul\":2730:3282   */\n    tag_152:\n        /* \"#utility.yul\":2787:2795   */\n      0x00\n        /* \"#utility.yul\":2797:2803   */\n      dup1\n        /* \"#utility.yul\":2847:2850   */\n      dup4\n        /* \"#utility.yul\":2840:2844   */\n      0x1f\n        /* \"#utility.yul\":2832:2838   */\n      dup5\n        /* \"#utility.yul\":2828:2845   */\n      add\n        /* \"#utility.yul\":2824:2851   */\n      slt\n        /* \"#utility.yul\":2814:2936   */\n      tag_238\n      jumpi\n        /* \"#utility.yul\":2855:2934   */\n      tag_239\n      tag_148\n      jump\t// in\n    tag_239:\n        /* \"#utility.yul\":2814:2936   */\n    tag_238:\n        /* \"#utility.yul\":2968:2974   */\n      dup3\n        /* \"#utility.yul\":2955:2975   */\n      calldataload\n        /* \"#utility.yul\":2945:2975   */\n      swap1\n      pop\n        /* \"#utility.yul\":2998:3016   */\n      0xffffffffffffffff\n        /* \"#utility.yul\":2990:2996   */\n      dup2\n        /* \"#utility.yul\":2987:3017   */\n      gt\n        /* \"#utility.yul\":2984:3101   */\n      iszero\n      tag_240\n      jumpi\n        /* \"#utility.yul\":3020:3099   */\n      tag_241\n      tag_149\n      jump\t// in\n    tag_241:\n        /* \"#utility.yul\":2984:3101   */\n    tag_240:\n        /* \"#utility.yul\":3134:3138   */\n      0x20\n        /* \"#utility.yul\":3126:3132   */\n      dup4\n        /* \"#utility.yul\":3122:3139   */\n      add\n        /* \"#utility.yul\":3110:3139   */\n      swap2\n      pop\n        /* \"#utility.yul\":3188:3191   */\n      dup4\n        /* \"#utility.yul\":3180:3184   */\n      0x01\n        /* \"#utility.yul\":3172:3178   */\n      dup3\n        /* \"#utility.yul\":3168:3185   */\n      mul\n        /* \"#utility.yul\":3158:3166   */\n      dup4\n        /* \"#utility.yul\":3154:3186   */\n      add\n        /* \"#utility.yul\":3151:3192   */\n      gt\n        /* \"#utility.yul\":3148:3276   */\n      iszero\n      tag_242\n      jumpi\n        /* \"#utility.yul\":3195:3274   */\n      tag_243\n      tag_150\n      jump\t// in\n    tag_243:\n        /* \"#utility.yul\":3148:3276   */\n    tag_242:\n        /* \"#utility.yul\":2730:3282   */\n      swap3\n      pop\n      swap3\n      swap1\n      pop\n      jump\t// out\n        /* \"#utility.yul\":3288:3365   */\n    tag_153:\n        /* \"#utility.yul\":3325:3332   */\n      0x00\n        /* \"#utility.yul\":3354:3359   */\n      dup2\n        /* \"#utility.yul\":3343:3359   */\n      swap1\n      pop\n        /* \"#utility.yul\":3288:3365   */\n      swap2\n      swap1\n      pop\n      jump\t// out\n        /* \"#utility.yul\":3371:3493   */\n    tag_154:\n        /* \"#utility.yul\":3444:3468   */\n      tag_246\n        /* \"#utility.yul\":3462:3467   */\n      dup2\n        /* \"#utility.yul\":3444:3468   */\n      tag_153\n      jump\t// in\n    tag_246:\n        /* \"#utility.yul\":3437:3442   */\n      dup2\n        /* \"#utility.yul\":3434:3469   */\n      eq\n        /* \"#utility.yul\":3424:3487   */\n      tag_247\n      jumpi\n        /* \"#utility.yul\":3483:3484   */\n      0x00\n        /* \"#utility.yul\":3480:3481   */\n      dup1\n        /* \"#utility.yul\":3473:3485   */\n      revert\n        /* \"#utility.yul\":3424:3487   */\n    tag_247:\n        /* \"#utility.yul\":3371:3493   */\n      pop\n      jump\t// out\n        /* \"#utility.yul\":3499:3638   */\n    tag_155:\n        /* \"#utility.yul\":3545:3550   */\n      0x00\n        /* \"#utility.yul\":3583:3589   */\n      dup2\n        /* \"#utility.yul\":3570:3590   */\n      calldataload\n        /* \"#utility.yul\":3561:3590   */\n      swap1\n      pop\n        /* \"#utility.yul\":3599:3632   */\n      tag_249\n        /* \"#utility.yul\":3626:3631   */\n      dup2\n        /* \"#utility.yul\":3599:3632   */\n      tag_154\n      jump\t// in\n    tag_249:\n        /* \"#utility.yul\":3499:3638   */\n      swap3\n      swap2\n      pop\n      pop\n      jump\t// out\n        /* \"#utility.yul\":3644:5499   */\n    tag_19:\n        /* \"#utility.yul\":3795:3801   */\n      0x00\n        /* \"#utility.yul\":3803:3809   */\n      dup1\n        /* \"#utility.yul\":3811:3817   */\n      0x00\n        /* \"#utility.yul\":3819:3825   */\n      dup1\n        /* \"#utility.yul\":3827:3833   */\n      0x00\n        /* \"#utility.yul\":3835:3841   */\n      dup1\n        /* \"#utility.yul\":3843:3849   */\n      0x00\n        /* \"#utility.yul\":3851:3857   */\n      dup1\n        /* \"#utility.yul\":3859:3865   */\n      0x00\n        /* \"#utility.yul\":3867:3873   */\n      dup1\n        /* \"#utility.yul\":3916:3919   */\n      0xc0\n        /* \"#utility.yul\":3904:3913   */\n      dup12\n        /* \"#utility.yul\":3895:3902   */\n      dup14\n        /* \"#utility.yul\":3891:3914   */\n      sub\n        /* \"#utility.yul\":3887:3920   */\n      slt\n        /* \"#utility.yul\":3884:4004   */\n      iszero\n      tag_251\n      jumpi\n        /* \"#utility.yul\":3923:4002   */\n      tag_252\n      tag_143\n      jump\t// in\n    tag_252:\n        /* \"#utility.yul\":3884:4004   */\n    tag_251:\n        /* \"#utility.yul\":4043:4044   */\n      0x00\n        /* \"#utility.yul\":4068:4121   */\n      tag_253\n        /* \"#utility.yul\":4113:4120   */\n      dup14\n        /* \"#utility.yul\":4104:4110   */\n      dup3\n        /* \"#utility.yul\":4093:4102   */\n      dup15\n        /* \"#utility.yul\":4089:4111   */\n      add\n        /* \"#utility.yul\":4068:4121   */\n      tag_147\n      jump\t// in\n    tag_253:\n        /* \"#utility.yul\":4058:4121   */\n      swap11\n      pop\n        /* \"#utility.yul\":4014:4131   */\n      pop\n        /* \"#utility.yul\":4198:4200   */\n      0x20\n        /* \"#utility.yul\":4187:4196   */\n      dup12\n        /* \"#utility.yul\":4183:4201   */\n      add\n        /* \"#utility.yul\":4170:4202   */\n      calldataload\n        /* \"#utility.yul\":4229:4247   */\n      0xffffffffffffffff\n        /* \"#utility.yul\":4221:4227   */\n      dup2\n        /* \"#utility.yul\":4218:4248   */\n      gt\n        /* \"#utility.yul\":4215:4332   */\n      iszero\n      tag_254\n      jumpi\n        /* \"#utility.yul\":4251:4330   */\n      tag_255\n      tag_144\n      jump\t// in\n    tag_255:\n        /* \"#utility.yul\":4215:4332   */\n    tag_254:\n        /* \"#utility.yul\":4364:4429   */\n      tag_256\n        /* \"#utility.yul\":4421:4428   */\n      dup14\n        /* \"#utility.yul\":4412:4418   */\n      dup3\n        /* \"#utility.yul\":4401:4410   */\n      dup15\n        /* \"#utility.yul\":4397:4419   */\n      add\n        /* \"#utility.yul\":4364:4429   */\n      tag_151\n      jump\t// in\n    tag_256:\n        /* \"#utility.yul\":4346:4429   */\n      swap10\n      pop\n      swap10\n      pop\n        /* \"#utility.yul\":4141:4439   */\n      pop\n        /* \"#utility.yul\":4506:4508   */\n      0x40\n        /* \"#utility.yul\":4495:4504   */\n      dup12\n        /* \"#utility.yul\":4491:4509   */\n      add\n        /* \"#utility.yul\":4478:4510   */\n      calldataload\n        /* \"#utility.yul\":4537:4555   */\n      0xffffffffffffffff\n        /* \"#utility.yul\":4529:4535   */\n      dup2\n        /* \"#utility.yul\":4526:4556   */\n      gt\n        /* \"#utility.yul\":4523:4640   */\n      iszero\n      tag_257\n      jumpi\n        /* \"#utility.yul\":4559:4638   */\n      tag_258\n      tag_144\n      jump\t// in\n    tag_258:\n        /* \"#utility.yul\":4523:4640   */\n    tag_257:\n        /* \"#utility.yul\":4672:4737   */\n      tag_259\n        /* \"#utility.yul\":4729:4736   */\n      dup14\n        /* \"#utility.yul\":4720:4726   */\n      dup3\n        /* \"#utility.yul\":4709:4718   */\n      dup15\n        /* \"#utility.yul\":4705:4727   */\n      add\n        /* \"#utility.yul\":4672:4737   */\n      tag_151\n      jump\t// in\n    tag_259:\n        /* \"#utility.yul\":4654:4737   */\n      swap8\n      pop\n      swap8\n      pop\n        /* \"#utility.yul\":4449:4747   */\n      pop\n        /* \"#utility.yul\":4814:4816   */\n      0x60\n        /* \"#utility.yul\":4803:4812   */\n      dup12\n        /* \"#utility.yul\":4799:4817   */\n      add\n        /* \"#utility.yul\":4786:4818   */\n      calldataload\n        /* \"#utility.yul\":4845:4863   */\n      0xffffffffffffffff\n        /* \"#utility.yul\":4837:4843   */\n      dup2\n        /* \"#utility.yul\":4834:4864   */\n      gt\n        /* \"#utility.yul\":4831:4948   */\n      iszero\n      tag_260\n      jumpi\n        /* \"#utility.yul\":4867:4946   */\n      tag_261\n      tag_144\n      jump\t// in\n    tag_261:\n        /* \"#utility.yul\":4831:4948   */\n    tag_260:\n        /* \"#utility.yul\":4980:5044   */\n      tag_262\n        /* \"#utility.yul\":5036:5043   */\n      dup14\n        /* \"#utility.yul\":5027:5033   */\n      dup3\n        /* \"#utility.yul\":5016:5025   */\n      dup15\n        /* \"#utility.yul\":5012:5034   */\n      add\n        /* \"#utility.yul\":4980:5044   */\n      tag_152\n      jump\t// in\n    tag_262:\n        /* \"#utility.yul\":4962:5044   */\n      swap6\n      pop\n      swap6\n      pop\n        /* \"#utility.yul\":4757:5054   */\n      pop\n        /* \"#utility.yul\":5121:5124   */\n      0x80\n        /* \"#utility.yul\":5110:5119   */\n      dup12\n        /* \"#utility.yul\":5106:5125   */\n      add\n        /* \"#utility.yul\":5093:5126   */\n      calldataload\n        /* \"#utility.yul\":5153:5171   */\n      0xffffffffffffffff\n        /* \"#utility.yul\":5145:5151   */\n      dup2\n        /* \"#utility.yul\":5142:5172   */\n      gt\n        /* \"#utility.yul\":5139:5256   */\n      iszero\n      tag_263\n      jumpi\n        /* \"#utility.yul\":5175:5254   */\n      tag_264\n      tag_144\n      jump\t// in\n    tag_264:\n        /* \"#utility.yul\":5139:5256   */\n    tag_263:\n        /* \"#utility.yul\":5288:5353   */\n      tag_265\n        /* \"#utility.yul\":5345:5352   */\n      dup14\n        /* \"#utility.yul\":5336:5342   */\n      dup3\n        /* \"#utility.yul\":5325:5334   */\n      dup15\n        /* \"#utility.yul\":5321:5343   */\n      add\n        /* \"#utility.yul\":5288:5353   */\n      tag_151\n      jump\t// in\n    tag_265:\n        /* \"#utility.yul\":5270:5353   */\n      swap4\n      pop\n      swap4\n      pop\n        /* \"#utility.yul\":5064:5363   */\n      pop\n        /* \"#utility.yul\":5402:5405   */\n      0xa0\n        /* \"#utility.yul\":5429:5482   */\n      tag_266\n        /* \"#utility.yul\":5474:5481   */\n      dup14\n        /* \"#utility.yul\":5465:5471   */\n      dup3\n        /* \"#utility.yul\":5454:5463   */\n      dup15\n        /* \"#utility.yul\":5450:5472   */\n      add\n        /* \"#utility.yul\":5429:5482   */\n      tag_155\n      jump\t// in\n    tag_266:\n        /* \"#utility.yul\":5419:5482   */\n      swap2\n      pop\n        /* \"#utility.yul\":5373:5492   */\n      pop\n        /* \"#utility.yul\":3644:5499   */\n      swap3\n      swap6\n      swap9\n      swap12\n      swap2\n      swap5\n      swap8\n      swap11\n      pop\n      swap3\n      swap6\n      swap9\n      pop\n      jump\t// out\n        /* \"#utility.yul\":5505:6868   */\n    tag_24:\n        /* \"#utility.yul\":5626:5632   */\n      0x00\n        /* \"#utility.yul\":5634:5640   */\n      dup1\n        /* \"#utility.yul\":5642:5648   */\n      0x00\n        /* \"#utility.yul\":5650:5656   */\n      dup1\n        /* \"#utility.yul\":5658:5664   */\n      0x00\n        /* \"#utility.yul\":5666:5672   */\n      dup1\n        /* \"#utility.yul\":5674:5680   */\n      0x00\n        /* \"#utility.yul\":5723:5726   */\n      0x80\n        /* \"#utility.yul\":5711:5720   */\n      dup9\n        /* \"#utility.yul\":5702:5709   */\n      dup11\n        /* \"#utility.yul\":5698:5721   */\n      sub\n        /* \"#utility.yul\":5694:5727   */\n      slt\n        /* \"#utility.yul\":5691:5811   */\n      iszero\n      tag_268\n      jumpi\n        /* \"#utility.yul\":5730:5809   */\n      tag_269\n      tag_143\n      jump\t// in\n    tag_269:\n        /* \"#utility.yul\":5691:5811   */\n    tag_268:\n        /* \"#utility.yul\":5850:5851   */\n      0x00\n        /* \"#utility.yul\":5875:5928   */\n      tag_270\n        /* \"#utility.yul\":5920:5927   */\n      dup11\n        /* \"#utility.yul\":5911:5917   */\n      dup3\n        /* \"#utility.yul\":5900:5909   */\n      dup12\n        /* \"#utility.yul\":5896:5918   */\n      add\n        /* \"#utility.yul\":5875:5928   */\n      tag_147\n      jump\t// in\n    tag_270:\n        /* \"#utility.yul\":5865:5928   */\n      swap8\n      pop\n        /* \"#utility.yul\":5821:5938   */\n      pop\n        /* \"#utility.yul\":6005:6007   */\n      0x20\n        /* \"#utility.yul\":5994:6003   */\n      dup9\n        /* \"#utility.yul\":5990:6008   */\n      add\n        /* \"#utility.yul\":5977:6009   */\n      calldataload\n        /* \"#utility.yul\":6036:6054   */\n      0xffffffffffffffff\n        /* \"#utility.yul\":6028:6034   */\n      dup2\n        /* \"#utility.yul\":6025:6055   */\n      gt\n        /* \"#utility.yul\":6022:6139   */\n      iszero\n      tag_271\n      jumpi\n        /* \"#utility.yul\":6058:6137   */\n      tag_272\n      tag_144\n      jump\t// in\n    tag_272:\n        /* \"#utility.yul\":6022:6139   */\n    tag_271:\n        /* \"#utility.yul\":6171:6236   */\n      tag_273\n        /* \"#utility.yul\":6228:6235   */\n      dup11\n        /* \"#utility.yul\":6219:6225   */\n      dup3\n        /* \"#utility.yul\":6208:6217   */\n      dup12\n        /* \"#utility.yul\":6204:6226   */\n      add\n        /* \"#utility.yul\":6171:6236   */\n      tag_151\n      jump\t// in\n    tag_273:\n        /* \"#utility.yul\":6153:6236   */\n      swap7\n      pop\n      swap7\n      pop\n        /* \"#utility.yul\":5948:6246   */\n      pop\n        /* \"#utility.yul\":6313:6315   */\n      0x40\n        /* \"#utility.yul\":6302:6311   */\n      dup9\n        /* \"#utility.yul\":6298:6316   */\n      add\n        /* \"#utility.yul\":6285:6317   */\n      calldataload\n        /* \"#utility.yul\":6344:6362   */\n      0xffffffffffffffff\n        /* \"#utility.yul\":6336:6342   */\n      dup2\n        /* \"#utility.yul\":6333:6363   */\n      gt\n        /* \"#utility.yul\":6330:6447   */\n      iszero\n      tag_274\n      jumpi\n        /* \"#utility.yul\":6366:6445   */\n      tag_275\n      tag_144\n      jump\t// in\n    tag_275:\n        /* \"#utility.yul\":6330:6447   */\n    tag_274:\n        /* \"#utility.yul\":6479:6544   */\n      tag_276\n        /* \"#utility.yul\":6536:6543   */\n      dup11\n        /* \"#utility.yul\":6527:6533   */\n      dup3\n        /* \"#utility.yul\":6516:6525   */\n      dup12\n        /* \"#utility.yul\":6512:6534   */\n      add\n        /* \"#utility.yul\":6479:6544   */\n      tag_151\n      jump\t// in\n    tag_276:\n        /* \"#utility.yul\":6461:6544   */\n      swap5\n      pop\n      swap5\n      pop\n        /* \"#utility.yul\":6256:6554   */\n      pop\n        /* \"#utility.yul\":6621:6623   */\n      0x60\n        /* \"#utility.yul\":6610:6619   */\n      dup9\n        /* \"#utility.yul\":6606:6624   */\n      add\n        /* \"#utility.yul\":6593:6625   */\n      calldataload\n        /* \"#utility.yul\":6652:6670   */\n      0xffffffffffffffff\n        /* \"#utility.yul\":6644:6650   */\n      dup2\n        /* \"#utility.yul\":6641:6671   */\n      gt\n        /* \"#utility.yul\":6638:6755   */\n      iszero\n      tag_277\n      jumpi\n        /* \"#utility.yul\":6674:6753   */\n      tag_278\n      tag_144\n      jump\t// in\n    tag_278:\n        /* \"#utility.yul\":6638:6755   */\n    tag_277:\n        /* \"#utility.yul\":6787:6851   */\n      tag_279\n        /* \"#utility.yul\":6843:6850   */\n      dup11\n        /* \"#utility.yul\":6834:6840   */\n      dup3\n        /* \"#utility.yul\":6823:6832   */\n      dup12\n        /* \"#utility.yul\":6819:6841   */\n      add\n        /* \"#utility.yul\":6787:6851   */\n      tag_152\n      jump\t// in\n    tag_279:\n        /* \"#utility.yul\":6769:6851   */\n      swap3\n      pop\n      swap3\n      pop\n        /* \"#utility.yul\":6564:6861   */\n      pop\n        /* \"#utility.yul\":5505:6868   */\n      swap3\n      swap6\n      swap9\n      swap2\n      swap5\n      swap8\n      pop\n      swap3\n      swap6\n      pop\n      jump\t// out\n        /* \"#utility.yul\":6874:6970   */\n    tag_156:\n        /* \"#utility.yul\":6911:6918   */\n      0x00\n        /* \"#utility.yul\":6940:6964   */\n      tag_281\n        /* \"#utility.yul\":6958:6963   */\n      dup3\n        /* \"#utility.yul\":6940:6964   */\n      tag_136\n      jump\t// in\n    tag_281:\n        /* \"#utility.yul\":6929:6964   */\n      swap1\n      pop\n        /* \"#utility.yul\":6874:6970   */\n      swap2\n      swap1\n      pop\n      jump\t// out\n        /* \"#utility.yul\":6976:7098   */\n    tag_157:\n        /* \"#utility.yul\":7049:7073   */\n      tag_283\n        /* \"#utility.yul\":7067:7072   */\n      dup2\n        /* \"#utility.yul\":7049:7073   */\n      tag_156\n      jump\t// in\n    tag_283:\n        /* \"#utility.yul\":7042:7047   */\n      dup2\n        /* \"#utility.yul\":7039:7074   */\n      eq\n        /* \"#utility.yul\":7029:7092   */\n      tag_284\n      jumpi\n        /* \"#utility.yul\":7088:7089   */\n      0x00\n        /* \"#utility.yul\":7085:7086   */\n      dup1\n        /* \"#utility.yul\":7078:7090   */\n      revert\n        /* \"#utility.yul\":7029:7092   */\n    tag_284:\n        /* \"#utility.yul\":6976:7098   */\n      pop\n      jump\t// out\n        /* \"#utility.yul\":7104:7243   */\n    tag_158:\n        /* \"#utility.yul\":7150:7155   */\n      0x00\n        /* \"#utility.yul\":7188:7194   */\n      dup2\n        /* \"#utility.yul\":7175:7195   */\n      calldataload\n        /* \"#utility.yul\":7166:7195   */\n      swap1\n      pop\n        /* \"#utility.yul\":7204:7237   */\n      tag_286\n        /* \"#utility.yul\":7231:7236   */\n      dup2\n        /* \"#utility.yul\":7204:7237   */\n      tag_157\n      jump\t// in\n    tag_286:\n        /* \"#utility.yul\":7104:7243   */\n      swap3\n      swap2\n      pop\n      pop\n      jump\t// out\n        /* \"#utility.yul\":7249:7578   */\n    tag_29:\n        /* \"#utility.yul\":7308:7314   */\n      0x00\n        /* \"#utility.yul\":7357:7359   */\n      0x20\n        /* \"#utility.yul\":7345:7354   */\n      dup3\n        /* \"#utility.yul\":7336:7343   */\n      dup5\n        /* \"#utility.yul\":7332:7355   */\n      sub\n        /* \"#utility.yul\":7328:7360   */\n      slt\n        /* \"#utility.yul\":7325:7444   */\n      iszero\n      tag_288\n      jumpi\n        /* \"#utility.yul\":7363:7442   */\n      tag_289\n      tag_143\n      jump\t// in\n    tag_289:\n        /* \"#utility.yul\":7325:7444   */\n    tag_288:\n        /* \"#utility.yul\":7483:7484   */\n      0x00\n        /* \"#utility.yul\":7508:7561   */\n      tag_290\n        /* \"#utility.yul\":7553:7560   */\n      dup5\n        /* \"#utility.yul\":7544:7550   */\n      dup3\n        /* \"#utility.yul\":7533:7542   */\n      dup6\n        /* \"#utility.yul\":7529:7551   */\n      add\n        /* \"#utility.yul\":7508:7561   */\n      tag_158\n      jump\t// in\n    tag_290:\n        /* \"#utility.yul\":7498:7561   */\n      swap2\n      pop\n        /* \"#utility.yul\":7454:7571   */\n      pop\n        /* \"#utility.yul\":7249:7578   */\n      swap3\n      swap2\n      pop\n      pop\n      jump\t// out\n        /* \"#utility.yul\":7584:7683   */\n    tag_159:\n        /* \"#utility.yul\":7636:7642   */\n      0x00\n        /* \"#utility.yul\":7670:7675   */\n      dup2\n        /* \"#utility.yul\":7664:7676   */\n      mload\n        /* \"#utility.yul\":7654:7676   */\n      swap1\n      pop\n        /* \"#utility.yul\":7584:7683   */\n      swap2\n      swap1\n      pop\n      jump\t// out\n        /* \"#utility.yul\":7689:7858   */\n    tag_160:\n        /* \"#utility.yul\":7773:7784   */\n      0x00\n        /* \"#utility.yul\":7807:7813   */\n      dup3\n        /* \"#utility.yul\":7802:7805   */\n      dup3\n        /* \"#utility.yul\":7795:7814   */\n      mstore\n        /* \"#utility.yul\":7847:7851   */\n      0x20\n        /* \"#utility.yul\":7842:7845   */\n      dup3\n        /* \"#utility.yul\":7838:7852   */\n      add\n        /* \"#utility.yul\":7823:7852   */\n      swap1\n      pop\n        /* \"#utility.yul\":7689:7858   */\n      swap3\n      swap2\n      pop\n      pop\n      jump\t// out\n        /* \"#utility.yul\":7864:8003   */\n    tag_161:\n        /* \"#utility.yul\":7953:7959   */\n      dup3\n        /* \"#utility.yul\":7948:7951   */\n      dup2\n        /* \"#utility.yul\":7943:7946   */\n      dup4\n        /* \"#utility.yul\":7937:7960   */\n      mcopy\n        /* \"#utility.yul\":7994:7995   */\n      0x00\n        /* \"#utility.yul\":7985:7991   */\n      dup4\n        /* \"#utility.yul\":7980:7983   */\n      dup4\n        /* \"#utility.yul\":7976:7992   */\n      add\n        /* \"#utility.yul\":7969:7996   */\n      mstore\n        /* \"#utility.yul\":7864:8003   */\n      pop\n      pop\n      pop\n      jump\t// out\n        /* \"#utility.yul\":8009:8111   */\n    tag_162:\n        /* \"#utility.yul\":8050:8056   */\n      0x00\n        /* \"#utility.yul\":8101:8103   */\n      0x1f\n        /* \"#utility.yul\":8097:8104   */\n      not\n        /* \"#utility.yul\":8092:8094   */\n      0x1f\n        /* \"#utility.yul\":8085:8090   */\n      dup4\n        /* \"#utility.yul\":8081:8095   */\n      add\n        /* \"#utility.yul\":8077:8105   */\n      and\n        /* \"#utility.yul\":8067:8105   */\n      swap1\n      pop\n        /* \"#utility.yul\":8009:8111   */\n      swap2\n      swap1\n      pop\n      jump\t// out\n        /* \"#utility.yul\":8117:8494   */\n    tag_163:\n        /* \"#utility.yul\":8205:8208   */\n      0x00\n        /* \"#utility.yul\":8233:8272   */\n      tag_296\n        /* \"#utility.yul\":8266:8271   */\n      dup3\n        /* \"#utility.yul\":8233:8272   */\n      tag_159\n      jump\t// in\n    tag_296:\n        /* \"#utility.yul\":8288:8359   */\n      tag_297\n        /* \"#utility.yul\":8352:8358   */\n      dup2\n        /* \"#utility.yul\":8347:8350   */\n      dup6\n        /* \"#utility.yul\":8288:8359   */\n      tag_160\n      jump\t// in\n    tag_297:\n        /* \"#utility.yul\":8281:8359   */\n      swap4\n      pop\n        /* \"#utility.yul\":8368:8433   */\n      tag_298\n        /* \"#utility.yul\":8426:8432   */\n      dup2\n        /* \"#utility.yul\":8421:8424   */\n      dup6\n        /* \"#utility.yul\":8414:8418   */\n      0x20\n        /* \"#utility.yul\":8407:8412   */\n      dup7\n        /* \"#utility.yul\":8403:8419   */\n      add\n        /* \"#utility.yul\":8368:8433   */\n      tag_161\n      jump\t// in\n    tag_298:\n        /* \"#utility.yul\":8458:8487   */\n      tag_299\n        /* \"#utility.yul\":8480:8486   */\n      dup2\n        /* \"#utility.yul\":8458:8487   */\n      tag_162\n      jump\t// in\n    tag_299:\n        /* \"#utility.yul\":8453:8456   */\n      dup5\n        /* \"#utility.yul\":8449:8488   */\n      add\n        /* \"#utility.yul\":8442:8488   */\n      swap2\n      pop\n        /* \"#utility.yul\":8209:8494   */\n      pop\n        /* \"#utility.yul\":8117:8494   */\n      swap3\n      swap2\n      pop\n      pop\n      jump\t// out\n        /* \"#utility.yul\":8500:8813   */\n    tag_32:\n        /* \"#utility.yul\":8613:8617   */\n      0x00\n        /* \"#utility.yul\":8651:8653   */\n      0x20\n        /* \"#utility.yul\":8640:8649   */\n      dup3\n        /* \"#utility.yul\":8636:8654   */\n      add\n        /* \"#utility.yul\":8628:8654   */\n      swap1\n      pop\n        /* \"#utility.yul\":8700:8709   */\n      dup2\n        /* \"#utility.yul\":8694:8698   */\n      dup2\n        /* \"#utility.yul\":8690:8710   */\n      sub\n        /* \"#utility.yul\":8686:8687   */\n      0x00\n        /* \"#utility.yul\":8675:8684   */\n      dup4\n        /* \"#utility.yul\":8671:8688   */\n      add\n        /* \"#utility.yul\":8664:8711   */\n      mstore\n        /* \"#utility.yul\":8728:8806   */\n      tag_301\n        /* \"#utility.yul\":8801:8805   */\n      dup2\n        /* \"#utility.yul\":8792:8798   */\n      dup5\n        /* \"#utility.yul\":8728:8806   */\n      tag_163\n      jump\t// in\n    tag_301:\n        /* \"#utility.yul\":8720:8806   */\n      swap1\n      pop\n        /* \"#utility.yul\":8500:8813   */\n      swap3\n      swap2\n      pop\n      pop\n      jump\t// out\n        /* \"#utility.yul\":8819:8970   */\n    tag_164:\n        /* \"#utility.yul\":8894:8903   */\n      0x00\n        /* \"#utility.yul\":8927:8964   */\n      tag_303\n        /* \"#utility.yul\":8958:8963   */\n      dup3\n        /* \"#utility.yul\":8927:8964   */\n      tag_139\n      jump\t// in\n    tag_303:\n        /* \"#utility.yul\":8914:8964   */\n      swap1\n      pop\n        /* \"#utility.yul\":8819:8970   */\n      swap2\n      swap1\n      pop\n      jump\t// out\n        /* \"#utility.yul\":8976:9157   */\n    tag_165:\n        /* \"#utility.yul\":9088:9150   */\n      tag_305\n        /* \"#utility.yul\":9144:9149   */\n      dup2\n        /* \"#utility.yul\":9088:9150   */\n      tag_164\n      jump\t// in\n    tag_305:\n        /* \"#utility.yul\":9083:9086   */\n      dup3\n        /* \"#utility.yul\":9076:9151   */\n      mstore\n        /* \"#utility.yul\":8976:9157   */\n      pop\n      pop\n      jump\t// out\n        /* \"#utility.yul\":9163:9435   */\n    tag_37:\n        /* \"#utility.yul\":9281:9285   */\n      0x00\n        /* \"#utility.yul\":9319:9321   */\n      0x20\n        /* \"#utility.yul\":9308:9317   */\n      dup3\n        /* \"#utility.yul\":9304:9322   */\n      add\n        /* \"#utility.yul\":9296:9322   */\n      swap1\n      pop\n        /* \"#utility.yul\":9332:9428   */\n      tag_307\n        /* \"#utility.yul\":9425:9426   */\n      0x00\n        /* \"#utility.yul\":9414:9423   */\n      dup4\n        /* \"#utility.yul\":9410:9427   */\n      add\n        /* \"#utility.yul\":9401:9407   */\n      dup5\n        /* \"#utility.yul\":9332:9428   */\n      tag_165\n      jump\t// in\n    tag_307:\n        /* \"#utility.yul\":9163:9435   */\n      swap3\n      swap2\n      pop\n      pop\n      jump\t// out\n        /* \"#utility.yul\":9441:9558   */\n    tag_166:\n        /* \"#utility.yul\":9550:9551   */\n      0x00\n        /* \"#utility.yul\":9547:9548   */\n      dup1\n        /* \"#utility.yul\":9540:9552   */\n      revert\n        /* \"#utility.yul\":9564:9744   */\n    tag_167:\n        /* \"#utility.yul\":9612:9689   */\n      0x4e487b7100000000000000000000000000000000000000000000000000000000\n        /* \"#utility.yul\":9609:9610   */\n      0x00\n        /* \"#utility.yul\":9602:9690   */\n      mstore\n        /* \"#utility.yul\":9709:9713   */\n      0x41\n        /* \"#utility.yul\":9706:9707   */\n      0x04\n        /* \"#utility.yul\":9699:9714   */\n      mstore\n        /* \"#utility.yul\":9733:9737   */\n      0x24\n        /* \"#utility.yul\":9730:9731   */\n      0x00\n        /* \"#utility.yul\":9723:9738   */\n      revert\n        /* \"#utility.yul\":9750:10031   */\n    tag_168:\n        /* \"#utility.yul\":9833:9860   */\n      tag_311\n        /* \"#utility.yul\":9855:9859   */\n      dup3\n        /* \"#utility.yul\":9833:9860   */\n      tag_162\n      jump\t// in\n    tag_311:\n        /* \"#utility.yul\":9825:9831   */\n      dup2\n        /* \"#utility.yul\":9821:9861   */\n      add\n        /* \"#utility.yul\":9963:9969   */\n      dup2\n        /* \"#utility.yul\":9951:9961   */\n      dup2\n        /* \"#utility.yul\":9948:9970   */\n      lt\n        /* \"#utility.yul\":9927:9945   */\n      0xffffffffffffffff\n        /* \"#utility.yul\":9915:9925   */\n      dup3\n        /* \"#utility.yul\":9912:9946   */\n      gt\n        /* \"#utility.yul\":9909:9971   */\n      or\n        /* \"#utility.yul\":9906:9994   */\n      iszero\n      tag_312\n      jumpi\n        /* \"#utility.yul\":9974:9992   */\n      tag_313\n      tag_167\n      jump\t// in\n    tag_313:\n        /* \"#utility.yul\":9906:9994   */\n    tag_312:\n        /* \"#utility.yul\":10014:10024   */\n      dup1\n        /* \"#utility.yul\":10010:10012   */\n      0x40\n        /* \"#utility.yul\":10003:10025   */\n      mstore\n        /* \"#utility.yul\":9793:10031   */\n      pop\n        /* \"#utility.yul\":9750:10031   */\n      pop\n      pop\n      jump\t// out\n        /* \"#utility.yul\":10037:10166   */\n    tag_169:\n        /* \"#utility.yul\":10071:10077   */\n      0x00\n        /* \"#utility.yul\":10098:10118   */\n      tag_315\n      tag_142\n      jump\t// in\n    tag_315:\n        /* \"#utility.yul\":10088:10118   */\n      swap1\n      pop\n        /* \"#utility.yul\":10127:10160   */\n      tag_316\n        /* \"#utility.yul\":10155:10159   */\n      dup3\n        /* \"#utility.yul\":10147:10153   */\n      dup3\n        /* \"#utility.yul\":10127:10160   */\n      tag_168\n      jump\t// in\n    tag_316:\n        /* \"#utility.yul\":10037:10166   */\n      swap2\n      swap1\n      pop\n      jump\t// out\n        /* \"#utility.yul\":10172:10480   */\n    tag_170:\n        /* \"#utility.yul\":10234:10238   */\n      0x00\n        /* \"#utility.yul\":10324:10342   */\n      0xffffffffffffffff\n        /* \"#utility.yul\":10316:10322   */\n      dup3\n        /* \"#utility.yul\":10313:10343   */\n      gt\n        /* \"#utility.yul\":10310:10366   */\n      iszero\n      tag_318\n      jumpi\n        /* \"#utility.yul\":10346:10364   */\n      tag_319\n      tag_167\n      jump\t// in\n    tag_319:\n        /* \"#utility.yul\":10310:10366   */\n    tag_318:\n        /* \"#utility.yul\":10384:10413   */\n      tag_320\n        /* \"#utility.yul\":10406:10412   */\n      dup3\n        /* \"#utility.yul\":10384:10413   */\n      tag_162\n      jump\t// in\n    tag_320:\n        /* \"#utility.yul\":10376:10413   */\n      swap1\n      pop\n        /* \"#utility.yul\":10468:10472   */\n      0x20\n        /* \"#utility.yul\":10462:10466   */\n      dup2\n        /* \"#utility.yul\":10458:10473   */\n      add\n        /* \"#utility.yul\":10450:10473   */\n      swap1\n      pop\n        /* \"#utility.yul\":10172:10480   */\n      swap2\n      swap1\n      pop\n      jump\t// out\n        /* \"#utility.yul\":10486:10634   */\n    tag_171:\n        /* \"#utility.yul\":10584:10590   */\n      dup3\n        /* \"#utility.yul\":10579:10582   */\n      dup2\n        /* \"#utility.yul\":10574:10577   */\n      dup4\n        /* \"#utility.yul\":10561:10591   */\n      calldatacopy\n        /* \"#utility.yul\":10625:10626   */\n      0x00\n        /* \"#utility.yul\":10616:10622   */\n      dup4\n        /* \"#utility.yul\":10611:10614   */\n      dup4\n        /* \"#utility.yul\":10607:10623   */\n      add\n        /* \"#utility.yul\":10600:10627   */\n      mstore\n        /* \"#utility.yul\":10486:10634   */\n      pop\n      pop\n      pop\n      jump\t// out\n        /* \"#utility.yul\":10640:11065   */\n    tag_172:\n        /* \"#utility.yul\":10718:10723   */\n      0x00\n        /* \"#utility.yul\":10743:10809   */\n      tag_323\n        /* \"#utility.yul\":10759:10808   */\n      tag_324\n        /* \"#utility.yul\":10801:10807   */\n      dup5\n        /* \"#utility.yul\":10759:10808   */\n      tag_170\n      jump\t// in\n    tag_324:\n        /* \"#utility.yul\":10743:10809   */\n      tag_169\n      jump\t// in\n    tag_323:\n        /* \"#utility.yul\":10734:10809   */\n      swap1\n      pop\n        /* \"#utility.yul\":10832:10838   */\n      dup3\n        /* \"#utility.yul\":10825:10830   */\n      dup2\n        /* \"#utility.yul\":10818:10839   */\n      mstore\n        /* \"#utility.yul\":10870:10874   */\n      0x20\n        /* \"#utility.yul\":10863:10868   */\n      dup2\n        /* \"#utility.yul\":10859:10875   */\n      add\n        /* \"#utility.yul\":10908:10911   */\n      dup5\n        /* \"#utility.yul\":10899:10905   */\n      dup5\n        /* \"#utility.yul\":10894:10897   */\n      dup5\n        /* \"#utility.yul\":10890:10906   */\n      add\n        /* \"#utility.yul\":10887:10912   */\n      gt\n        /* \"#utility.yul\":10884:10996   */\n      iszero\n      tag_325\n      jumpi\n        /* \"#utility.yul\":10915:10994   */\n      tag_326\n      tag_166\n      jump\t// in\n    tag_326:\n        /* \"#utility.yul\":10884:10996   */\n    tag_325:\n        /* \"#utility.yul\":11005:11059   */\n      tag_327\n        /* \"#utility.yul\":11052:11058   */\n      dup5\n        /* \"#utility.yul\":11047:11050   */\n      dup3\n        /* \"#utility.yul\":11042:11045   */\n      dup6\n        /* \"#utility.yul\":11005:11059   */\n      tag_171\n      jump\t// in\n    tag_327:\n        /* \"#utility.yul\":10724:11065   */\n      pop\n        /* \"#utility.yul\":10640:11065   */\n      swap4\n      swap3\n      pop\n      pop\n      pop\n      jump\t// out\n        /* \"#utility.yul\":11085:11425   */\n    tag_173:\n        /* \"#utility.yul\":11141:11146   */\n      0x00\n        /* \"#utility.yul\":11190:11193   */\n      dup3\n        /* \"#utility.yul\":11183:11187   */\n      0x1f\n        /* \"#utility.yul\":11175:11181   */\n      dup4\n        /* \"#utility.yul\":11171:11188   */\n      add\n        /* \"#utility.yul\":11167:11194   */\n      slt\n        /* \"#utility.yul\":11157:11279   */\n      tag_329\n      jumpi\n        /* \"#utility.yul\":11198:11277   */\n      tag_330\n      tag_148\n      jump\t// in\n    tag_330:\n        /* \"#utility.yul\":11157:11279   */\n    tag_329:\n        /* \"#utility.yul\":11315:11321   */\n      dup2\n        /* \"#utility.yul\":11302:11322   */\n      calldataload\n        /* \"#utility.yul\":11340:11419   */\n      tag_331\n        /* \"#utility.yul\":11415:11418   */\n      dup5\n        /* \"#utility.yul\":11407:11413   */\n      dup3\n        /* \"#utility.yul\":11400:11404   */\n      0x20\n        /* \"#utility.yul\":11392:11398   */\n      dup7\n        /* \"#utility.yul\":11388:11405   */\n      add\n        /* \"#utility.yul\":11340:11419   */\n      tag_172\n      jump\t// in\n    tag_331:\n        /* \"#utility.yul\":11331:11419   */\n      swap2\n      pop\n        /* \"#utility.yul\":11147:11425   */\n      pop\n        /* \"#utility.yul\":11085:11425   */\n      swap3\n      swap2\n      pop\n      pop\n      jump\t// out\n        /* \"#utility.yul\":11431:12916   */\n    tag_45:\n        /* \"#utility.yul\":11557:11563   */\n      0x00\n        /* \"#utility.yul\":11565:11571   */\n      dup1\n        /* \"#utility.yul\":11573:11579   */\n      0x00\n        /* \"#utility.yul\":11581:11587   */\n      dup1\n        /* \"#utility.yul\":11630:11633   */\n      0x80\n        /* \"#utility.yul\":11618:11627   */\n      dup6\n        /* \"#utility.yul\":11609:11616   */\n      dup8\n        /* \"#utility.yul\":11605:11628   */\n      sub\n        /* \"#utility.yul\":11601:11634   */\n      slt\n        /* \"#utility.yul\":11598:11718   */\n      iszero\n      tag_333\n      jumpi\n        /* \"#utility.yul\":11637:11716   */\n      tag_334\n      tag_143\n      jump\t// in\n    tag_334:\n        /* \"#utility.yul\":11598:11718   */\n    tag_333:\n        /* \"#utility.yul\":11785:11786   */\n      0x00\n        /* \"#utility.yul\":11774:11783   */\n      dup6\n        /* \"#utility.yul\":11770:11787   */\n      add\n        /* \"#utility.yul\":11757:11788   */\n      calldataload\n        /* \"#utility.yul\":11815:11833   */\n      0xffffffffffffffff\n        /* \"#utility.yul\":11807:11813   */\n      dup2\n        /* \"#utility.yul\":11804:11834   */\n      gt\n        /* \"#utility.yul\":11801:11918   */\n      iszero\n      tag_335\n      jumpi\n        /* \"#utility.yul\":11837:11916   */\n      tag_336\n      tag_144\n      jump\t// in\n    tag_336:\n        /* \"#utility.yul\":11801:11918   */\n    tag_335:\n        /* \"#utility.yul\":11942:12005   */\n      tag_337\n        /* \"#utility.yul\":11997:12004   */\n      dup8\n        /* \"#utility.yul\":11988:11994   */\n      dup3\n        /* \"#utility.yul\":11977:11986   */\n      dup9\n        /* \"#utility.yul\":11973:11995   */\n      add\n        /* \"#utility.yul\":11942:12005   */\n      tag_173\n      jump\t// in\n    tag_337:\n        /* \"#utility.yul\":11932:12005   */\n      swap5\n      pop\n        /* \"#utility.yul\":11728:12015   */\n      pop\n        /* \"#utility.yul\":12082:12084   */\n      0x20\n        /* \"#utility.yul\":12071:12080   */\n      dup6\n        /* \"#utility.yul\":12067:12085   */\n      add\n        /* \"#utility.yul\":12054:12086   */\n      calldataload\n        /* \"#utility.yul\":12113:12131   */\n      0xffffffffffffffff\n        /* \"#utility.yul\":12105:12111   */\n      dup2\n        /* \"#utility.yul\":12102:12132   */\n      gt\n        /* \"#utility.yul\":12099:12216   */\n      iszero\n      tag_338\n      jumpi\n        /* \"#utility.yul\":12135:12214   */\n      tag_339\n      tag_144\n      jump\t// in\n    tag_339:\n        /* \"#utility.yul\":12099:12216   */\n    tag_338:\n        /* \"#utility.yul\":12240:12303   */\n      tag_340\n        /* \"#utility.yul\":12295:12302   */\n      dup8\n        /* \"#utility.yul\":12286:12292   */\n      dup3\n        /* \"#utility.yul\":12275:12284   */\n      dup9\n        /* \"#utility.yul\":12271:12293   */\n      add\n        /* \"#utility.yul\":12240:12303   */\n      tag_173\n      jump\t// in\n    tag_340:\n        /* \"#utility.yul\":12230:12303   */\n      swap4\n      pop\n        /* \"#utility.yul\":12025:12313   */\n      pop\n        /* \"#utility.yul\":12380:12382   */\n      0x40\n        /* \"#utility.yul\":12369:12378   */\n      dup6\n        /* \"#utility.yul\":12365:12383   */\n      add\n        /* \"#utility.yul\":12352:12384   */\n      calldataload\n        /* \"#utility.yul\":12411:12429   */\n      0xffffffffffffffff\n        /* \"#utility.yul\":12403:12409   */\n      dup2\n        /* \"#utility.yul\":12400:12430   */\n      gt\n        /* \"#utility.yul\":12397:12514   */\n      iszero\n      tag_341\n      jumpi\n        /* \"#utility.yul\":12433:12512   */\n      tag_342\n      tag_144\n      jump\t// in\n    tag_342:\n        /* \"#utility.yul\":12397:12514   */\n    tag_341:\n        /* \"#utility.yul\":12538:12601   */\n      tag_343\n        /* \"#utility.yul\":12593:12600   */\n      dup8\n        /* \"#utility.yul\":12584:12590   */\n      dup3\n        /* \"#utility.yul\":12573:12582   */\n      dup9\n        /* \"#utility.yul\":12569:12591   */\n      add\n        /* \"#utility.yul\":12538:12601   */\n      tag_173\n      jump\t// in\n    tag_343:\n        /* \"#utility.yul\":12528:12601   */\n      swap3\n      pop\n        /* \"#utility.yul\":12323:12611   */\n      pop\n        /* \"#utility.yul\":12678:12680   */\n      0x60\n        /* \"#utility.yul\":12667:12676   */\n      dup6\n        /* \"#utility.yul\":12663:12681   */\n      add\n        /* \"#utility.yul\":12650:12682   */\n      calldataload\n        /* \"#utility.yul\":12709:12727   */\n      0xffffffffffffffff\n        /* \"#utility.yul\":12701:12707   */\n      dup2\n        /* \"#utility.yul\":12698:12728   */\n      gt\n        /* \"#utility.yul\":12695:12812   */\n      iszero\n      tag_344\n      jumpi\n        /* \"#utility.yul\":12731:12810   */\n      tag_345\n      tag_144\n      jump\t// in\n    tag_345:\n        /* \"#utility.yul\":12695:12812   */\n    tag_344:\n        /* \"#utility.yul\":12836:12899   */\n      tag_346\n        /* \"#utility.yul\":12891:12898   */\n      dup8\n        /* \"#utility.yul\":12882:12888   */\n      dup3\n        /* \"#utility.yul\":12871:12880   */\n      dup9\n        /* \"#utility.yul\":12867:12889   */\n      add\n        /* \"#utility.yul\":12836:12899   */\n      tag_173\n      jump\t// in\n    tag_346:\n        /* \"#utility.yul\":12826:12899   */\n      swap2\n      pop\n        /* \"#utility.yul\":12621:12909   */\n      pop\n        /* \"#utility.yul\":11431:12916   */\n      swap3\n      swap6\n      swap2\n      swap5\n      pop\n      swap3\n      pop\n      jump\t// out\n        /* \"#utility.yul\":12922:13431   */\n    tag_50:\n        /* \"#utility.yul\":12991:12997   */\n      0x00\n        /* \"#utility.yul\":13040:13042   */\n      0x20\n        /* \"#utility.yul\":13028:13037   */\n      dup3\n        /* \"#utility.yul\":13019:13026   */\n      dup5\n        /* \"#utility.yul\":13015:13038   */\n      sub\n        /* \"#utility.yul\":13011:13043   */\n      slt\n        /* \"#utility.yul\":13008:13127   */\n      iszero\n      tag_348\n      jumpi\n        /* \"#utility.yul\":13046:13125   */\n      tag_349\n      tag_143\n      jump\t// in\n    tag_349:\n        /* \"#utility.yul\":13008:13127   */\n    tag_348:\n        /* \"#utility.yul\":13194:13195   */\n      0x00\n        /* \"#utility.yul\":13183:13192   */\n      dup3\n        /* \"#utility.yul\":13179:13196   */\n      add\n        /* \"#utility.yul\":13166:13197   */\n      calldataload\n        /* \"#utility.yul\":13224:13242   */\n      0xffffffffffffffff\n        /* \"#utility.yul\":13216:13222   */\n      dup2\n        /* \"#utility.yul\":13213:13243   */\n      gt\n        /* \"#utility.yul\":13210:13327   */\n      iszero\n      tag_350\n      jumpi\n        /* \"#utility.yul\":13246:13325   */\n      tag_351\n      tag_144\n      jump\t// in\n    tag_351:\n        /* \"#utility.yul\":13210:13327   */\n    tag_350:\n        /* \"#utility.yul\":13351:13414   */\n      tag_352\n        /* \"#utility.yul\":13406:13413   */\n      dup5\n        /* \"#utility.yul\":13397:13403   */\n      dup3\n        /* \"#utility.yul\":13386:13395   */\n      dup6\n        /* \"#utility.yul\":13382:13404   */\n      add\n        /* \"#utility.yul\":13351:13414   */\n      tag_173\n      jump\t// in\n    tag_352:\n        /* \"#utility.yul\":13341:13414   */\n      swap2\n      pop\n        /* \"#utility.yul\":13137:13424   */\n      pop\n        /* \"#utility.yul\":12922:13431   */\n      swap3\n      swap2\n      pop\n      pop\n      jump\t// out\n        /* \"#utility.yul\":13437:13584   */\n    tag_174:\n        /* \"#utility.yul\":13538:13549   */\n      0x00\n        /* \"#utility.yul\":13575:13578   */\n      dup2\n        /* \"#utility.yul\":13560:13578   */\n      swap1\n      pop\n        /* \"#utility.yul\":13437:13584   */\n      swap3\n      swap2\n      pop\n      pop\n      jump\t// out\n        /* \"#utility.yul\":13612:13939   */\n    tag_175:\n        /* \"#utility.yul\":13726:13729   */\n      0x00\n        /* \"#utility.yul\":13747:13835   */\n      tag_355\n        /* \"#utility.yul\":13828:13834   */\n      dup4\n        /* \"#utility.yul\":13823:13826   */\n      dup6\n        /* \"#utility.yul\":13747:13835   */\n      tag_174\n      jump\t// in\n    tag_355:\n        /* \"#utility.yul\":13740:13835   */\n      swap4\n      pop\n        /* \"#utility.yul\":13845:13901   */\n      tag_356\n        /* \"#utility.yul\":13894:13900   */\n      dup4\n        /* \"#utility.yul\":13889:13892   */\n      dup6\n        /* \"#utility.yul\":13882:13887   */\n      dup5\n        /* \"#utility.yul\":13845:13901   */\n      tag_171\n      jump\t// in\n    tag_356:\n        /* \"#utility.yul\":13926:13932   */\n      dup3\n        /* \"#utility.yul\":13921:13924   */\n      dup5\n        /* \"#utility.yul\":13917:13933   */\n      add\n        /* \"#utility.yul\":13910:13933   */\n      swap1\n      pop\n        /* \"#utility.yul\":13612:13939   */\n      swap4\n      swap3\n      pop\n      pop\n      pop\n      jump\t// out\n        /* \"#utility.yul\":13945:14236   */\n    tag_54:\n        /* \"#utility.yul\":14085:14088   */\n      0x00\n        /* \"#utility.yul\":14107:14210   */\n      tag_358\n        /* \"#utility.yul\":14206:14209   */\n      dup3\n        /* \"#utility.yul\":14197:14203   */\n      dup5\n        /* \"#utility.yul\":14189:14195   */\n      dup7\n        /* \"#utility.yul\":14107:14210   */\n      tag_175\n      jump\t// in\n    tag_358:\n        /* \"#utility.yul\":14100:14210   */\n      swap2\n      pop\n        /* \"#utility.yul\":14227:14230   */\n      dup2\n        /* \"#utility.yul\":14220:14230   */\n      swap1\n      pop\n        /* \"#utility.yul\":13945:14236   */\n      swap4\n      swap3\n      pop\n      pop\n      pop\n      jump\t// out\n        /* \"#utility.yul\":14242:14360   */\n    tag_176:\n        /* \"#utility.yul\":14329:14353   */\n      tag_360\n        /* \"#utility.yul\":14347:14352   */\n      dup2\n        /* \"#utility.yul\":14329:14353   */\n      tag_145\n      jump\t// in\n    tag_360:\n        /* \"#utility.yul\":14324:14327   */\n      dup3\n        /* \"#utility.yul\":14317:14354   */\n      mstore\n        /* \"#utility.yul\":14242:14360   */\n      pop\n      pop\n      jump\t// out\n        /* \"#utility.yul\":14390:14707   */\n    tag_177:\n        /* \"#utility.yul\":14488:14491   */\n      0x00\n        /* \"#utility.yul\":14509:14580   */\n      tag_362\n        /* \"#utility.yul\":14573:14579   */\n      dup4\n        /* \"#utility.yul\":14568:14571   */\n      dup6\n        /* \"#utility.yul\":14509:14580   */\n      tag_160\n      jump\t// in\n    tag_362:\n        /* \"#utility.yul\":14502:14580   */\n      swap4\n      pop\n        /* \"#utility.yul\":14590:14646   */\n      tag_363\n        /* \"#utility.yul\":14639:14645   */\n      dup4\n        /* \"#utility.yul\":14634:14637   */\n      dup6\n        /* \"#utility.yul\":14627:14632   */\n      dup5\n        /* \"#utility.yul\":14590:14646   */\n      tag_171\n      jump\t// in\n    tag_363:\n        /* \"#utility.yul\":14671:14700   */\n      tag_364\n        /* \"#utility.yul\":14693:14699   */\n      dup4\n        /* \"#utility.yul\":14671:14700   */\n      tag_162\n      jump\t// in\n    tag_364:\n        /* \"#utility.yul\":14666:14669   */\n      dup5\n        /* \"#utility.yul\":14662:14701   */\n      add\n        /* \"#utility.yul\":14655:14701   */\n      swap1\n      pop\n        /* \"#utility.yul\":14390:14707   */\n      swap4\n      swap3\n      pop\n      pop\n      pop\n      jump\t// out\n        /* \"#utility.yul\":14713:14831   */\n    tag_178:\n        /* \"#utility.yul\":14800:14824   */\n      tag_366\n        /* \"#utility.yul\":14818:14823   */\n      dup2\n        /* \"#utility.yul\":14800:14824   */\n      tag_153\n      jump\t// in\n    tag_366:\n        /* \"#utility.yul\":14795:14798   */\n      dup3\n        /* \"#utility.yul\":14788:14825   */\n      mstore\n        /* \"#utility.yul\":14713:14831   */\n      pop\n      pop\n      jump\t// out\n        /* \"#utility.yul\":14837:15945   */\n    tag_56:\n        /* \"#utility.yul\":15160:15164   */\n      0x00\n        /* \"#utility.yul\":15198:15201   */\n      0xc0\n        /* \"#utility.yul\":15187:15196   */\n      dup3\n        /* \"#utility.yul\":15183:15202   */\n      add\n        /* \"#utility.yul\":15175:15202   */\n      swap1\n      pop\n        /* \"#utility.yul\":15212:15283   */\n      tag_368\n        /* \"#utility.yul\":15280:15281   */\n      0x00\n        /* \"#utility.yul\":15269:15278   */\n      dup4\n        /* \"#utility.yul\":15265:15282   */\n      add\n        /* \"#utility.yul\":15256:15262   */\n      dup13\n        /* \"#utility.yul\":15212:15283   */\n      tag_176\n      jump\t// in\n    tag_368:\n        /* \"#utility.yul\":15330:15339   */\n      dup2\n        /* \"#utility.yul\":15324:15328   */\n      dup2\n        /* \"#utility.yul\":15320:15340   */\n      sub\n        /* \"#utility.yul\":15315:15317   */\n      0x20\n        /* \"#utility.yul\":15304:15313   */\n      dup4\n        /* \"#utility.yul\":15300:15318   */\n      add\n        /* \"#utility.yul\":15293:15341   */\n      mstore\n        /* \"#utility.yul\":15358:15446   */\n      tag_369\n        /* \"#utility.yul\":15441:15445   */\n      dup2\n        /* \"#utility.yul\":15432:15438   */\n      dup11\n        /* \"#utility.yul\":15424:15430   */\n      dup13\n        /* \"#utility.yul\":15358:15446   */\n      tag_177\n      jump\t// in\n    tag_369:\n        /* \"#utility.yul\":15350:15446   */\n      swap1\n      pop\n        /* \"#utility.yul\":15493:15502   */\n      dup2\n        /* \"#utility.yul\":15487:15491   */\n      dup2\n        /* \"#utility.yul\":15483:15503   */\n      sub\n        /* \"#utility.yul\":15478:15480   */\n      0x40\n        /* \"#utility.yul\":15467:15476   */\n      dup4\n        /* \"#utility.yul\":15463:15481   */\n      add\n        /* \"#utility.yul\":15456:15504   */\n      mstore\n        /* \"#utility.yul\":15521:15609   */\n      tag_370\n        /* \"#utility.yul\":15604:15608   */\n      dup2\n        /* \"#utility.yul\":15595:15601   */\n      dup9\n        /* \"#utility.yul\":15587:15593   */\n      dup11\n        /* \"#utility.yul\":15521:15609   */\n      tag_177\n      jump\t// in\n    tag_370:\n        /* \"#utility.yul\":15513:15609   */\n      swap1\n      pop\n        /* \"#utility.yul\":15619:15691   */\n      tag_371\n        /* \"#utility.yul\":15687:15689   */\n      0x60\n        /* \"#utility.yul\":15676:15685   */\n      dup4\n        /* \"#utility.yul\":15672:15690   */\n      add\n        /* \"#utility.yul\":15663:15669   */\n      dup8\n        /* \"#utility.yul\":15619:15691   */\n      tag_176\n      jump\t// in\n    tag_371:\n        /* \"#utility.yul\":15739:15748   */\n      dup2\n        /* \"#utility.yul\":15733:15737   */\n      dup2\n        /* \"#utility.yul\":15729:15749   */\n      sub\n        /* \"#utility.yul\":15723:15726   */\n      0x80\n        /* \"#utility.yul\":15712:15721   */\n      dup4\n        /* \"#utility.yul\":15708:15727   */\n      add\n        /* \"#utility.yul\":15701:15750   */\n      mstore\n        /* \"#utility.yul\":15767:15855   */\n      tag_372\n        /* \"#utility.yul\":15850:15854   */\n      dup2\n        /* \"#utility.yul\":15841:15847   */\n      dup6\n        /* \"#utility.yul\":15833:15839   */\n      dup8\n        /* \"#utility.yul\":15767:15855   */\n      tag_177\n      jump\t// in\n    tag_372:\n        /* \"#utility.yul\":15759:15855   */\n      swap1\n      pop\n        /* \"#utility.yul\":15865:15938   */\n      tag_373\n        /* \"#utility.yul\":15933:15936   */\n      0xa0\n        /* \"#utility.yul\":15922:15931   */\n      dup4\n        /* \"#utility.yul\":15918:15937   */\n      add\n        /* \"#utility.yul\":15909:15915   */\n      dup5\n        /* \"#utility.yul\":15865:15938   */\n      tag_178\n      jump\t// in\n    tag_373:\n        /* \"#utility.yul\":14837:15945   */\n      swap11\n      swap10\n      pop\n      pop\n      pop\n      pop\n      pop\n      pop\n      pop\n      pop\n      pop\n      pop\n      jump\t// out\n        /* \"#utility.yul\":15951:16041   */\n    tag_179:\n        /* \"#utility.yul\":15985:15992   */\n      0x00\n        /* \"#utility.yul\":16028:16033   */\n      dup2\n        /* \"#utility.yul\":16021:16034   */\n      iszero\n        /* \"#utility.yul\":16014:16035   */\n      iszero\n        /* \"#utility.yul\":16003:16035   */\n      swap1\n      pop\n        /* \"#utility.yul\":15951:16041   */\n      swap2\n      swap1\n      pop\n      jump\t// out\n        /* \"#utility.yul\":16047:16163   */\n    tag_180:\n        /* \"#utility.yul\":16117:16138   */\n      tag_376\n        /* \"#utility.yul\":16132:16137   */\n      dup2\n        /* \"#utility.yul\":16117:16138   */\n      tag_179\n      jump\t// in\n    tag_376:\n        /* \"#utility.yul\":16110:16115   */\n      dup2\n        /* \"#utility.yul\":16107:16139   */\n      eq\n        /* \"#utility.yul\":16097:16157   */\n      tag_377\n      jumpi\n        /* \"#utility.yul\":16153:16154   */\n      0x00\n        /* \"#utility.yul\":16150:16151   */\n      dup1\n        /* \"#utility.yul\":16143:16155   */\n      revert\n        /* \"#utility.yul\":16097:16157   */\n    tag_377:\n        /* \"#utility.yul\":16047:16163   */\n      pop\n      jump\t// out\n        /* \"#utility.yul\":16169:16306   */\n    tag_181:\n        /* \"#utility.yul\":16223:16228   */\n      0x00\n        /* \"#utility.yul\":16254:16260   */\n      dup2\n        /* \"#utility.yul\":16248:16261   */\n      mload\n        /* \"#utility.yul\":16239:16261   */\n      swap1\n      pop\n        /* \"#utility.yul\":16270:16300   */\n      tag_379\n        /* \"#utility.yul\":16294:16299   */\n      dup2\n        /* \"#utility.yul\":16270:16300   */\n      tag_180\n      jump\t// in\n    tag_379:\n        /* \"#utility.yul\":16169:16306   */\n      swap3\n      swap2\n      pop\n      pop\n      jump\t// out\n        /* \"#utility.yul\":16312:16657   */\n    tag_60:\n        /* \"#utility.yul\":16379:16385   */\n      0x00\n        /* \"#utility.yul\":16428:16430   */\n      0x20\n        /* \"#utility.yul\":16416:16425   */\n      dup3\n        /* \"#utility.yul\":16407:16414   */\n      dup5\n        /* \"#utility.yul\":16403:16426   */\n      sub\n        /* \"#utility.yul\":16399:16431   */\n      slt\n        /* \"#utility.yul\":16396:16515   */\n      iszero\n      tag_381\n      jumpi\n        /* \"#utility.yul\":16434:16513   */\n      tag_382\n      tag_143\n      jump\t// in\n    tag_382:\n        /* \"#utility.yul\":16396:16515   */\n    tag_381:\n        /* \"#utility.yul\":16554:16555   */\n      0x00\n        /* \"#utility.yul\":16579:16640   */\n      tag_383\n        /* \"#utility.yul\":16632:16639   */\n      dup5\n        /* \"#utility.yul\":16623:16629   */\n      dup3\n        /* \"#utility.yul\":16612:16621   */\n      dup6\n        /* \"#utility.yul\":16608:16630   */\n      add\n        /* \"#utility.yul\":16579:16640   */\n      tag_181\n      jump\t// in\n    tag_383:\n        /* \"#utility.yul\":16569:16640   */\n      swap2\n      pop\n        /* \"#utility.yul\":16525:16650   */\n      pop\n        /* \"#utility.yul\":16312:16657   */\n      swap3\n      swap2\n      pop\n      pop\n      jump\t// out\n        /* \"#utility.yul\":16663:17438   */\n    tag_67:\n        /* \"#utility.yul\":16900:16904   */\n      0x00\n        /* \"#utility.yul\":16938:16941   */\n      0x80\n        /* \"#utility.yul\":16927:16936   */\n      dup3\n        /* \"#utility.yul\":16923:16942   */\n      add\n        /* \"#utility.yul\":16915:16942   */\n      swap1\n      pop\n        /* \"#utility.yul\":16952:17023   */\n      tag_385\n        /* \"#utility.yul\":17020:17021   */\n      0x00\n        /* \"#utility.yul\":17009:17018   */\n      dup4\n        /* \"#utility.yul\":17005:17022   */\n      add\n        /* \"#utility.yul\":16996:17002   */\n      dup10\n        /* \"#utility.yul\":16952:17023   */\n      tag_176\n      jump\t// in\n    tag_385:\n        /* \"#utility.yul\":17070:17079   */\n      dup2\n        /* \"#utility.yul\":17064:17068   */\n      dup2\n        /* \"#utility.yul\":17060:17080   */\n      sub\n        /* \"#utility.yul\":17055:17057   */\n      0x20\n        /* \"#utility.yul\":17044:17053   */\n      dup4\n        /* \"#utility.yul\":17040:17058   */\n      add\n        /* \"#utility.yul\":17033:17081   */\n      mstore\n        /* \"#utility.yul\":17098:17186   */\n      tag_386\n        /* \"#utility.yul\":17181:17185   */\n      dup2\n        /* \"#utility.yul\":17172:17178   */\n      dup8\n        /* \"#utility.yul\":17164:17170   */\n      dup10\n        /* \"#utility.yul\":17098:17186   */\n      tag_177\n      jump\t// in\n    tag_386:\n        /* \"#utility.yul\":17090:17186   */\n      swap1\n      pop\n        /* \"#utility.yul\":17233:17242   */\n      dup2\n        /* \"#utility.yul\":17227:17231   */\n      dup2\n        /* \"#utility.yul\":17223:17243   */\n      sub\n        /* \"#utility.yul\":17218:17220   */\n      0x40\n        /* \"#utility.yul\":17207:17216   */\n      dup4\n        /* \"#utility.yul\":17203:17221   */\n      add\n        /* \"#utility.yul\":17196:17244   */\n      mstore\n        /* \"#utility.yul\":17261:17349   */\n      tag_387\n        /* \"#utility.yul\":17344:17348   */\n      dup2\n        /* \"#utility.yul\":17335:17341   */\n      dup6\n        /* \"#utility.yul\":17327:17333   */\n      dup8\n        /* \"#utility.yul\":17261:17349   */\n      tag_177\n      jump\t// in\n    tag_387:\n        /* \"#utility.yul\":17253:17349   */\n      swap1\n      pop\n        /* \"#utility.yul\":17359:17431   */\n      tag_388\n        /* \"#utility.yul\":17427:17429   */\n      0x60\n        /* \"#utility.yul\":17416:17425   */\n      dup4\n        /* \"#utility.yul\":17412:17430   */\n      add\n        /* \"#utility.yul\":17403:17409   */\n      dup5\n        /* \"#utility.yul\":17359:17431   */\n      tag_176\n      jump\t// in\n    tag_388:\n        /* \"#utility.yul\":16663:17438   */\n      swap8\n      swap7\n      pop\n      pop\n      pop\n      pop\n      pop\n      pop\n      pop\n      jump\t// out\n        /* \"#utility.yul\":17444:17624   */\n    tag_182:\n        /* \"#utility.yul\":17492:17569   */\n      0x4e487b7100000000000000000000000000000000000000000000000000000000\n        /* \"#utility.yul\":17489:17490   */\n      0x00\n        /* \"#utility.yul\":17482:17570   */\n      mstore\n        /* \"#utility.yul\":17589:17593   */\n      0x22\n        /* \"#utility.yul\":17586:17587   */\n      0x04\n        /* \"#utility.yul\":17579:17594   */\n      mstore\n        /* \"#utility.yul\":17613:17617   */\n      0x24\n        /* \"#utility.yul\":17610:17611   */\n      0x00\n        /* \"#utility.yul\":17603:17618   */\n      revert\n        /* \"#utility.yul\":17630:17950   */\n    tag_75:\n        /* \"#utility.yul\":17674:17680   */\n      0x00\n        /* \"#utility.yul\":17711:17712   */\n      0x02\n        /* \"#utility.yul\":17705:17709   */\n      dup3\n        /* \"#utility.yul\":17701:17713   */\n      div\n        /* \"#utility.yul\":17691:17713   */\n      swap1\n      pop\n        /* \"#utility.yul\":17758:17759   */\n      0x01\n        /* \"#utility.yul\":17752:17756   */\n      dup3\n        /* \"#utility.yul\":17748:17760   */\n      and\n        /* \"#utility.yul\":17779:17797   */\n      dup1\n        /* \"#utility.yul\":17769:17850   */\n      tag_391\n      jumpi\n        /* \"#utility.yul\":17835:17839   */\n      0x7f\n        /* \"#utility.yul\":17827:17833   */\n      dup3\n        /* \"#utility.yul\":17823:17840   */\n      and\n        /* \"#utility.yul\":17813:17840   */\n      swap2\n      pop\n        /* \"#utility.yul\":17769:17850   */\n    tag_391:\n        /* \"#utility.yul\":17897:17899   */\n      0x20\n        /* \"#utility.yul\":17889:17895   */\n      dup3\n        /* \"#utility.yul\":17886:17900   */\n      lt\n        /* \"#utility.yul\":17866:17884   */\n      dup2\n        /* \"#utility.yul\":17863:17901   */\n      sub\n        /* \"#utility.yul\":17860:17944   */\n      tag_392\n      jumpi\n        /* \"#utility.yul\":17916:17934   */\n      tag_393\n      tag_182\n      jump\t// in\n    tag_393:\n        /* \"#utility.yul\":17860:17944   */\n    tag_392:\n        /* \"#utility.yul\":17681:17950   */\n      pop\n        /* \"#utility.yul\":17630:17950   */\n      swap2\n      swap1\n      pop\n      jump\t// out\n        /* \"#utility.yul\":17956:18470   */\n    tag_89:\n        /* \"#utility.yul\":18117:18121   */\n      0x00\n        /* \"#utility.yul\":18155:18157   */\n      0x40\n        /* \"#utility.yul\":18144:18153   */\n      dup3\n        /* \"#utility.yul\":18140:18158   */\n      add\n        /* \"#utility.yul\":18132:18158   */\n      swap1\n      pop\n        /* \"#utility.yul\":18204:18213   */\n      dup2\n        /* \"#utility.yul\":18198:18202   */\n      dup2\n        /* \"#utility.yul\":18194:18214   */\n      sub\n        /* \"#utility.yul\":18190:18191   */\n      0x00\n        /* \"#utility.yul\":18179:18188   */\n      dup4\n        /* \"#utility.yul\":18175:18192   */\n      add\n        /* \"#utility.yul\":18168:18215   */\n      mstore\n        /* \"#utility.yul\":18232:18310   */\n      tag_395\n        /* \"#utility.yul\":18305:18309   */\n      dup2\n        /* \"#utility.yul\":18296:18302   */\n      dup6\n        /* \"#utility.yul\":18232:18310   */\n      tag_163\n      jump\t// in\n    tag_395:\n        /* \"#utility.yul\":18224:18310   */\n      swap1\n      pop\n        /* \"#utility.yul\":18357:18366   */\n      dup2\n        /* \"#utility.yul\":18351:18355   */\n      dup2\n        /* \"#utility.yul\":18347:18367   */\n      sub\n        /* \"#utility.yul\":18342:18344   */\n      0x20\n        /* \"#utility.yul\":18331:18340   */\n      dup4\n        /* \"#utility.yul\":18327:18345   */\n      add\n        /* \"#utility.yul\":18320:18368   */\n      mstore\n        /* \"#utility.yul\":18385:18463   */\n      tag_396\n        /* \"#utility.yul\":18458:18462   */\n      dup2\n        /* \"#utility.yul\":18449:18455   */\n      dup5\n        /* \"#utility.yul\":18385:18463   */\n      tag_163\n      jump\t// in\n    tag_396:\n        /* \"#utility.yul\":18377:18463   */\n      swap1\n      pop\n        /* \"#utility.yul\":17956:18470   */\n      swap4\n      swap3\n      pop\n      pop\n      pop\n      jump\t// out\n        /* \"#utility.yul\":18476:18594   */\n    tag_183:\n        /* \"#utility.yul\":18563:18587   */\n      tag_398\n        /* \"#utility.yul\":18581:18586   */\n      dup2\n        /* \"#utility.yul\":18563:18587   */\n      tag_156\n      jump\t// in\n    tag_398:\n        /* \"#utility.yul\":18558:18561   */\n      dup3\n        /* \"#utility.yul\":18551:18588   */\n      mstore\n        /* \"#utility.yul\":18476:18594   */\n      pop\n      pop\n      jump\t// out\n        /* \"#utility.yul\":18600:18698   */\n    tag_184:\n        /* \"#utility.yul\":18651:18657   */\n      0x00\n        /* \"#utility.yul\":18685:18690   */\n      dup2\n        /* \"#utility.yul\":18679:18691   */\n      mload\n        /* \"#utility.yul\":18669:18691   */\n      swap1\n      pop\n        /* \"#utility.yul\":18600:18698   */\n      swap2\n      swap1\n      pop\n      jump\t// out\n        /* \"#utility.yul\":18704:18872   */\n    tag_185:\n        /* \"#utility.yul\":18787:18798   */\n      0x00\n        /* \"#utility.yul\":18821:18827   */\n      dup3\n        /* \"#utility.yul\":18816:18819   */\n      dup3\n        /* \"#utility.yul\":18809:18828   */\n      mstore\n        /* \"#utility.yul\":18861:18865   */\n      0x20\n        /* \"#utility.yul\":18856:18859   */\n      dup3\n        /* \"#utility.yul\":18852:18866   */\n      add\n        /* \"#utility.yul\":18837:18866   */\n      swap1\n      pop\n        /* \"#utility.yul\":18704:18872   */\n      swap3\n      swap2\n      pop\n      pop\n      jump\t// out\n        /* \"#utility.yul\":18878:19251   */\n    tag_186:\n        /* \"#utility.yul\":18964:18967   */\n      0x00\n        /* \"#utility.yul\":18992:19030   */\n      tag_402\n        /* \"#utility.yul\":19024:19029   */\n      dup3\n        /* \"#utility.yul\":18992:19030   */\n      tag_184\n      jump\t// in\n    tag_402:\n        /* \"#utility.yul\":19046:19116   */\n      tag_403\n        /* \"#utility.yul\":19109:19115   */\n      dup2\n        /* \"#utility.yul\":19104:19107   */\n      dup6\n        /* \"#utility.yul\":19046:19116   */\n      tag_185\n      jump\t// in\n    tag_403:\n        /* \"#utility.yul\":19039:19116   */\n      swap4\n      pop\n        /* \"#utility.yul\":19125:19190   */\n      tag_404\n        /* \"#utility.yul\":19183:19189   */\n      dup2\n        /* \"#utility.yul\":19178:19181   */\n      dup6\n        /* \"#utility.yul\":19171:19175   */\n      0x20\n        /* \"#utility.yul\":19164:19169   */\n      dup7\n        /* \"#utility.yul\":19160:19176   */\n      add\n        /* \"#utility.yul\":19125:19190   */\n      tag_161\n      jump\t// in\n    tag_404:\n        /* \"#utility.yul\":19215:19244   */\n      tag_405\n        /* \"#utility.yul\":19237:19243   */\n      dup2\n        /* \"#utility.yul\":19215:19244   */\n      tag_162\n      jump\t// in\n    tag_405:\n        /* \"#utility.yul\":19210:19213   */\n      dup5\n        /* \"#utility.yul\":19206:19245   */\n      add\n        /* \"#utility.yul\":19199:19245   */\n      swap2\n      pop\n        /* \"#utility.yul\":18968:19251   */\n      pop\n        /* \"#utility.yul\":18878:19251   */\n      swap3\n      swap2\n      pop\n      pop\n      jump\t// out\n        /* \"#utility.yul\":19257:20190   */\n    tag_92:\n        /* \"#utility.yul\":19520:19524   */\n      0x00\n        /* \"#utility.yul\":19558:19561   */\n      0xa0\n        /* \"#utility.yul\":19547:19556   */\n      dup3\n        /* \"#utility.yul\":19543:19562   */\n      add\n        /* \"#utility.yul\":19535:19562   */\n      swap1\n      pop\n        /* \"#utility.yul\":19572:19643   */\n      tag_407\n        /* \"#utility.yul\":19640:19641   */\n      0x00\n        /* \"#utility.yul\":19629:19638   */\n      dup4\n        /* \"#utility.yul\":19625:19642   */\n      add\n        /* \"#utility.yul\":19616:19622   */\n      dup9\n        /* \"#utility.yul\":19572:19643   */\n      tag_183\n      jump\t// in\n    tag_407:\n        /* \"#utility.yul\":19690:19699   */\n      dup2\n        /* \"#utility.yul\":19684:19688   */\n      dup2\n        /* \"#utility.yul\":19680:19700   */\n      sub\n        /* \"#utility.yul\":19675:19677   */\n      0x20\n        /* \"#utility.yul\":19664:19673   */\n      dup4\n        /* \"#utility.yul\":19660:19678   */\n      add\n        /* \"#utility.yul\":19653:19701   */\n      mstore\n        /* \"#utility.yul\":19718:19796   */\n      tag_408\n        /* \"#utility.yul\":19791:19795   */\n      dup2\n        /* \"#utility.yul\":19782:19788   */\n      dup8\n        /* \"#utility.yul\":19718:19796   */\n      tag_163\n      jump\t// in\n    tag_408:\n        /* \"#utility.yul\":19710:19796   */\n      swap1\n      pop\n        /* \"#utility.yul\":19843:19852   */\n      dup2\n        /* \"#utility.yul\":19837:19841   */\n      dup2\n        /* \"#utility.yul\":19833:19853   */\n      sub\n        /* \"#utility.yul\":19828:19830   */\n      0x40\n        /* \"#utility.yul\":19817:19826   */\n      dup4\n        /* \"#utility.yul\":19813:19831   */\n      add\n        /* \"#utility.yul\":19806:19854   */\n      mstore\n        /* \"#utility.yul\":19871:19949   */\n      tag_409\n        /* \"#utility.yul\":19944:19948   */\n      dup2\n        /* \"#utility.yul\":19935:19941   */\n      dup7\n        /* \"#utility.yul\":19871:19949   */\n      tag_163\n      jump\t// in\n    tag_409:\n        /* \"#utility.yul\":19863:19949   */\n      swap1\n      pop\n        /* \"#utility.yul\":19996:20005   */\n      dup2\n        /* \"#utility.yul\":19990:19994   */\n      dup2\n        /* \"#utility.yul\":19986:20006   */\n      sub\n        /* \"#utility.yul\":19981:19983   */\n      0x60\n        /* \"#utility.yul\":19970:19979   */\n      dup4\n        /* \"#utility.yul\":19966:19984   */\n      add\n        /* \"#utility.yul\":19959:20007   */\n      mstore\n        /* \"#utility.yul\":20024:20100   */\n      tag_410\n        /* \"#utility.yul\":20095:20099   */\n      dup2\n        /* \"#utility.yul\":20086:20092   */\n      dup6\n        /* \"#utility.yul\":20024:20100   */\n      tag_186\n      jump\t// in\n    tag_410:\n        /* \"#utility.yul\":20016:20100   */\n      swap1\n      pop\n        /* \"#utility.yul\":20110:20183   */\n      tag_411\n        /* \"#utility.yul\":20178:20181   */\n      0x80\n        /* \"#utility.yul\":20167:20176   */\n      dup4\n        /* \"#utility.yul\":20163:20182   */\n      add\n        /* \"#utility.yul\":20154:20160   */\n      dup5\n        /* \"#utility.yul\":20110:20183   */\n      tag_183\n      jump\t// in\n    tag_411:\n        /* \"#utility.yul\":19257:20190   */\n      swap7\n      swap6\n      pop\n      pop\n      pop\n      pop\n      pop\n      pop\n      jump\t// out\n        /* \"#utility.yul\":20196:20907   */\n    tag_97:\n        /* \"#utility.yul\":20403:20407   */\n      0x00\n        /* \"#utility.yul\":20441:20443   */\n      0x60\n        /* \"#utility.yul\":20430:20439   */\n      dup3\n        /* \"#utility.yul\":20426:20444   */\n      add\n        /* \"#utility.yul\":20418:20444   */\n      swap1\n      pop\n        /* \"#utility.yul\":20490:20499   */\n      dup2\n        /* \"#utility.yul\":20484:20488   */\n      dup2\n        /* \"#utility.yul\":20480:20500   */\n      sub\n        /* \"#utility.yul\":20476:20477   */\n      0x00\n        /* \"#utility.yul\":20465:20474   */\n      dup4\n        /* \"#utility.yul\":20461:20478   */\n      add\n        /* \"#utility.yul\":20454:20501   */\n      mstore\n        /* \"#utility.yul\":20518:20596   */\n      tag_413\n        /* \"#utility.yul\":20591:20595   */\n      dup2\n        /* \"#utility.yul\":20582:20588   */\n      dup7\n        /* \"#utility.yul\":20518:20596   */\n      tag_163\n      jump\t// in\n    tag_413:\n        /* \"#utility.yul\":20510:20596   */\n      swap1\n      pop\n        /* \"#utility.yul\":20643:20652   */\n      dup2\n        /* \"#utility.yul\":20637:20641   */\n      dup2\n        /* \"#utility.yul\":20633:20653   */\n      sub\n        /* \"#utility.yul\":20628:20630   */\n      0x20\n        /* \"#utility.yul\":20617:20626   */\n      dup4\n        /* \"#utility.yul\":20613:20631   */\n      add\n        /* \"#utility.yul\":20606:20654   */\n      mstore\n        /* \"#utility.yul\":20671:20749   */\n      tag_414\n        /* \"#utility.yul\":20744:20748   */\n      dup2\n        /* \"#utility.yul\":20735:20741   */\n      dup6\n        /* \"#utility.yul\":20671:20749   */\n      tag_163\n      jump\t// in\n    tag_414:\n        /* \"#utility.yul\":20663:20749   */\n      swap1\n      pop\n        /* \"#utility.yul\":20796:20805   */\n      dup2\n        /* \"#utility.yul\":20790:20794   */\n      dup2\n        /* \"#utility.yul\":20786:20806   */\n      sub\n        /* \"#utility.yul\":20781:20783   */\n      0x40\n        /* \"#utility.yul\":20770:20779   */\n      dup4\n        /* \"#utility.yul\":20766:20784   */\n      add\n        /* \"#utility.yul\":20759:20807   */\n      mstore\n        /* \"#utility.yul\":20824:20900   */\n      tag_415\n        /* \"#utility.yul\":20895:20899   */\n      dup2\n        /* \"#utility.yul\":20886:20892   */\n      dup5\n        /* \"#utility.yul\":20824:20900   */\n      tag_186\n      jump\t// in\n    tag_415:\n        /* \"#utility.yul\":20816:20900   */\n      swap1\n      pop\n        /* \"#utility.yul\":20196:20907   */\n      swap5\n      swap4\n      pop\n      pop\n      pop\n      pop\n      jump\t// out\n        /* \"#utility.yul\":20913:21054   */\n    tag_187:\n        /* \"#utility.yul\":20962:20966   */\n      0x00\n        /* \"#utility.yul\":20985:20988   */\n      dup2\n        /* \"#utility.yul\":20977:20988   */\n      swap1\n      pop\n        /* \"#utility.yul\":21008:21011   */\n      dup2\n        /* \"#utility.yul\":21005:21006   */\n      0x00\n        /* \"#utility.yul\":20998:21012   */\n      mstore\n        /* \"#utility.yul\":21042:21046   */\n      0x20\n        /* \"#utility.yul\":21039:21040   */\n      0x00\n        /* \"#utility.yul\":21029:21047   */\n      keccak256\n        /* \"#utility.yul\":21021:21047   */\n      swap1\n      pop\n        /* \"#utility.yul\":20913:21054   */\n      swap2\n      swap1\n      pop\n      jump\t// out\n        /* \"#utility.yul\":21060:21153   */\n    tag_188:\n        /* \"#utility.yul\":21097:21103   */\n      0x00\n        /* \"#utility.yul\":21144:21146   */\n      0x20\n        /* \"#utility.yul\":21139:21141   */\n      0x1f\n        /* \"#utility.yul\":21132:21137   */\n      dup4\n        /* \"#utility.yul\":21128:21142   */\n      add\n        /* \"#utility.yul\":21124:21147   */\n      div\n        /* \"#utility.yul\":21114:21147   */\n      swap1\n      pop\n        /* \"#utility.yul\":21060:21153   */\n      swap2\n      swap1\n      pop\n      jump\t// out\n        /* \"#utility.yul\":21159:21266   */\n    tag_189:\n        /* \"#utility.yul\":21203:21211   */\n      0x00\n        /* \"#utility.yul\":21253:21258   */\n      dup3\n        /* \"#utility.yul\":21247:21251   */\n      dup3\n        /* \"#utility.yul\":21243:21259   */\n      shl\n        /* \"#utility.yul\":21222:21259   */\n      swap1\n      pop\n        /* \"#utility.yul\":21159:21266   */\n      swap3\n      swap2\n      pop\n      pop\n      jump\t// out\n        /* \"#utility.yul\":21272:21665   */\n    tag_190:\n        /* \"#utility.yul\":21341:21347   */\n      0x00\n        /* \"#utility.yul\":21391:21392   */\n      0x08\n        /* \"#utility.yul\":21379:21389   */\n      dup4\n        /* \"#utility.yul\":21375:21393   */\n      mul\n        /* \"#utility.yul\":21414:21511   */\n      tag_420\n        /* \"#utility.yul\":21444:21510   */\n      0xffffffffffffffffffffffffffffffffffffffffffffffffffffffffffffffff\n        /* \"#utility.yul\":21433:21442   */\n      dup3\n        /* \"#utility.yul\":21414:21511   */\n      tag_189\n      jump\t// in\n    tag_420:\n        /* \"#utility.yul\":21532:21571   */\n      tag_421\n        /* \"#utility.yul\":21562:21570   */\n      dup7\n        /* \"#utility.yul\":21551:21560   */\n      dup4\n        /* \"#utility.yul\":21532:21571   */\n      tag_189\n      jump\t// in\n    tag_421:\n        /* \"#utility.yul\":21520:21571   */\n      swap6\n      pop\n        /* \"#utility.yul\":21604:21608   */\n      dup1\n        /* \"#utility.yul\":21600:21609   */\n      not\n        /* \"#utility.yul\":21593:21598   */\n      dup5\n        /* \"#utility.yul\":21589:21610   */\n      and\n        /* \"#utility.yul\":21580:21610   */\n      swap4\n      pop\n        /* \"#utility.yul\":21653:21657   */\n      dup1\n        /* \"#utility.yul\":21643:21651   */\n      dup7\n        /* \"#utility.yul\":21639:21658   */\n      and\n        /* \"#utility.yul\":21632:21637   */\n      dup5\n        /* \"#utility.yul\":21629:21659   */\n      or\n        /* \"#utility.yul\":21619:21659   */\n      swap3\n      pop\n        /* \"#utility.yul\":21348:21665   */\n      pop\n      pop\n        /* \"#utility.yul\":21272:21665   */\n      swap4\n      swap3\n      pop\n      pop\n      pop\n      jump\t// out\n        /* \"#utility.yul\":21671:21813   */\n    tag_191:\n        /* \"#utility.yul\":21721:21730   */\n      0x00\n        /* \"#utility.yul\":21754:21807   */\n      tag_423\n        /* \"#utility.yul\":21772:21806   */\n      tag_424\n        /* \"#utility.yul\":21781:21805   */\n      tag_425\n        /* \"#utility.yul\":21799:21804   */\n      dup5\n        /* \"#utility.yul\":21781:21805   */\n      tag_153\n      jump\t// in\n    tag_425:\n        /* \"#utility.yul\":21772:21806   */\n      tag_137\n      jump\t// in\n    tag_424:\n        /* \"#utility.yul\":21754:21807   */\n      tag_153\n      jump\t// in\n    tag_423:\n        /* \"#utility.yul\":21741:21807   */\n      swap1\n      pop\n        /* \"#utility.yul\":21671:21813   */\n      swap2\n      swap1\n      pop\n      jump\t// out\n        /* \"#utility.yul\":21819:21894   */\n    tag_192:\n        /* \"#utility.yul\":21862:21865   */\n      0x00\n        /* \"#utility.yul\":21883:21888   */\n      dup2\n        /* \"#utility.yul\":21876:21888   */\n      swap1\n      pop\n        /* \"#utility.yul\":21819:21894   */\n      swap2\n      swap1\n      pop\n      jump\t// out\n        /* \"#utility.yul\":21900:22169   */\n    tag_193:\n        /* \"#utility.yul\":22010:22049   */\n      tag_428\n        /* \"#utility.yul\":22041:22048   */\n      dup4\n        /* \"#utility.yul\":22010:22049   */\n      tag_191\n      jump\t// in\n    tag_428:\n        /* \"#utility.yul\":22071:22162   */\n      tag_429\n        /* \"#utility.yul\":22120:22161   */\n      tag_430\n        /* \"#utility.yul\":22144:22160   */\n      dup3\n        /* \"#utility.yul\":22120:22161   */\n      tag_192\n      jump\t// in\n    tag_430:\n        /* \"#utility.yul\":22112:22118   */\n      dup5\n        /* \"#utility.yul\":22105:22109   */\n      dup5\n        /* \"#utility.yul\":22099:22110   */\n      sload\n        /* \"#utility.yul\":22071:22162   */\n      tag_190\n      jump\t// in\n    tag_429:\n        /* \"#utility.yul\":22065:22069   */\n      dup3\n        /* \"#utility.yul\":22058:22163   */\n      sstore\n        /* \"#utility.yul\":21976:22169   */\n      pop\n        /* \"#utility.yul\":21900:22169   */\n      pop\n      pop\n      pop\n      jump\t// out\n        /* \"#utility.yul\":22175:22248   */\n    tag_194:\n        /* \"#utility.yul\":22220:22223   */\n      0x00\n        /* \"#utility.yul\":22175:22248   */\n      swap1\n      jump\t// out\n        /* \"#utility.yul\":22254:22443   */\n    tag_195:\n        /* \"#utility.yul\":22331:22363   */\n      tag_433\n      tag_194\n      jump\t// in\n    tag_433:\n        /* \"#utility.yul\":22372:22437   */\n      tag_434\n        /* \"#utility.yul\":22430:22436   */\n      dup2\n        /* \"#utility.yul\":22422:22428   */\n      dup5\n        /* \"#utility.yul\":22416:22420   */\n      dup5\n        /* \"#utility.yul\":22372:22437   */\n      tag_193\n      jump\t// in\n    tag_434:\n        /* \"#utility.yul\":22307:22443   */\n      pop\n        /* \"#utility.yul\":22254:22443   */\n      pop\n      pop\n      jump\t// out\n        /* \"#utility.yul\":22449:22635   */\n    tag_196:\n        /* \"#utility.yul\":22509:22629   */\n    tag_436:\n        /* \"#utility.yul\":22526:22529   */\n      dup2\n        /* \"#utility.yul\":22519:22524   */\n      dup2\n        /* \"#utility.yul\":22516:22530   */\n      lt\n        /* \"#utility.yul\":22509:22629   */\n      iszero\n      tag_438\n      jumpi\n        /* \"#utility.yul\":22580:22619   */\n      tag_439\n        /* \"#utility.yul\":22617:22618   */\n      0x00\n        /* \"#utility.yul\":22610:22615   */\n      dup3\n        /* \"#utility.yul\":22580:22619   */\n      tag_195\n      jump\t// in\n    tag_439:\n        /* \"#utility.yul\":22553:22554   */\n      0x01\n        /* \"#utility.yul\":22546:22551   */\n      dup2\n        /* \"#utility.yul\":22542:22555   */\n      add\n        /* \"#utility.yul\":22533:22555   */\n      swap1\n      pop\n        /* \"#utility.yul\":22509:22629   */\n      jump(tag_436)\n    tag_438:\n        /* \"#utility.yul\":22449:22635   */\n      pop\n      pop\n      jump\t// out\n        /* \"#utility.yul\":22641:23184   */\n    tag_197:\n        /* \"#utility.yul\":22742:22744   */\n      0x1f\n        /* \"#utility.yul\":22737:22740   */\n      dup3\n        /* \"#utility.yul\":22734:22745   */\n      gt\n        /* \"#utility.yul\":22731:23177   */\n      iszero\n      tag_441\n      jumpi\n        /* \"#utility.yul\":22776:22814   */\n      tag_442\n        /* \"#utility.yul\":22808:22813   */\n      dup2\n        /* \"#utility.yul\":22776:22814   */\n      tag_187\n      jump\t// in\n    tag_442:\n        /* \"#utility.yul\":22860:22889   */\n      tag_443\n        /* \"#utility.yul\":22878:22888   */\n      dup5\n        /* \"#utility.yul\":22860:22889   */\n      tag_188\n      jump\t// in\n    tag_443:\n        /* \"#utility.yul\":22850:22858   */\n      dup2\n        /* \"#utility.yul\":22846:22890   */\n      add\n        /* \"#utility.yul\":23043:23045   */\n      0x20\n        /* \"#utility.yul\":23031:23041   */\n      dup6\n        /* \"#utility.yul\":23028:23046   */\n      lt\n        /* \"#utility.yul\":23025:23074   */\n      iszero\n      tag_444\n      jumpi\n        /* \"#utility.yul\":23064:23072   */\n      dup2\n        /* \"#utility.yul\":23049:23072   */\n      swap1\n      pop\n        /* \"#utility.yul\":23025:23074   */\n    tag_444:\n        /* \"#utility.yul\":23087:23167   */\n      tag_445\n        /* \"#utility.yul\":23143:23165   */\n      tag_446\n        /* \"#utility.yul\":23161:23164   */\n      dup6\n        /* \"#utility.yul\":23143:23165   */\n      tag_188\n      jump\t// in\n    tag_446:\n        /* \"#utility.yul\":23133:23141   */\n      dup4\n        /* \"#utility.yul\":23129:23166   */\n      add\n        /* \"#utility.yul\":23116:23127   */\n      dup3\n        /* \"#utility.yul\":23087:23167   */\n      tag_196\n      jump\t// in\n    tag_445:\n        /* \"#utility.yul\":22746:23177   */\n      pop\n      pop\n        /* \"#utility.yul\":22731:23177   */\n    tag_441:\n        /* \"#utility.yul\":22641:23184   */\n      pop\n      pop\n      pop\n      jump\t// out\n        /* \"#utility.yul\":23190:23307   */\n    tag_198:\n        /* \"#utility.yul\":23244:23252   */\n      0x00\n        /* \"#utility.yul\":23294:23299   */\n      dup3\n        /* \"#utility.yul\":23288:23292   */\n      dup3\n        /* \"#utility.yul\":23284:23300   */\n      shr\n        /* \"#utility.yul\":23263:23300   */\n      swap1\n      pop\n        /* \"#utility.yul\":23190:23307   */\n      swap3\n      swap2\n      pop\n      pop\n      jump\t// out\n        /* \"#utility.yul\":23313:23482   */\n    tag_199:\n        /* \"#utility.yul\":23357:23363   */\n      0x00\n        /* \"#utility.yul\":23390:23441   */\n      tag_449\n        /* \"#utility.yul\":23438:23439   */\n      0x00\n        /* \"#utility.yul\":23434:23440   */\n      not\n        /* \"#utility.yul\":23426:23431   */\n      dup5\n        /* \"#utility.yul\":23423:23424   */\n      0x08\n        /* \"#utility.yul\":23419:23432   */\n      mul\n        /* \"#utility.yul\":23390:23441   */\n      tag_198\n      jump\t// in\n    tag_449:\n        /* \"#utility.yul\":23386:23442   */\n      not\n        /* \"#utility.yul\":23471:23475   */\n      dup1\n        /* \"#utility.yul\":23465:23469   */\n      dup4\n        /* \"#utility.yul\":23461:23476   */\n      and\n        /* \"#utility.yul\":23451:23476   */\n      swap2\n      pop\n        /* \"#utility.yul\":23364:23482   */\n      pop\n        /* \"#utility.yul\":23313:23482   */\n      swap3\n      swap2\n      pop\n      pop\n      jump\t// out\n        /* \"#utility.yul\":23487:23782   */\n    tag_200:\n        /* \"#utility.yul\":23563:23567   */\n      0x00\n        /* \"#utility.yul\":23709:23738   */\n      tag_451\n        /* \"#utility.yul\":23734:23737   */\n      dup4\n        /* \"#utility.yul\":23728:23732   */\n      dup4\n        /* \"#utility.yul\":23709:23738   */\n      tag_199\n      jump\t// in\n    tag_451:\n        /* \"#utility.yul\":23701:23738   */\n      swap2\n      pop\n        /* \"#utility.yul\":23771:23774   */\n      dup3\n        /* \"#utility.yul\":23768:23769   */\n      0x02\n        /* \"#utility.yul\":23764:23775   */\n      mul\n        /* \"#utility.yul\":23758:23762   */\n      dup3\n        /* \"#utility.yul\":23755:23776   */\n      or\n        /* \"#utility.yul\":23747:23776   */\n      swap1\n      pop\n        /* \"#utility.yul\":23487:23782   */\n      swap3\n      swap2\n      pop\n      pop\n      jump\t// out\n        /* \"#utility.yul\":23787:25182   */\n    tag_104:\n        /* \"#utility.yul\":23904:23941   */\n      tag_453\n        /* \"#utility.yul\":23937:23940   */\n      dup3\n        /* \"#utility.yul\":23904:23941   */\n      tag_159\n      jump\t// in\n    tag_453:\n        /* \"#utility.yul\":24006:24024   */\n      0xffffffffffffffff\n        /* \"#utility.yul\":23998:24004   */\n      dup2\n        /* \"#utility.yul\":23995:24025   */\n      gt\n        /* \"#utility.yul\":23992:24048   */\n      iszero\n      tag_454\n      jumpi\n        /* \"#utility.yul\":24028:24046   */\n      tag_455\n      tag_167\n      jump\t// in\n    tag_455:\n        /* \"#utility.yul\":23992:24048   */\n    tag_454:\n        /* \"#utility.yul\":24072:24110   */\n      tag_456\n        /* \"#utility.yul\":24104:24108   */\n      dup3\n        /* \"#utility.yul\":24098:24109   */\n      sload\n        /* \"#utility.yul\":24072:24110   */\n      tag_75\n      jump\t// in\n    tag_456:\n        /* \"#utility.yul\":24157:24224   */\n      tag_457\n        /* \"#utility.yul\":24217:24223   */\n      dup3\n        /* \"#utility.yul\":24209:24215   */\n      dup3\n        /* \"#utility.yul\":24203:24207   */\n      dup6\n        /* \"#utility.yul\":24157:24224   */\n      tag_197\n      jump\t// in\n    tag_457:\n        /* \"#utility.yul\":24251:24252   */\n      0x00\n        /* \"#utility.yul\":24275:24279   */\n      0x20\n        /* \"#utility.yul\":24262:24279   */\n      swap1\n      pop\n        /* \"#utility.yul\":24307:24309   */\n      0x1f\n        /* \"#utility.yul\":24299:24305   */\n      dup4\n        /* \"#utility.yul\":24296:24310   */\n      gt\n        /* \"#utility.yul\":24324:24325   */\n      0x01\n        /* \"#utility.yul\":24319:24937   */\n      dup2\n      eq\n      tag_459\n      jumpi\n        /* \"#utility.yul\":24981:24982   */\n      0x00\n        /* \"#utility.yul\":24998:25004   */\n      dup5\n        /* \"#utility.yul\":24995:25072   */\n      iszero\n      tag_460\n      jumpi\n        /* \"#utility.yul\":25047:25056   */\n      dup3\n        /* \"#utility.yul\":25042:25045   */\n      dup8\n        /* \"#utility.yul\":25038:25057   */\n      add\n        /* \"#utility.yul\":25032:25058   */\n      mload\n        /* \"#utility.yul\":25023:25058   */\n      swap1\n      pop\n        /* \"#utility.yul\":24995:25072   */\n    tag_460:\n        /* \"#utility.yul\":25098:25165   */\n      tag_461\n        /* \"#utility.yul\":25158:25164   */\n      dup6\n        /* \"#utility.yul\":25151:25156   */\n      dup3\n        /* \"#utility.yul\":25098:25165   */\n      tag_200\n      jump\t// in\n    tag_461:\n        /* \"#utility.yul\":25092:25096   */\n      dup7\n        /* \"#utility.yul\":25085:25166   */\n      sstore\n        /* \"#utility.yul\":24954:25176   */\n      pop\n        /* \"#utility.yul\":24289:25176   */\n      jump(tag_458)\n        /* \"#utility.yul\":24319:24937   */\n    tag_459:\n        /* \"#utility.yul\":24371:24375   */\n      0x1f\n        /* \"#utility.yul\":24367:24376   */\n      not\n        /* \"#utility.yul\":24359:24365   */\n      dup5\n        /* \"#utility.yul\":24355:24377   */\n      and\n        /* \"#utility.yul\":24405:24442   */\n      tag_462\n        /* \"#utility.yul\":24437:24441   */\n      dup7\n        /* \"#utility.yul\":24405:24442   */\n      tag_187\n      jump\t// in\n    tag_462:\n        /* \"#utility.yul\":24464:24465   */\n      0x00\n        /* \"#utility.yul\":24478:24686   */\n    tag_463:\n        /* \"#utility.yul\":24492:24499   */\n      dup3\n        /* \"#utility.yul\":24489:24490   */\n      dup2\n        /* \"#utility.yul\":24486:24500   */\n      lt\n        /* \"#utility.yul\":24478:24686   */\n      iszero\n      tag_465\n      jumpi\n        /* \"#utility.yul\":24571:24580   */\n      dup5\n        /* \"#utility.yul\":24566:24569   */\n      dup10\n        /* \"#utility.yul\":24562:24581   */\n      add\n        /* \"#utility.yul\":24556:24582   */\n      mload\n        /* \"#utility.yul\":24548:24554   */\n      dup3\n        /* \"#utility.yul\":24541:24583   */\n      sstore\n        /* \"#utility.yul\":24622:24623   */\n      0x01\n        /* \"#utility.yul\":24614:24620   */\n      dup3\n        /* \"#utility.yul\":24610:24624   */\n      add\n        /* \"#utility.yul\":24600:24624   */\n      swap2\n      pop\n        /* \"#utility.yul\":24669:24671   */\n      0x20\n        /* \"#utility.yul\":24658:24667   */\n      dup6\n        /* \"#utility.yul\":24654:24672   */\n      add\n        /* \"#utility.yul\":24641:24672   */\n      swap5\n      pop\n        /* \"#utility.yul\":24515:24519   */\n      0x20\n        /* \"#utility.yul\":24512:24513   */\n      dup2\n        /* \"#utility.yul\":24508:24520   */\n      add\n        /* \"#utility.yul\":24503:24520   */\n      swap1\n      pop\n        /* \"#utility.yul\":24478:24686   */\n      jump(tag_463)\n    tag_465:\n        /* \"#utility.yul\":24714:24720   */\n      dup7\n        /* \"#utility.yul\":24705:24712   */\n      dup4\n        /* \"#utility.yul\":24702:24721   */\n      lt\n        /* \"#utility.yul\":24699:24878   */\n      iszero\n      tag_466\n      jumpi\n        /* \"#utility.yul\":24772:24781   */\n      dup5\n        /* \"#utility.yul\":24767:24770   */\n      dup10\n        /* \"#utility.yul\":24763:24782   */\n      add\n        /* \"#utility.yul\":24757:24783   */\n      mload\n        /* \"#utility.yul\":24815:24863   */\n      tag_467\n        /* \"#utility.yul\":24857:24861   */\n      0x1f\n        /* \"#utility.yul\":24849:24855   */\n      dup10\n        /* \"#utility.yul\":24845:24862   */\n      and\n        /* \"#utility.yul\":24834:24843   */\n      dup3\n        /* \"#utility.yul\":24815:24863   */\n      tag_199\n      jump\t// in\n    tag_467:\n        /* \"#utility.yul\":24807:24813   */\n      dup4\n        /* \"#utility.yul\":24800:24864   */\n      sstore\n        /* \"#utility.yul\":24722:24878   */\n      pop\n        /* \"#utility.yul\":24699:24878   */\n    tag_466:\n        /* \"#utility.yul\":24924:24925   */\n      0x01\n        /* \"#utility.yul\":24920:24921   */\n      0x02\n        /* \"#utility.yul\":24912:24918   */\n      dup9\n        /* \"#utility.yul\":24908:24922   */\n      mul\n        /* \"#utility.yul\":24904:24926   */\n      add\n        /* \"#utility.yul\":24898:24902   */\n      dup9\n        /* \"#utility.yul\":24891:24927   */\n      sstore\n        /* \"#utility.yul\":24326:24937   */\n      pop\n      pop\n      pop\n        /* \"#utility.yul\":24289:25176   */\n    tag_458:\n      pop\n        /* \"#utility.yul\":23879:25182   */\n      pop\n      pop\n      pop\n        /* \"#utility.yul\":23787:25182   */\n      pop\n      pop\n      jump\t// out\n        /* \"#utility.yul\":25188:26022   */\n    tag_109:\n        /* \"#utility.yul\":25276:25282   */\n      0x00\n        /* \"#utility.yul\":25284:25290   */\n      dup1\n        /* \"#utility.yul\":25333:25335   */\n      0x40\n        /* \"#utility.yul\":25321:25330   */\n      dup4\n        /* \"#utility.yul\":25312:25319   */\n      dup6\n        /* \"#utility.yul\":25308:25331   */\n      sub\n        /* \"#utility.yul\":25304:25336   */\n      slt\n        /* \"#utility.yul\":25301:25420   */\n      iszero\n      tag_469\n      jumpi\n        /* \"#utility.yul\":25339:25418   */\n      tag_470\n      tag_143\n      jump\t// in\n    tag_470:\n        /* \"#utility.yul\":25301:25420   */\n    tag_469:\n        /* \"#utility.yul\":25487:25488   */\n      0x00\n        /* \"#utility.yul\":25476:25485   */\n      dup4\n        /* \"#utility.yul\":25472:25489   */\n      add\n        /* \"#utility.yul\":25459:25490   */\n      calldataload\n        /* \"#utility.yul\":25517:25535   */\n      0xffffffffffffffff\n        /* \"#utility.yul\":25509:25515   */\n      dup2\n        /* \"#utility.yul\":25506:25536   */\n      gt\n        /* \"#utility.yul\":25503:25620   */\n      iszero\n      tag_471\n      jumpi\n        /* \"#utility.yul\":25539:25618   */\n      tag_472\n      tag_144\n      jump\t// in\n    tag_472:\n        /* \"#utility.yul\":25503:25620   */\n    tag_471:\n        /* \"#utility.yul\":25644:25707   */\n      tag_473\n        /* \"#utility.yul\":25699:25706   */\n      dup6\n        /* \"#utility.yul\":25690:25696   */\n      dup3\n        /* \"#utility.yul\":25679:25688   */\n      dup7\n        /* \"#utility.yul\":25675:25697   */\n      add\n        /* \"#utility.yul\":25644:25707   */\n      tag_173\n      jump\t// in\n    tag_473:\n        /* \"#utility.yul\":25634:25707   */\n      swap3\n      pop\n        /* \"#utility.yul\":25430:25717   */\n      pop\n        /* \"#utility.yul\":25784:25786   */\n      0x20\n        /* \"#utility.yul\":25773:25782   */\n      dup4\n        /* \"#utility.yul\":25769:25787   */\n      add\n        /* \"#utility.yul\":25756:25788   */\n      calldataload\n        /* \"#utility.yul\":25815:25833   */\n      0xffffffffffffffff\n        /* \"#utility.yul\":25807:25813   */\n      dup2\n        /* \"#utility.yul\":25804:25834   */\n      gt\n        /* \"#utility.yul\":25801:25918   */\n      iszero\n      tag_474\n      jumpi\n        /* \"#utility.yul\":25837:25916   */\n      tag_475\n      tag_144\n      jump\t// in\n    tag_475:\n        /* \"#utility.yul\":25801:25918   */\n    tag_474:\n        /* \"#utility.yul\":25942:26005   */\n      tag_476\n        /* \"#utility.yul\":25997:26004   */\n      dup6\n        /* \"#utility.yul\":25988:25994   */\n      dup3\n        /* \"#utility.yul\":25977:25986   */\n      dup7\n        /* \"#utility.yul\":25973:25995   */\n      add\n        /* \"#utility.yul\":25942:26005   */\n      tag_173\n      jump\t// in\n    tag_476:\n        /* \"#utility.yul\":25932:26005   */\n      swap2\n      pop\n        /* \"#utility.yul\":25727:26015   */\n      pop\n        /* \"#utility.yul\":25188:26022   */\n      swap3\n      pop\n      swap3\n      swap1\n      pop\n      jump\t// out\n        /* \"#utility.yul\":26028:26208   */\n    tag_119:\n        /* \"#utility.yul\":26076:26153   */\n      0x4e487b7100000000000000000000000000000000000000000000000000000000\n        /* \"#utility.yul\":26073:26074   */\n      0x00\n        /* \"#utility.yul\":26066:26154   */\n      mstore\n        /* \"#utility.yul\":26173:26177   */\n      0x32\n        /* \"#utility.yul\":26170:26171   */\n      0x04\n        /* \"#utility.yul\":26163:26178   */\n      mstore\n        /* \"#utility.yul\":26197:26201   */\n      0x24\n        /* \"#utility.yul\":26194:26195   */\n      0x00\n        /* \"#utility.yul\":26187:26202   */\n      revert\n        /* \"#utility.yul\":26214:26300   */\n    tag_201:\n        /* \"#utility.yul\":26249:26256   */\n      0x00\n        /* \"#utility.yul\":26289:26293   */\n      0xff\n        /* \"#utility.yul\":26282:26287   */\n      dup3\n        /* \"#utility.yul\":26278:26294   */\n      and\n        /* \"#utility.yul\":26267:26294   */\n      swap1\n      pop\n        /* \"#utility.yul\":26214:26300   */\n      swap2\n      swap1\n      pop\n      jump\t// out\n        /* \"#utility.yul\":26306:26486   */\n    tag_202:\n        /* \"#utility.yul\":26354:26431   */\n      0x4e487b7100000000000000000000000000000000000000000000000000000000\n        /* \"#utility.yul\":26351:26352   */\n      0x00\n        /* \"#utility.yul\":26344:26432   */\n      mstore\n        /* \"#utility.yul\":26451:26455   */\n      0x11\n        /* \"#utility.yul\":26448:26449   */\n      0x04\n        /* \"#utility.yul\":26441:26456   */\n      mstore\n        /* \"#utility.yul\":26475:26479   */\n      0x24\n        /* \"#utility.yul\":26472:26473   */\n      0x00\n        /* \"#utility.yul\":26465:26480   */\n      revert\n        /* \"#utility.yul\":26492:26683   */\n    tag_123:\n        /* \"#utility.yul\":26530:26534   */\n      0x00\n        /* \"#utility.yul\":26550:26568   */\n      tag_481\n        /* \"#utility.yul\":26566:26567   */\n      dup3\n        /* \"#utility.yul\":26550:26568   */\n      tag_201\n      jump\t// in\n    tag_481:\n        /* \"#utility.yul\":26545:26568   */\n      swap2\n      pop\n        /* \"#utility.yul\":26582:26600   */\n      tag_482\n        /* \"#utility.yul\":26598:26599   */\n      dup4\n        /* \"#utility.yul\":26582:26600   */\n      tag_201\n      jump\t// in\n    tag_482:\n        /* \"#utility.yul\":26577:26600   */\n      swap3\n      pop\n        /* \"#utility.yul\":26624:26625   */\n      dup3\n        /* \"#utility.yul\":26621:26622   */\n      dup3\n        /* \"#utility.yul\":26617:26626   */\n      sub\n        /* \"#utility.yul\":26609:26626   */\n      swap1\n      pop\n        /* \"#utility.yul\":26648:26652   */\n      0xff\n        /* \"#utility.yul\":26642:26646   */\n      dup2\n        /* \"#utility.yul\":26639:26653   */\n      gt\n        /* \"#utility.yul\":26636:26676   */\n      iszero\n      tag_483\n      jumpi\n        /* \"#utility.yul\":26656:26674   */\n      tag_484\n      tag_202\n      jump\t// in\n    tag_484:\n        /* \"#utility.yul\":26636:26676   */\n    tag_483:\n        /* \"#utility.yul\":26492:26683   */\n      swap3\n      swap2\n      pop\n      pop\n      jump\t// out\n        /* \"#utility.yul\":26689:27099   */\n    tag_133:\n        /* \"#utility.yul\":26729:26736   */\n      0x00\n        /* \"#utility.yul\":26752:26772   */\n      tag_486\n        /* \"#utility.yul\":26770:26771   */\n      dup3\n        /* \"#utility.yul\":26752:26772   */\n      tag_136\n      jump\t// in\n    tag_486:\n        /* \"#utility.yul\":26747:26772   */\n      swap2\n      pop\n        /* \"#utility.yul\":26786:26806   */\n      tag_487\n        /* \"#utility.yul\":26804:26805   */\n      dup4\n        /* \"#utility.yul\":26786:26806   */\n      tag_136\n      jump\t// in\n    tag_487:\n        /* \"#utility.yul\":26781:26806   */\n      swap3\n      pop\n        /* \"#utility.yul\":26841:26842   */\n      dup3\n        /* \"#utility.yul\":26838:26839   */\n      dup3\n        /* \"#utility.yul\":26834:26843   */\n      mul\n        /* \"#utility.yul\":26863:26893   */\n      tag_488\n        /* \"#utility.yul\":26881:26892   */\n      dup2\n        /* \"#utility.yul\":26863:26893   */\n      tag_136\n      jump\t// in\n    tag_488:\n        /* \"#utility.yul\":26852:26893   */\n      swap2\n      pop\n        /* \"#utility.yul\":27042:27043   */\n      dup3\n        /* \"#utility.yul\":27033:27040   */\n      dup3\n        /* \"#utility.yul\":27029:27044   */\n      div\n        /* \"#utility.yul\":27026:27027   */\n      dup5\n        /* \"#utility.yul\":27023:27045   */\n      eq\n        /* \"#utility.yul\":27003:27004   */\n      dup4\n        /* \"#utility.yul\":26996:27005   */\n      iszero\n        /* \"#utility.yul\":26976:27059   */\n      or\n        /* \"#utility.yul\":26953:27092   */\n      tag_489\n      jumpi\n        /* \"#utility.yul\":27072:27090   */\n      tag_490\n      tag_202\n      jump\t// in\n    tag_490:\n        /* \"#utility.yul\":26953:27092   */\n    tag_489:\n        /* \"#utility.yul\":26737:27099   */\n      pop\n        /* \"#utility.yul\":26689:27099   */\n      swap3\n      swap2\n      pop\n      pop\n      jump\t// out\n        /* \"#utility.yul\":27105:27337   */\n    tag_135:\n        /* \"#utility.yul\":27145:27148   */\n      0x00\n        /* \"#utility.yul\":27164:27184   */\n      tag_492\n        /* \"#utility.yul\":27182:27183   */\n      dup3\n        /* \"#utility.yul\":27164:27184   */\n      tag_136\n      jump\t// in\n    tag_492:\n        /* \"#utility.yul\":27159:27184   */\n      swap2\n      pop\n        /* \"#utility.yul\":27198:27218   */\n      tag_493\n        /* \"#utility.yul\":27216:27217   */\n      dup4\n        /* \"#utility.yul\":27198:27218   */\n      tag_136\n      jump\t// in\n    tag_493:\n        /* \"#utility.yul\":27193:27218   */\n      swap3\n      pop\n        /* \"#utility.yul\":27241:27242   */\n      dup3\n        /* \"#utility.yul\":27238:27239   */\n      dup3\n        /* \"#utility.yul\":27234:27243   */\n      add\n        /* \"#utility.yul\":27227:27243   */\n      swap1\n      pop\n        /* \"#utility.yul\":27264:27306   */\n      0xffffffffffffffffffffffffffffffffffffffff\n        /* \"#utility.yul\":27259:27262   */\n      dup2\n        /* \"#utility.yul\":27256:27307   */\n      gt\n        /* \"#utility.yul\":27253:27330   */\n      iszero\n      tag_494\n      jumpi\n        /* \"#utility.yul\":27310:27328   */\n      tag_495\n      tag_202\n      jump\t// in\n    tag_495:\n        /* \"#utility.yul\":27253:27330   */\n    tag_494:\n        /* \"#utility.yul\":27105:27337   */\n      swap3\n      swap2\n      pop\n      pop\n      jump\t// out\n\n    auxdata: 0xa26469706673582212208c6f49de8d09f2d3b42e1c77806ea33547ae9230757bcbf511b6956c5c67a45564736f6c634300081a0033\n}\n",
				"bytecode": {
					"linkReferences": {},
					"object": "60c060405234801561000f575f80fd5b506040516119e73803806119e783398181016040528101906100319190610165565b815f73ffffffffffffffffffffffffffffffffffffffff168173ffffffffffffffffffffffffffffffffffffffff1603610097576040517fe6c4247b00000000000000000000000000000000000000000000000000000000815260040160405180910390fd5b8073ffffffffffffffffffffffffffffffffffffffff1660808173ffffffffffffffffffffffffffffffffffffffff1681525050508073ffffffffffffffffffffffffffffffffffffffff1660a08173ffffffffffffffffffffffffffffffffffffffff168152505050506101a3565b5f80fd5b5f73ffffffffffffffffffffffffffffffffffffffff82169050919050565b5f6101348261010b565b9050919050565b6101448161012a565b811461014e575f80fd5b50565b5f8151905061015f8161013b565b92915050565b5f806040838503121561017b5761017a610107565b5b5f61018885828601610151565b925050602061019985828601610151565b9150509250929050565b60805160a0516118076101e05f395f81816104c201526105e801525f81816101e00152818161021f01528181610337015261067901526118075ff3fe60806040526004361061007a575f3560e01c80636a22d8cc1161004d5780636a22d8cc14610134578063864e13e11461015e57806396bdcd721461019a578063b0651841146101b65761007a565b8063116191b61461007e5780631a98b2e0146100a857806349160658146100d05780635311312f146100f8575b5f80fd5b348015610089575f80fd5b506100926101de565b60405161009f91906109ee565b60405180910390f35b3480156100b3575f80fd5b506100ce60048036038101906100c99190610b34565b610202565b005b3480156100db575f80fd5b506100f660048036038101906100f19190610c3e565b61031a565b005b348015610103575f80fd5b5061011e60048036038101906101199190610d3d565b610426565b60405161012b9190610dd8565b60405180910390f35b34801561013f575f80fd5b506101486104c0565b6040516101559190610e18565b60405180910390f35b348015610169575f80fd5b50610184600480360381019061017f9190610d3d565b6104e4565b6040516101919190610dd8565b60405180910390f35b6101b460048036038101906101af9190610f59565b6105b0565b005b3480156101c1575f80fd5b506101dc60048036038101906101d7919061102d565b610758565b005b7f000000000000000000000000000000000000000000000000000000000000000081565b5f85856040516102139291906110a2565b604051809103902090507f000000000000000000000000000000000000000000000000000000000000000073ffffffffffffffffffffffffffffffffffffffff16631876eed98c8c8c8c8c878b8b8b6040518a63ffffffff1660e01b815260040161028699989796959493929190611104565b6020604051808303815f875af11580156102a2573d5f803e3d5ffd5b505050506040513d601f19601f820116820180604052508101906102c691906111b3565b6102fc576040517f500c44b400000000000000000000000000000000000000000000000000000000815260040160405180910390fd5b61030d8a8a8a8a8a8a8a8a8a6107f3565b5050505050505050505050565b5f828260405161032b9291906110a2565b604051809103902090507f000000000000000000000000000000000000000000000000000000000000000073ffffffffffffffffffffffffffffffffffffffff16635f6970c38989898989876040518763ffffffff1660e01b8152600401610398969594939291906111de565b6020604051808303815f875af11580156103b4573d5f803e3d5ffd5b505050506040513d601f19601f820116820180604052508101906103d891906111b3565b61040e576040517f500c44b400000000000000000000000000000000000000000000000000000000815260040160405180910390fd5b61041c8787878787876107fe565b5050505050505050565b5f602052805f5260405f205f91509050805461044190611260565b80601f016020809104026020016040519081016040528092919081815260200182805461046d90611260565b80156104b85780601f1061048f576101008083540402835291602001916104b8565b820191905f5260205f20905b81548152906001019060200180831161049b57829003601f168201915b505050505081565b7f000000000000000000000000000000000000000000000000000000000000000081565b60605f808373ffffffffffffffffffffffffffffffffffffffff1673ffffffffffffffffffffffffffffffffffffffff1681526020019081526020015f20805461052d90611260565b80601f016020809104026020016040519081016040528092919081815260200182805461055990611260565b80156105a45780601f1061057b576101008083540402835291602001916105a4565b820191905f5260205f20905b81548152906001019060200180831161058757829003601f168201915b50505050509050919050565b6105b982610758565b5f83836040516020016105cd929190611290565b60405160208183030381529060405290505f341115610677577f000000000000000000000000000000000000000000000000000000000000000073ffffffffffffffffffffffffffffffffffffffff16630c93e3bb3430888686336040518763ffffffff1660e01b8152600401610648959493929190611326565b5f604051808303818588803b15801561065f575f80fd5b505af1158015610671573d5f803e3d5ffd5b50505050505b7f000000000000000000000000000000000000000000000000000000000000000073ffffffffffffffffffffffffffffffffffffffff16631c92115f8684846040518463ffffffff1660e01b81526004016106d49392919061138c565b5f604051808303815f87803b1580156106eb575f80fd5b505af11580156106fd573d5f803e3d5ffd5b505050503373ffffffffffffffffffffffffffffffffffffffff167f477c4c283c001b4b523497e766a6ef514fd4bed3b825bd34d9ea8811062f277a8686604051610749929190611290565b60405180910390a25050505050565b805f803373ffffffffffffffffffffffffffffffffffffffff1673ffffffffffffffffffffffffffffffffffffffff1681526020019081526020015f2090816107a1919061156a565b503373ffffffffffffffffffffffffffffffffffffffff167faf3172a58e0c209eeb3c0bb06c865dacbc3ea31a10840e4c8308627c855b8d70826040516107e89190610dd8565b60405180910390a250565b505050505050505050565b5f80838381019061080f9190611639565b915091505f61081d83610874565b9050815f808373ffffffffffffffffffffffffffffffffffffffff1673ffffffffffffffffffffffffffffffffffffffff1681526020019081526020015f209081610868919061156a565b50505050505050505050565b5f808290505f80600290505b602a811015610969575f83828151811061089d5761089c6116af565b5b602001015160f81c60f81b60f81c905060308160ff16101580156108c5575060398160ff1611155b156108de576030816108d79190611715565b905061093e565b60418160ff16101580156108f6575060468160ff1611155b1561090f576037816109089190611715565b905061093d565b60618160ff1610158015610927575060668160ff1611155b1561093c576057816109399190611715565b90505b5b5b8060ff1660108461094f9190611749565b610959919061178a565b9250508080600101915050610880565b508092505050919050565b5f73ffffffffffffffffffffffffffffffffffffffff82169050919050565b5f819050919050565b5f6109b66109b16109ac84610974565b610993565b610974565b9050919050565b5f6109c78261099c565b9050919050565b5f6109d8826109bd565b9050919050565b6109e8816109ce565b82525050565b5f602082019050610a015f8301846109df565b92915050565b5f604051905090565b5f80fd5b5f80fd5b5f819050919050565b610a2a81610a18565b8114610a34575f80fd5b50565b5f81359050610a4581610a21565b92915050565b5f80fd5b5f80fd5b5f80fd5b5f8083601f840112610a6c57610a6b610a4b565b5b8235905067ffffffffffffffff811115610a8957610a88610a4f565b5b602083019150836001820283011115610aa557610aa4610a53565b5b9250929050565b5f8083601f840112610ac157610ac0610a4b565b5b8235905067ffffffffffffffff811115610ade57610add610a4f565b5b602083019150836001820283011115610afa57610af9610a53565b5b9250929050565b5f819050919050565b610b1381610b01565b8114610b1d575f80fd5b50565b5f81359050610b2e81610b0a565b92915050565b5f805f805f805f805f8060c08b8d031215610b5257610b51610a10565b5b5f610b5f8d828e01610a37565b9a505060208b013567ffffffffffffffff811115610b8057610b7f610a14565b5b610b8c8d828e01610a57565b995099505060408b013567ffffffffffffffff811115610baf57610bae610a14565b5b610bbb8d828e01610a57565b975097505060608b013567ffffffffffffffff811115610bde57610bdd610a14565b5b610bea8d828e01610aac565b955095505060808b013567ffffffffffffffff811115610c0d57610c0c610a14565b5b610c198d828e01610a57565b935093505060a0610c2c8d828e01610b20565b9150509295989b9194979a5092959850565b5f805f805f805f6080888a031215610c5957610c58610a10565b5b5f610c668a828b01610a37565b975050602088013567ffffffffffffffff811115610c8757610c86610a14565b5b610c938a828b01610a57565b9650965050604088013567ffffffffffffffff811115610cb657610cb5610a14565b5b610cc28a828b01610a57565b9450945050606088013567ffffffffffffffff811115610ce557610ce4610a14565b5b610cf18a828b01610aac565b925092505092959891949750929550565b5f610d0c82610974565b9050919050565b610d1c81610d02565b8114610d26575f80fd5b50565b5f81359050610d3781610d13565b92915050565b5f60208284031215610d5257610d51610a10565b5b5f610d5f84828501610d29565b91505092915050565b5f81519050919050565b5f82825260208201905092915050565b8281835e5f83830152505050565b5f601f19601f8301169050919050565b5f610daa82610d68565b610db48185610d72565b9350610dc4818560208601610d82565b610dcd81610d90565b840191505092915050565b5f6020820190508181035f830152610df08184610da0565b905092915050565b5f610e02826109bd565b9050919050565b610e1281610df8565b82525050565b5f602082019050610e2b5f830184610e09565b92915050565b5f80fd5b7f4e487b71000000000000000000000000000000000000000000000000000000005f52604160045260245ffd5b610e6b82610d90565b810181811067ffffffffffffffff82111715610e8a57610e89610e35565b5b80604052505050565b5f610e9c610a07565b9050610ea88282610e62565b919050565b5f67ffffffffffffffff821115610ec757610ec6610e35565b5b610ed082610d90565b9050602081019050919050565b828183375f83830152505050565b5f610efd610ef884610ead565b610e93565b905082815260208101848484011115610f1957610f18610e31565b5b610f24848285610edd565b509392505050565b5f82601f830112610f4057610f3f610a4b565b5b8135610f50848260208601610eeb565b91505092915050565b5f805f8060808587031215610f7157610f70610a10565b5b5f85013567ffffffffffffffff811115610f8e57610f8d610a14565b5b610f9a87828801610f2c565b945050602085013567ffffffffffffffff811115610fbb57610fba610a14565b5b610fc787828801610f2c565b935050604085013567ffffffffffffffff811115610fe857610fe7610a14565b5b610ff487828801610f2c565b925050606085013567ffffffffffffffff81111561101557611014610a14565b5b61102187828801610f2c565b91505092959194509250565b5f6020828403121561104257611041610a10565b5b5f82013567ffffffffffffffff81111561105f5761105e610a14565b5b61106b84828501610f2c565b91505092915050565b5f81905092915050565b5f6110898385611074565b9350611096838584610edd565b82840190509392505050565b5f6110ae82848661107e565b91508190509392505050565b6110c381610a18565b82525050565b5f6110d48385610d72565b93506110e1838584610edd565b6110ea83610d90565b840190509392505050565b6110fe81610b01565b82525050565b5f60c0820190506111175f83018c6110ba565b818103602083015261112a818a8c6110c9565b9050818103604083015261113f81888a6110c9565b905061114e60608301876110ba565b81810360808301526111618185876110c9565b905061117060a08301846110f5565b9a9950505050505050505050565b5f8115159050919050565b6111928161117e565b811461119c575f80fd5b50565b5f815190506111ad81611189565b92915050565b5f602082840312156111c8576111c7610a10565b5b5f6111d58482850161119f565b91505092915050565b5f6080820190506111f15f8301896110ba565b81810360208301526112048187896110c9565b905081810360408301526112198185876110c9565b905061122860608301846110ba565b979650505050505050565b7f4e487b71000000000000000000000000000000000000000000000000000000005f52602260045260245ffd5b5f600282049050600182168061127757607f821691505b60208210810361128a57611289611233565b5b50919050565b5f6040820190508181035f8301526112a88185610da0565b905081810360208301526112bc8184610da0565b90509392505050565b6112ce81610d02565b82525050565b5f81519050919050565b5f82825260208201905092915050565b5f6112f8826112d4565b61130281856112de565b9350611312818560208601610d82565b61131b81610d90565b840191505092915050565b5f60a0820190506113395f8301886112c5565b818103602083015261134b8187610da0565b9050818103604083015261135f8186610da0565b9050818103606083015261137381856112ee565b905061138260808301846112c5565b9695505050505050565b5f6060820190508181035f8301526113a48186610da0565b905081810360208301526113b88185610da0565b905081810360408301526113cc81846112ee565b9050949350505050565b5f819050815f5260205f209050919050565b5f6020601f8301049050919050565b5f82821b905092915050565b5f600883026114327fffffffffffffffffffffffffffffffffffffffffffffffffffffffffffffffff826113f7565b61143c86836113f7565b95508019841693508086168417925050509392505050565b5f61146e61146961146484610b01565b610993565b610b01565b9050919050565b5f819050919050565b61148783611454565b61149b61149382611475565b848454611403565b825550505050565b5f90565b6114af6114a3565b6114ba81848461147e565b505050565b5b818110156114dd576114d25f826114a7565b6001810190506114c0565b5050565b601f821115611522576114f3816113d6565b6114fc846113e8565b8101602085101561150b578190505b61151f611517856113e8565b8301826114bf565b50505b505050565b5f82821c905092915050565b5f6115425f1984600802611527565b1980831691505092915050565b5f61155a8383611533565b9150826002028217905092915050565b61157382610d68565b67ffffffffffffffff81111561158c5761158b610e35565b5b6115968254611260565b6115a18282856114e1565b5f60209050601f8311600181146115d2575f84156115c0578287015190505b6115ca858261154f565b865550611631565b601f1984166115e0866113d6565b5f5b82811015611607578489015182556001820191506020850194506020810190506115e2565b868310156116245784890151611620601f891682611533565b8355505b6001600288020188555050505b505050505050565b5f806040838503121561164f5761164e610a10565b5b5f83013567ffffffffffffffff81111561166c5761166b610a14565b5b61167885828601610f2c565b925050602083013567ffffffffffffffff81111561169957611698610a14565b5b6116a585828601610f2c565b9150509250929050565b7f4e487b71000000000000000000000000000000000000000000000000000000005f52603260045260245ffd5b5f60ff82169050919050565b7f4e487b71000000000000000000000000000000000000000000000000000000005f52601160045260245ffd5b5f61171f826116dc565b915061172a836116dc565b9250828203905060ff811115611743576117426116e8565b5b92915050565b5f61175382610974565b915061175e83610974565b925082820261176c81610974565b91508282048414831517611783576117826116e8565b5b5092915050565b5f61179482610974565b915061179f83610974565b9250828201905073ffffffffffffffffffffffffffffffffffffffff8111156117cb576117ca6116e8565b5b9291505056fea26469706673582212208c6f49de8d09f2d3b42e1c77806ea33547ae9230757bcbf511b6956c5c67a45564736f6c634300081a0033",
					"opcodes": "PUSH1 0xC0 PUSH1 0x40 MSTORE CALLVALUE DUP1 ISZERO PUSH2 0xF JUMPI PUSH0 DUP1 REVERT JUMPDEST POP PUSH1 0x40 MLOAD PUSH2 0x19E7 CODESIZE SUB DUP1 PUSH2 0x19E7 DUP4 CODECOPY DUP2 DUP2 ADD PUSH1 0x40 MSTORE DUP2 ADD SWAP1 PUSH2 0x31 SWAP2 SWAP1 PUSH2 0x165 JUMP JUMPDEST DUP2 PUSH0 PUSH20 0xFFFFFFFFFFFFFFFFFFFFFFFFFFFFFFFFFFFFFFFF AND DUP2 PUSH20 0xFFFFFFFFFFFFFFFFFFFFFFFFFFFFFFFFFFFFFFFF AND SUB PUSH2 0x97 JUMPI PUSH1 0x40 MLOAD PUSH32 0xE6C4247B00000000000000000000000000000000000000000000000000000000 DUP2 MSTORE PUSH1 0x4 ADD PUSH1 0x40 MLOAD DUP1 SWAP2 SUB SWAP1 REVERT JUMPDEST DUP1 PUSH20 0xFFFFFFFFFFFFFFFFFFFFFFFFFFFFFFFFFFFFFFFF AND PUSH1 0x80 DUP2 PUSH20 0xFFFFFFFFFFFFFFFFFFFFFFFFFFFFFFFFFFFFFFFF AND DUP2 MSTORE POP POP POP DUP1 PUSH20 0xFFFFFFFFFFFFFFFFFFFFFFFFFFFFFFFFFFFFFFFF AND PUSH1 0xA0 DUP2 PUSH20 0xFFFFFFFFFFFFFFFFFFFFFFFFFFFFFFFFFFFFFFFF AND DUP2 MSTORE POP POP POP POP PUSH2 0x1A3 JUMP JUMPDEST PUSH0 DUP1 REVERT JUMPDEST PUSH0 PUSH20 0xFFFFFFFFFFFFFFFFFFFFFFFFFFFFFFFFFFFFFFFF DUP3 AND SWAP1 POP SWAP2 SWAP1 POP JUMP JUMPDEST PUSH0 PUSH2 0x134 DUP3 PUSH2 0x10B JUMP JUMPDEST SWAP1 POP SWAP2 SWAP1 POP JUMP JUMPDEST PUSH2 0x144 DUP2 PUSH2 0x12A JUMP JUMPDEST DUP2 EQ PUSH2 0x14E JUMPI PUSH0 DUP1 REVERT JUMPDEST POP JUMP JUMPDEST PUSH0 DUP2 MLOAD SWAP1 POP PUSH2 0x15F DUP2 PUSH2 0x13B JUMP JUMPDEST SWAP3 SWAP2 POP POP JUMP JUMPDEST PUSH0 DUP1 PUSH1 0x40 DUP4 DUP6 SUB SLT ISZERO PUSH2 0x17B JUMPI PUSH2 0x17A PUSH2 0x107 JUMP JUMPDEST JUMPDEST PUSH0 PUSH2 0x188 DUP6 DUP3 DUP7 ADD PUSH2 0x151 JUMP JUMPDEST SWAP3 POP POP PUSH1 0x20 PUSH2 0x199 DUP6 DUP3 DUP7 ADD PUSH2 0x151 JUMP JUMPDEST SWAP2 POP POP SWAP3 POP SWAP3 SWAP1 POP JUMP JUMPDEST PUSH1 0x80 MLOAD PUSH1 0xA0 MLOAD PUSH2 0x1807 PUSH2 0x1E0 PUSH0 CODECOPY PUSH0 DUP2 DUP2 PUSH2 0x4C2 ADD MSTORE PUSH2 0x5E8 ADD MSTORE PUSH0 DUP2 DUP2 PUSH2 0x1E0 ADD MSTORE DUP2 DUP2 PUSH2 0x21F ADD MSTORE DUP2 DUP2 PUSH2 0x337 ADD MSTORE PUSH2 0x679 ADD MSTORE PUSH2 0x1807 PUSH0 RETURN INVALID PUSH1 0x80 PUSH1 0x40 MSTORE PUSH1 0x4 CALLDATASIZE LT PUSH2 0x7A JUMPI PUSH0 CALLDATALOAD PUSH1 0xE0 SHR DUP1 PUSH4 0x6A22D8CC GT PUSH2 0x4D JUMPI DUP1 PUSH4 0x6A22D8CC EQ PUSH2 0x134 JUMPI DUP1 PUSH4 0x864E13E1 EQ PUSH2 0x15E JUMPI DUP1 PUSH4 0x96BDCD72 EQ PUSH2 0x19A JUMPI DUP1 PUSH4 0xB0651841 EQ PUSH2 0x1B6 JUMPI PUSH2 0x7A JUMP JUMPDEST DUP1 PUSH4 0x116191B6 EQ PUSH2 0x7E JUMPI DUP1 PUSH4 0x1A98B2E0 EQ PUSH2 0xA8 JUMPI DUP1 PUSH4 0x49160658 EQ PUSH2 0xD0 JUMPI DUP1 PUSH4 0x5311312F EQ PUSH2 0xF8 JUMPI JUMPDEST PUSH0 DUP1 REVERT JUMPDEST CALLVALUE DUP1 ISZERO PUSH2 0x89 JUMPI PUSH0 DUP1 REVERT JUMPDEST POP PUSH2 0x92 PUSH2 0x1DE JUMP JUMPDEST PUSH1 0x40 MLOAD PUSH2 0x9F SWAP2 SWAP1 PUSH2 0x9EE JUMP JUMPDEST PUSH1 0x40 MLOAD DUP1 SWAP2 SUB SWAP1 RETURN JUMPDEST CALLVALUE DUP1 ISZERO PUSH2 0xB3 JUMPI PUSH0 DUP1 REVERT JUMPDEST POP PUSH2 0xCE PUSH1 0x4 DUP1 CALLDATASIZE SUB DUP2 ADD SWAP1 PUSH2 0xC9 SWAP2 SWAP1 PUSH2 0xB34 JUMP JUMPDEST PUSH2 0x202 JUMP JUMPDEST STOP JUMPDEST CALLVALUE DUP1 ISZERO PUSH2 0xDB JUMPI PUSH0 DUP1 REVERT JUMPDEST POP PUSH2 0xF6 PUSH1 0x4 DUP1 CALLDATASIZE SUB DUP2 ADD SWAP1 PUSH2 0xF1 SWAP2 SWAP1 PUSH2 0xC3E JUMP JUMPDEST PUSH2 0x31A JUMP JUMPDEST STOP JUMPDEST CALLVALUE DUP1 ISZERO PUSH2 0x103 JUMPI PUSH0 DUP1 REVERT JUMPDEST POP PUSH2 0x11E PUSH1 0x4 DUP1 CALLDATASIZE SUB DUP2 ADD SWAP1 PUSH2 0x119 SWAP2 SWAP1 PUSH2 0xD3D JUMP JUMPDEST PUSH2 0x426 JUMP JUMPDEST PUSH1 0x40 MLOAD PUSH2 0x12B SWAP2 SWAP1 PUSH2 0xDD8 JUMP JUMPDEST PUSH1 0x40 MLOAD DUP1 SWAP2 SUB SWAP1 RETURN JUMPDEST CALLVALUE DUP1 ISZERO PUSH2 0x13F JUMPI PUSH0 DUP1 REVERT JUMPDEST POP PUSH2 0x148 PUSH2 0x4C0 JUMP JUMPDEST PUSH1 0x40 MLOAD PUSH2 0x155 SWAP2 SWAP1 PUSH2 0xE18 JUMP JUMPDEST PUSH1 0x40 MLOAD DUP1 SWAP2 SUB SWAP1 RETURN JUMPDEST CALLVALUE DUP1 ISZERO PUSH2 0x169 JUMPI PUSH0 DUP1 REVERT JUMPDEST POP PUSH2 0x184 PUSH1 0x4 DUP1 CALLDATASIZE SUB DUP2 ADD SWAP1 PUSH2 0x17F SWAP2 SWAP1 PUSH2 0xD3D JUMP JUMPDEST PUSH2 0x4E4 JUMP JUMPDEST PUSH1 0x40 MLOAD PUSH2 0x191 SWAP2 SWAP1 PUSH2 0xDD8 JUMP JUMPDEST PUSH1 0x40 MLOAD DUP1 SWAP2 SUB SWAP1 RETURN JUMPDEST PUSH2 0x1B4 PUSH1 0x4 DUP1 CALLDATASIZE SUB DUP2 ADD SWAP1 PUSH2 0x1AF SWAP2 SWAP1 PUSH2 0xF59 JUMP JUMPDEST PUSH2 0x5B0 JUMP JUMPDEST STOP JUMPDEST CALLVALUE DUP1 ISZERO PUSH2 0x1C1 JUMPI PUSH0 DUP1 REVERT JUMPDEST POP PUSH2 0x1DC PUSH1 0x4 DUP1 CALLDATASIZE SUB DUP2 ADD SWAP1 PUSH2 0x1D7 SWAP2 SWAP1 PUSH2 0x102D JUMP JUMPDEST PUSH2 0x758 JUMP JUMPDEST STOP JUMPDEST PUSH32 0x0 DUP2 JUMP JUMPDEST PUSH0 DUP6 DUP6 PUSH1 0x40 MLOAD PUSH2 0x213 SWAP3 SWAP2 SWAP1 PUSH2 0x10A2 JUMP JUMPDEST PUSH1 0x40 MLOAD DUP1 SWAP2 SUB SWAP1 KECCAK256 SWAP1 POP PUSH32 0x0 PUSH20 0xFFFFFFFFFFFFFFFFFFFFFFFFFFFFFFFFFFFFFFFF AND PUSH4 0x1876EED9 DUP13 DUP13 DUP13 DUP13 DUP13 DUP8 DUP12 DUP12 DUP12 PUSH1 0x40 MLOAD DUP11 PUSH4 0xFFFFFFFF AND PUSH1 0xE0 SHL DUP2 MSTORE PUSH1 0x4 ADD PUSH2 0x286 SWAP10 SWAP9 SWAP8 SWAP7 SWAP6 SWAP5 SWAP4 SWAP3 SWAP2 SWAP1 PUSH2 0x1104 JUMP JUMPDEST PUSH1 0x20 PUSH1 0x40 MLOAD DUP1 DUP4 SUB DUP2 PUSH0 DUP8 GAS CALL ISZERO DUP1 ISZERO PUSH2 0x2A2 JUMPI RETURNDATASIZE PUSH0 DUP1 RETURNDATACOPY RETURNDATASIZE PUSH0 REVERT JUMPDEST POP POP POP POP PUSH1 0x40 MLOAD RETURNDATASIZE PUSH1 0x1F NOT PUSH1 0x1F DUP3 ADD AND DUP3 ADD DUP1 PUSH1 0x40 MSTORE POP DUP2 ADD SWAP1 PUSH2 0x2C6 SWAP2 SWAP1 PUSH2 0x11B3 JUMP JUMPDEST PUSH2 0x2FC JUMPI PUSH1 0x40 MLOAD PUSH32 0x500C44B400000000000000000000000000000000000000000000000000000000 DUP2 MSTORE PUSH1 0x4 ADD PUSH1 0x40 MLOAD DUP1 SWAP2 SUB SWAP1 REVERT JUMPDEST PUSH2 0x30D DUP11 DUP11 DUP11 DUP11 DUP11 DUP11 DUP11 DUP11 DUP11 PUSH2 0x7F3 JUMP JUMPDEST POP POP POP POP POP POP POP POP POP POP POP JUMP JUMPDEST PUSH0 DUP3 DUP3 PUSH1 0x40 MLOAD PUSH2 0x32B SWAP3 SWAP2 SWAP1 PUSH2 0x10A2 JUMP JUMPDEST PUSH1 0x40 MLOAD DUP1 SWAP2 SUB SWAP1 KECCAK256 SWAP1 POP PUSH32 0x0 PUSH20 0xFFFFFFFFFFFFFFFFFFFFFFFFFFFFFFFFFFFFFFFF AND PUSH4 0x5F6970C3 DUP10 DUP10 DUP10 DUP10 DUP10 DUP8 PUSH1 0x40 MLOAD DUP8 PUSH4 0xFFFFFFFF AND PUSH1 0xE0 SHL DUP2 MSTORE PUSH1 0x4 ADD PUSH2 0x398 SWAP7 SWAP6 SWAP5 SWAP4 SWAP3 SWAP2 SWAP1 PUSH2 0x11DE JUMP JUMPDEST PUSH1 0x20 PUSH1 0x40 MLOAD DUP1 DUP4 SUB DUP2 PUSH0 DUP8 GAS CALL ISZERO DUP1 ISZERO PUSH2 0x3B4 JUMPI RETURNDATASIZE PUSH0 DUP1 RETURNDATACOPY RETURNDATASIZE PUSH0 REVERT JUMPDEST POP POP POP POP PUSH1 0x40 MLOAD RETURNDATASIZE PUSH1 0x1F NOT PUSH1 0x1F DUP3 ADD AND DUP3 ADD DUP1 PUSH1 0x40 MSTORE POP DUP2 ADD SWAP1 PUSH2 0x3D8 SWAP2 SWAP1 PUSH2 0x11B3 JUMP JUMPDEST PUSH2 0x40E JUMPI PUSH1 0x40 MLOAD PUSH32 0x500C44B400000000000000000000000000000000000000000000000000000000 DUP2 MSTORE PUSH1 0x4 ADD PUSH1 0x40 MLOAD DUP1 SWAP2 SUB SWAP1 REVERT JUMPDEST PUSH2 0x41C DUP8 DUP8 DUP8 DUP8 DUP8 DUP8 PUSH2 0x7FE JUMP JUMPDEST POP POP POP POP POP POP POP POP JUMP JUMPDEST PUSH0 PUSH1 0x20 MSTORE DUP1 PUSH0 MSTORE PUSH1 0x40 PUSH0 KECCAK256 PUSH0 SWAP2 POP SWAP1 POP DUP1 SLOAD PUSH2 0x441 SWAP1 PUSH2 0x1260 JUMP JUMPDEST DUP1 PUSH1 0x1F ADD PUSH1 0x20 DUP1 SWAP2 DIV MUL PUSH1 0x20 ADD PUSH1 0x40 MLOAD SWAP1 DUP2 ADD PUSH1 0x40 MSTORE DUP1 SWAP3 SWAP2 SWAP1 DUP2 DUP2 MSTORE PUSH1 0x20 ADD DUP3 DUP1 SLOAD PUSH2 0x46D SWAP1 PUSH2 0x1260 JUMP JUMPDEST DUP1 ISZERO PUSH2 0x4B8 JUMPI DUP1 PUSH1 0x1F LT PUSH2 0x48F JUMPI PUSH2 0x100 DUP1 DUP4 SLOAD DIV MUL DUP4 MSTORE SWAP2 PUSH1 0x20 ADD SWAP2 PUSH2 0x4B8 JUMP JUMPDEST DUP3 ADD SWAP2 SWAP1 PUSH0 MSTORE PUSH1 0x20 PUSH0 KECCAK256 SWAP1 JUMPDEST DUP2 SLOAD DUP2 MSTORE SWAP1 PUSH1 0x1 ADD SWAP1 PUSH1 0x20 ADD DUP1 DUP4 GT PUSH2 0x49B JUMPI DUP3 SWAP1 SUB PUSH1 0x1F AND DUP3 ADD SWAP2 JUMPDEST POP POP POP POP POP DUP2 JUMP JUMPDEST PUSH32 0x0 DUP2 JUMP JUMPDEST PUSH1 0x60 PUSH0 DUP1 DUP4 PUSH20 0xFFFFFFFFFFFFFFFFFFFFFFFFFFFFFFFFFFFFFFFF AND PUSH20 0xFFFFFFFFFFFFFFFFFFFFFFFFFFFFFFFFFFFFFFFF AND DUP2 MSTORE PUSH1 0x20 ADD SWAP1 DUP2 MSTORE PUSH1 0x20 ADD PUSH0 KECCAK256 DUP1 SLOAD PUSH2 0x52D SWAP1 PUSH2 0x1260 JUMP JUMPDEST DUP1 PUSH1 0x1F ADD PUSH1 0x20 DUP1 SWAP2 DIV MUL PUSH1 0x20 ADD PUSH1 0x40 MLOAD SWAP1 DUP2 ADD PUSH1 0x40 MSTORE DUP1 SWAP3 SWAP2 SWAP1 DUP2 DUP2 MSTORE PUSH1 0x20 ADD DUP3 DUP1 SLOAD PUSH2 0x559 SWAP1 PUSH2 0x1260 JUMP JUMPDEST DUP1 ISZERO PUSH2 0x5A4 JUMPI DUP1 PUSH1 0x1F LT PUSH2 0x57B JUMPI PUSH2 0x100 DUP1 DUP4 SLOAD DIV MUL DUP4 MSTORE SWAP2 PUSH1 0x20 ADD SWAP2 PUSH2 0x5A4 JUMP JUMPDEST DUP3 ADD SWAP2 SWAP1 PUSH0 MSTORE PUSH1 0x20 PUSH0 KECCAK256 SWAP1 JUMPDEST DUP2 SLOAD DUP2 MSTORE SWAP1 PUSH1 0x1 ADD SWAP1 PUSH1 0x20 ADD DUP1 DUP4 GT PUSH2 0x587 JUMPI DUP3 SWAP1 SUB PUSH1 0x1F AND DUP3 ADD SWAP2 JUMPDEST POP POP POP POP POP SWAP1 POP SWAP2 SWAP1 POP JUMP JUMPDEST PUSH2 0x5B9 DUP3 PUSH2 0x758 JUMP JUMPDEST PUSH0 DUP4 DUP4 PUSH1 0x40 MLOAD PUSH1 0x20 ADD PUSH2 0x5CD SWAP3 SWAP2 SWAP1 PUSH2 0x1290 JUMP JUMPDEST PUSH1 0x40 MLOAD PUSH1 0x20 DUP2 DUP4 SUB SUB DUP2 MSTORE SWAP1 PUSH1 0x40 MSTORE SWAP1 POP PUSH0 CALLVALUE GT ISZERO PUSH2 0x677 JUMPI PUSH32 0x0 PUSH20 0xFFFFFFFFFFFFFFFFFFFFFFFFFFFFFFFFFFFFFFFF AND PUSH4 0xC93E3BB CALLVALUE ADDRESS DUP9 DUP7 DUP7 CALLER PUSH1 0x40 MLOAD DUP8 PUSH4 0xFFFFFFFF AND PUSH1 0xE0 SHL DUP2 MSTORE PUSH1 0x4 ADD PUSH2 0x648 SWAP6 SWAP5 SWAP4 SWAP3 SWAP2 SWAP1 PUSH2 0x1326 JUMP JUMPDEST PUSH0 PUSH1 0x40 MLOAD DUP1 DUP4 SUB DUP2 DUP6 DUP9 DUP1 EXTCODESIZE ISZERO DUP1 ISZERO PUSH2 0x65F JUMPI PUSH0 DUP1 REVERT JUMPDEST POP GAS CALL ISZERO DUP1 ISZERO PUSH2 0x671 JUMPI RETURNDATASIZE PUSH0 DUP1 RETURNDATACOPY RETURNDATASIZE PUSH0 REVERT JUMPDEST POP POP POP POP POP JUMPDEST PUSH32 0x0 PUSH20 0xFFFFFFFFFFFFFFFFFFFFFFFFFFFFFFFFFFFFFFFF AND PUSH4 0x1C92115F DUP7 DUP5 DUP5 PUSH1 0x40 MLOAD DUP5 PUSH4 0xFFFFFFFF AND PUSH1 0xE0 SHL DUP2 MSTORE PUSH1 0x4 ADD PUSH2 0x6D4 SWAP4 SWAP3 SWAP2 SWAP1 PUSH2 0x138C JUMP JUMPDEST PUSH0 PUSH1 0x40 MLOAD DUP1 DUP4 SUB DUP2 PUSH0 DUP8 DUP1 EXTCODESIZE ISZERO DUP1 ISZERO PUSH2 0x6EB JUMPI PUSH0 DUP1 REVERT JUMPDEST POP GAS CALL ISZERO DUP1 ISZERO PUSH2 0x6FD JUMPI RETURNDATASIZE PUSH0 DUP1 RETURNDATACOPY RETURNDATASIZE PUSH0 REVERT JUMPDEST POP POP POP POP CALLER PUSH20 0xFFFFFFFFFFFFFFFFFFFFFFFFFFFFFFFFFFFFFFFF AND PUSH32 0x477C4C283C001B4B523497E766A6EF514FD4BED3B825BD34D9EA8811062F277A DUP7 DUP7 PUSH1 0x40 MLOAD PUSH2 0x749 SWAP3 SWAP2 SWAP1 PUSH2 0x1290 JUMP JUMPDEST PUSH1 0x40 MLOAD DUP1 SWAP2 SUB SWAP1 LOG2 POP POP POP POP POP JUMP JUMPDEST DUP1 PUSH0 DUP1 CALLER PUSH20 0xFFFFFFFFFFFFFFFFFFFFFFFFFFFFFFFFFFFFFFFF AND PUSH20 0xFFFFFFFFFFFFFFFFFFFFFFFFFFFFFFFFFFFFFFFF AND DUP2 MSTORE PUSH1 0x20 ADD SWAP1 DUP2 MSTORE PUSH1 0x20 ADD PUSH0 KECCAK256 SWAP1 DUP2 PUSH2 0x7A1 SWAP2 SWAP1 PUSH2 0x156A JUMP JUMPDEST POP CALLER PUSH20 0xFFFFFFFFFFFFFFFFFFFFFFFFFFFFFFFFFFFFFFFF AND PUSH32 0xAF3172A58E0C209EEB3C0BB06C865DACBC3EA31A10840E4C8308627C855B8D70 DUP3 PUSH1 0x40 MLOAD PUSH2 0x7E8 SWAP2 SWAP1 PUSH2 0xDD8 JUMP JUMPDEST PUSH1 0x40 MLOAD DUP1 SWAP2 SUB SWAP1 LOG2 POP JUMP JUMPDEST POP POP POP POP POP POP POP POP POP JUMP JUMPDEST PUSH0 DUP1 DUP4 DUP4 DUP2 ADD SWAP1 PUSH2 0x80F SWAP2 SWAP1 PUSH2 0x1639 JUMP JUMPDEST SWAP2 POP SWAP2 POP PUSH0 PUSH2 0x81D DUP4 PUSH2 0x874 JUMP JUMPDEST SWAP1 POP DUP2 PUSH0 DUP1 DUP4 PUSH20 0xFFFFFFFFFFFFFFFFFFFFFFFFFFFFFFFFFFFFFFFF AND PUSH20 0xFFFFFFFFFFFFFFFFFFFFFFFFFFFFFFFFFFFFFFFF AND DUP2 MSTORE PUSH1 0x20 ADD SWAP1 DUP2 MSTORE PUSH1 0x20 ADD PUSH0 KECCAK256 SWAP1 DUP2 PUSH2 0x868 SWAP2 SWAP1 PUSH2 0x156A JUMP JUMPDEST POP POP POP POP POP POP POP POP POP POP JUMP JUMPDEST PUSH0 DUP1 DUP3 SWAP1 POP PUSH0 DUP1 PUSH1 0x2 SWAP1 POP JUMPDEST PUSH1 0x2A DUP2 LT ISZERO PUSH2 0x969 JUMPI PUSH0 DUP4 DUP3 DUP2 MLOAD DUP2 LT PUSH2 0x89D JUMPI PUSH2 0x89C PUSH2 0x16AF JUMP JUMPDEST JUMPDEST PUSH1 0x20 ADD ADD MLOAD PUSH1 0xF8 SHR PUSH1 0xF8 SHL PUSH1 0xF8 SHR SWAP1 POP PUSH1 0x30 DUP2 PUSH1 0xFF AND LT ISZERO DUP1 ISZERO PUSH2 0x8C5 JUMPI POP PUSH1 0x39 DUP2 PUSH1 0xFF AND GT ISZERO JUMPDEST ISZERO PUSH2 0x8DE JUMPI PUSH1 0x30 DUP2 PUSH2 0x8D7 SWAP2 SWAP1 PUSH2 0x1715 JUMP JUMPDEST SWAP1 POP PUSH2 0x93E JUMP JUMPDEST PUSH1 0x41 DUP2 PUSH1 0xFF AND LT ISZERO DUP1 ISZERO PUSH2 0x8F6 JUMPI POP PUSH1 0x46 DUP2 PUSH1 0xFF AND GT ISZERO JUMPDEST ISZERO PUSH2 0x90F JUMPI PUSH1 0x37 DUP2 PUSH2 0x908 SWAP2 SWAP1 PUSH2 0x1715 JUMP JUMPDEST SWAP1 POP PUSH2 0x93D JUMP JUMPDEST PUSH1 0x61 DUP2 PUSH1 0xFF AND LT ISZERO DUP1 ISZERO PUSH2 0x927 JUMPI POP PUSH1 0x66 DUP2 PUSH1 0xFF AND GT ISZERO JUMPDEST ISZERO PUSH2 0x93C JUMPI PUSH1 0x57 DUP2 PUSH2 0x939 SWAP2 SWAP1 PUSH2 0x1715 JUMP JUMPDEST SWAP1 POP JUMPDEST JUMPDEST JUMPDEST DUP1 PUSH1 0xFF AND PUSH1 0x10 DUP5 PUSH2 0x94F SWAP2 SWAP1 PUSH2 0x1749 JUMP JUMPDEST PUSH2 0x959 SWAP2 SWAP1 PUSH2 0x178A JUMP JUMPDEST SWAP3 POP POP DUP1 DUP1 PUSH1 0x1 ADD SWAP2 POP POP PUSH2 0x880 JUMP JUMPDEST POP DUP1 SWAP3 POP POP POP SWAP2 SWAP1 POP JUMP JUMPDEST PUSH0 PUSH20 0xFFFFFFFFFFFFFFFFFFFFFFFFFFFFFFFFFFFFFFFF DUP3 AND SWAP1 POP SWAP2 SWAP1 POP JUMP JUMPDEST PUSH0 DUP2 SWAP1 POP SWAP2 SWAP1 POP JUMP JUMPDEST PUSH0 PUSH2 0x9B6 PUSH2 0x9B1 PUSH2 0x9AC DUP5 PUSH2 0x974 JUMP JUMPDEST PUSH2 0x993 JUMP JUMPDEST PUSH2 0x974 JUMP JUMPDEST SWAP1 POP SWAP2 SWAP1 POP JUMP JUMPDEST PUSH0 PUSH2 0x9C7 DUP3 PUSH2 0x99C JUMP JUMPDEST SWAP1 POP SWAP2 SWAP1 POP JUMP JUMPDEST PUSH0 PUSH2 0x9D8 DUP3 PUSH2 0x9BD JUMP JUMPDEST SWAP1 POP SWAP2 SWAP1 POP JUMP JUMPDEST PUSH2 0x9E8 DUP2 PUSH2 0x9CE JUMP JUMPDEST DUP3 MSTORE POP POP JUMP JUMPDEST PUSH0 PUSH1 0x20 DUP3 ADD SWAP1 POP PUSH2 0xA01 PUSH0 DUP4 ADD DUP5 PUSH2 0x9DF JUMP JUMPDEST SWAP3 SWAP2 POP POP JUMP JUMPDEST PUSH0 PUSH1 0x40 MLOAD SWAP1 POP SWAP1 JUMP JUMPDEST PUSH0 DUP1 REVERT JUMPDEST PUSH0 DUP1 REVERT JUMPDEST PUSH0 DUP2 SWAP1 POP SWAP2 SWAP1 POP JUMP JUMPDEST PUSH2 0xA2A DUP2 PUSH2 0xA18 JUMP JUMPDEST DUP2 EQ PUSH2 0xA34 JUMPI PUSH0 DUP1 REVERT JUMPDEST POP JUMP JUMPDEST PUSH0 DUP2 CALLDATALOAD SWAP1 POP PUSH2 0xA45 DUP2 PUSH2 0xA21 JUMP JUMPDEST SWAP3 SWAP2 POP POP JUMP JUMPDEST PUSH0 DUP1 REVERT JUMPDEST PUSH0 DUP1 REVERT JUMPDEST PUSH0 DUP1 REVERT JUMPDEST PUSH0 DUP1 DUP4 PUSH1 0x1F DUP5 ADD SLT PUSH2 0xA6C JUMPI PUSH2 0xA6B PUSH2 0xA4B JUMP JUMPDEST JUMPDEST DUP3 CALLDATALOAD SWAP1 POP PUSH8 0xFFFFFFFFFFFFFFFF DUP2 GT ISZERO PUSH2 0xA89 JUMPI PUSH2 0xA88 PUSH2 0xA4F JUMP JUMPDEST JUMPDEST PUSH1 0x20 DUP4 ADD SWAP2 POP DUP4 PUSH1 0x1 DUP3 MUL DUP4 ADD GT ISZERO PUSH2 0xAA5 JUMPI PUSH2 0xAA4 PUSH2 0xA53 JUMP JUMPDEST JUMPDEST SWAP3 POP SWAP3 SWAP1 POP JUMP JUMPDEST PUSH0 DUP1 DUP4 PUSH1 0x1F DUP5 ADD SLT PUSH2 0xAC1 JUMPI PUSH2 0xAC0 PUSH2 0xA4B JUMP JUMPDEST JUMPDEST DUP3 CALLDATALOAD SWAP1 POP PUSH8 0xFFFFFFFFFFFFFFFF DUP2 GT ISZERO PUSH2 0xADE JUMPI PUSH2 0xADD PUSH2 0xA4F JUMP JUMPDEST JUMPDEST PUSH1 0x20 DUP4 ADD SWAP2 POP DUP4 PUSH1 0x1 DUP3 MUL DUP4 ADD GT ISZERO PUSH2 0xAFA JUMPI PUSH2 0xAF9 PUSH2 0xA53 JUMP JUMPDEST JUMPDEST SWAP3 POP SWAP3 SWAP1 POP JUMP JUMPDEST PUSH0 DUP2 SWAP1 POP SWAP2 SWAP1 POP JUMP JUMPDEST PUSH2 0xB13 DUP2 PUSH2 0xB01 JUMP JUMPDEST DUP2 EQ PUSH2 0xB1D JUMPI PUSH0 DUP1 REVERT JUMPDEST POP JUMP JUMPDEST PUSH0 DUP2 CALLDATALOAD SWAP1 POP PUSH2 0xB2E DUP2 PUSH2 0xB0A JUMP JUMPDEST SWAP3 SWAP2 POP POP JUMP JUMPDEST PUSH0 DUP1 PUSH0 DUP1 PUSH0 DUP1 PUSH0 DUP1 PUSH0 DUP1 PUSH1 0xC0 DUP12 DUP14 SUB SLT ISZERO PUSH2 0xB52 JUMPI PUSH2 0xB51 PUSH2 0xA10 JUMP JUMPDEST JUMPDEST PUSH0 PUSH2 0xB5F DUP14 DUP3 DUP15 ADD PUSH2 0xA37 JUMP JUMPDEST SWAP11 POP POP PUSH1 0x20 DUP12 ADD CALLDATALOAD PUSH8 0xFFFFFFFFFFFFFFFF DUP2 GT ISZERO PUSH2 0xB80 JUMPI PUSH2 0xB7F PUSH2 0xA14 JUMP JUMPDEST JUMPDEST PUSH2 0xB8C DUP14 DUP3 DUP15 ADD PUSH2 0xA57 JUMP JUMPDEST SWAP10 POP SWAP10 POP POP PUSH1 0x40 DUP12 ADD CALLDATALOAD PUSH8 0xFFFFFFFFFFFFFFFF DUP2 GT ISZERO PUSH2 0xBAF JUMPI PUSH2 0xBAE PUSH2 0xA14 JUMP JUMPDEST JUMPDEST PUSH2 0xBBB DUP14 DUP3 DUP15 ADD PUSH2 0xA57 JUMP JUMPDEST SWAP8 POP SWAP8 POP POP PUSH1 0x60 DUP12 ADD CALLDATALOAD PUSH8 0xFFFFFFFFFFFFFFFF DUP2 GT ISZERO PUSH2 0xBDE JUMPI PUSH2 0xBDD PUSH2 0xA14 JUMP JUMPDEST JUMPDEST PUSH2 0xBEA DUP14 DUP3 DUP15 ADD PUSH2 0xAAC JUMP JUMPDEST SWAP6 POP SWAP6 POP POP PUSH1 0x80 DUP12 ADD CALLDATALOAD PUSH8 0xFFFFFFFFFFFFFFFF DUP2 GT ISZERO PUSH2 0xC0D JUMPI PUSH2 0xC0C PUSH2 0xA14 JUMP JUMPDEST JUMPDEST PUSH2 0xC19 DUP14 DUP3 DUP15 ADD PUSH2 0xA57 JUMP JUMPDEST SWAP4 POP SWAP4 POP POP PUSH1 0xA0 PUSH2 0xC2C DUP14 DUP3 DUP15 ADD PUSH2 0xB20 JUMP JUMPDEST SWAP2 POP POP SWAP3 SWAP6 SWAP9 SWAP12 SWAP2 SWAP5 SWAP8 SWAP11 POP SWAP3 SWAP6 SWAP9 POP JUMP JUMPDEST PUSH0 DUP1 PUSH0 DUP1 PUSH0 DUP1 PUSH0 PUSH1 0x80 DUP9 DUP11 SUB SLT ISZERO PUSH2 0xC59 JUMPI PUSH2 0xC58 PUSH2 0xA10 JUMP JUMPDEST JUMPDEST PUSH0 PUSH2 0xC66 DUP11 DUP3 DUP12 ADD PUSH2 0xA37 JUMP JUMPDEST SWAP8 POP POP PUSH1 0x20 DUP9 ADD CALLDATALOAD PUSH8 0xFFFFFFFFFFFFFFFF DUP2 GT ISZERO PUSH2 0xC87 JUMPI PUSH2 0xC86 PUSH2 0xA14 JUMP JUMPDEST JUMPDEST PUSH2 0xC93 DUP11 DUP3 DUP12 ADD PUSH2 0xA57 JUMP JUMPDEST SWAP7 POP SWAP7 POP POP PUSH1 0x40 DUP9 ADD CALLDATALOAD PUSH8 0xFFFFFFFFFFFFFFFF DUP2 GT ISZERO PUSH2 0xCB6 JUMPI PUSH2 0xCB5 PUSH2 0xA14 JUMP JUMPDEST JUMPDEST PUSH2 0xCC2 DUP11 DUP3 DUP12 ADD PUSH2 0xA57 JUMP JUMPDEST SWAP5 POP SWAP5 POP POP PUSH1 0x60 DUP9 ADD CALLDATALOAD PUSH8 0xFFFFFFFFFFFFFFFF DUP2 GT ISZERO PUSH2 0xCE5 JUMPI PUSH2 0xCE4 PUSH2 0xA14 JUMP JUMPDEST JUMPDEST PUSH2 0xCF1 DUP11 DUP3 DUP12 ADD PUSH2 0xAAC JUMP JUMPDEST SWAP3 POP SWAP3 POP POP SWAP3 SWAP6 SWAP9 SWAP2 SWAP5 SWAP8 POP SWAP3 SWAP6 POP JUMP JUMPDEST PUSH0 PUSH2 0xD0C DUP3 PUSH2 0x974 JUMP JUMPDEST SWAP1 POP SWAP2 SWAP1 POP JUMP JUMPDEST PUSH2 0xD1C DUP2 PUSH2 0xD02 JUMP JUMPDEST DUP2 EQ PUSH2 0xD26 JUMPI PUSH0 DUP1 REVERT JUMPDEST POP JUMP JUMPDEST PUSH0 DUP2 CALLDATALOAD SWAP1 POP PUSH2 0xD37 DUP2 PUSH2 0xD13 JUMP JUMPDEST SWAP3 SWAP2 POP POP JUMP JUMPDEST PUSH0 PUSH1 0x20 DUP3 DUP5 SUB SLT ISZERO PUSH2 0xD52 JUMPI PUSH2 0xD51 PUSH2 0xA10 JUMP JUMPDEST JUMPDEST PUSH0 PUSH2 0xD5F DUP5 DUP3 DUP6 ADD PUSH2 0xD29 JUMP JUMPDEST SWAP2 POP POP SWAP3 SWAP2 POP POP JUMP JUMPDEST PUSH0 DUP2 MLOAD SWAP1 POP SWAP2 SWAP1 POP JUMP JUMPDEST PUSH0 DUP3 DUP3 MSTORE PUSH1 0x20 DUP3 ADD SWAP1 POP SWAP3 SWAP2 POP POP JUMP JUMPDEST DUP3 DUP2 DUP4 MCOPY PUSH0 DUP4 DUP4 ADD MSTORE POP POP POP JUMP JUMPDEST PUSH0 PUSH1 0x1F NOT PUSH1 0x1F DUP4 ADD AND SWAP1 POP SWAP2 SWAP1 POP JUMP JUMPDEST PUSH0 PUSH2 0xDAA DUP3 PUSH2 0xD68 JUMP JUMPDEST PUSH2 0xDB4 DUP2 DUP6 PUSH2 0xD72 JUMP JUMPDEST SWAP4 POP PUSH2 0xDC4 DUP2 DUP6 PUSH1 0x20 DUP7 ADD PUSH2 0xD82 JUMP JUMPDEST PUSH2 0xDCD DUP2 PUSH2 0xD90 JUMP JUMPDEST DUP5 ADD SWAP2 POP POP SWAP3 SWAP2 POP POP JUMP JUMPDEST PUSH0 PUSH1 0x20 DUP3 ADD SWAP1 POP DUP2 DUP2 SUB PUSH0 DUP4 ADD MSTORE PUSH2 0xDF0 DUP2 DUP5 PUSH2 0xDA0 JUMP JUMPDEST SWAP1 POP SWAP3 SWAP2 POP POP JUMP JUMPDEST PUSH0 PUSH2 0xE02 DUP3 PUSH2 0x9BD JUMP JUMPDEST SWAP1 POP SWAP2 SWAP1 POP JUMP JUMPDEST PUSH2 0xE12 DUP2 PUSH2 0xDF8 JUMP JUMPDEST DUP3 MSTORE POP POP JUMP JUMPDEST PUSH0 PUSH1 0x20 DUP3 ADD SWAP1 POP PUSH2 0xE2B PUSH0 DUP4 ADD DUP5 PUSH2 0xE09 JUMP JUMPDEST SWAP3 SWAP2 POP POP JUMP JUMPDEST PUSH0 DUP1 REVERT JUMPDEST PUSH32 0x4E487B7100000000000000000000000000000000000000000000000000000000 PUSH0 MSTORE PUSH1 0x41 PUSH1 0x4 MSTORE PUSH1 0x24 PUSH0 REVERT JUMPDEST PUSH2 0xE6B DUP3 PUSH2 0xD90 JUMP JUMPDEST DUP2 ADD DUP2 DUP2 LT PUSH8 0xFFFFFFFFFFFFFFFF DUP3 GT OR ISZERO PUSH2 0xE8A JUMPI PUSH2 0xE89 PUSH2 0xE35 JUMP JUMPDEST JUMPDEST DUP1 PUSH1 0x40 MSTORE POP POP POP JUMP JUMPDEST PUSH0 PUSH2 0xE9C PUSH2 0xA07 JUMP JUMPDEST SWAP1 POP PUSH2 0xEA8 DUP3 DUP3 PUSH2 0xE62 JUMP JUMPDEST SWAP2 SWAP1 POP JUMP JUMPDEST PUSH0 PUSH8 0xFFFFFFFFFFFFFFFF DUP3 GT ISZERO PUSH2 0xEC7 JUMPI PUSH2 0xEC6 PUSH2 0xE35 JUMP JUMPDEST JUMPDEST PUSH2 0xED0 DUP3 PUSH2 0xD90 JUMP JUMPDEST SWAP1 POP PUSH1 0x20 DUP2 ADD SWAP1 POP SWAP2 SWAP1 POP JUMP JUMPDEST DUP3 DUP2 DUP4 CALLDATACOPY PUSH0 DUP4 DUP4 ADD MSTORE POP POP POP JUMP JUMPDEST PUSH0 PUSH2 0xEFD PUSH2 0xEF8 DUP5 PUSH2 0xEAD JUMP JUMPDEST PUSH2 0xE93 JUMP JUMPDEST SWAP1 POP DUP3 DUP2 MSTORE PUSH1 0x20 DUP2 ADD DUP5 DUP5 DUP5 ADD GT ISZERO PUSH2 0xF19 JUMPI PUSH2 0xF18 PUSH2 0xE31 JUMP JUMPDEST JUMPDEST PUSH2 0xF24 DUP5 DUP3 DUP6 PUSH2 0xEDD JUMP JUMPDEST POP SWAP4 SWAP3 POP POP POP JUMP JUMPDEST PUSH0 DUP3 PUSH1 0x1F DUP4 ADD SLT PUSH2 0xF40 JUMPI PUSH2 0xF3F PUSH2 0xA4B JUMP JUMPDEST JUMPDEST DUP2 CALLDATALOAD PUSH2 0xF50 DUP5 DUP3 PUSH1 0x20 DUP7 ADD PUSH2 0xEEB JUMP JUMPDEST SWAP2 POP POP SWAP3 SWAP2 POP POP JUMP JUMPDEST PUSH0 DUP1 PUSH0 DUP1 PUSH1 0x80 DUP6 DUP8 SUB SLT ISZERO PUSH2 0xF71 JUMPI PUSH2 0xF70 PUSH2 0xA10 JUMP JUMPDEST JUMPDEST PUSH0 DUP6 ADD CALLDATALOAD PUSH8 0xFFFFFFFFFFFFFFFF DUP2 GT ISZERO PUSH2 0xF8E JUMPI PUSH2 0xF8D PUSH2 0xA14 JUMP JUMPDEST JUMPDEST PUSH2 0xF9A DUP8 DUP3 DUP9 ADD PUSH2 0xF2C JUMP JUMPDEST SWAP5 POP POP PUSH1 0x20 DUP6 ADD CALLDATALOAD PUSH8 0xFFFFFFFFFFFFFFFF DUP2 GT ISZERO PUSH2 0xFBB JUMPI PUSH2 0xFBA PUSH2 0xA14 JUMP JUMPDEST JUMPDEST PUSH2 0xFC7 DUP8 DUP3 DUP9 ADD PUSH2 0xF2C JUMP JUMPDEST SWAP4 POP POP PUSH1 0x40 DUP6 ADD CALLDATALOAD PUSH8 0xFFFFFFFFFFFFFFFF DUP2 GT ISZERO PUSH2 0xFE8 JUMPI PUSH2 0xFE7 PUSH2 0xA14 JUMP JUMPDEST JUMPDEST PUSH2 0xFF4 DUP8 DUP3 DUP9 ADD PUSH2 0xF2C JUMP JUMPDEST SWAP3 POP POP PUSH1 0x60 DUP6 ADD CALLDATALOAD PUSH8 0xFFFFFFFFFFFFFFFF DUP2 GT ISZERO PUSH2 0x1015 JUMPI PUSH2 0x1014 PUSH2 0xA14 JUMP JUMPDEST JUMPDEST PUSH2 0x1021 DUP8 DUP3 DUP9 ADD PUSH2 0xF2C JUMP JUMPDEST SWAP2 POP POP SWAP3 SWAP6 SWAP2 SWAP5 POP SWAP3 POP JUMP JUMPDEST PUSH0 PUSH1 0x20 DUP3 DUP5 SUB SLT ISZERO PUSH2 0x1042 JUMPI PUSH2 0x1041 PUSH2 0xA10 JUMP JUMPDEST JUMPDEST PUSH0 DUP3 ADD CALLDATALOAD PUSH8 0xFFFFFFFFFFFFFFFF DUP2 GT ISZERO PUSH2 0x105F JUMPI PUSH2 0x105E PUSH2 0xA14 JUMP JUMPDEST JUMPDEST PUSH2 0x106B DUP5 DUP3 DUP6 ADD PUSH2 0xF2C JUMP JUMPDEST SWAP2 POP POP SWAP3 SWAP2 POP POP JUMP JUMPDEST PUSH0 DUP2 SWAP1 POP SWAP3 SWAP2 POP POP JUMP JUMPDEST PUSH0 PUSH2 0x1089 DUP4 DUP6 PUSH2 0x1074 JUMP JUMPDEST SWAP4 POP PUSH2 0x1096 DUP4 DUP6 DUP5 PUSH2 0xEDD JUMP JUMPDEST DUP3 DUP5 ADD SWAP1 POP SWAP4 SWAP3 POP POP POP JUMP JUMPDEST PUSH0 PUSH2 0x10AE DUP3 DUP5 DUP7 PUSH2 0x107E JUMP JUMPDEST SWAP2 POP DUP2 SWAP1 POP SWAP4 SWAP3 POP POP POP JUMP JUMPDEST PUSH2 0x10C3 DUP2 PUSH2 0xA18 JUMP JUMPDEST DUP3 MSTORE POP POP JUMP JUMPDEST PUSH0 PUSH2 0x10D4 DUP4 DUP6 PUSH2 0xD72 JUMP JUMPDEST SWAP4 POP PUSH2 0x10E1 DUP4 DUP6 DUP5 PUSH2 0xEDD JUMP JUMPDEST PUSH2 0x10EA DUP4 PUSH2 0xD90 JUMP JUMPDEST DUP5 ADD SWAP1 POP SWAP4 SWAP3 POP POP POP JUMP JUMPDEST PUSH2 0x10FE DUP2 PUSH2 0xB01 JUMP JUMPDEST DUP3 MSTORE POP POP JUMP JUMPDEST PUSH0 PUSH1 0xC0 DUP3 ADD SWAP1 POP PUSH2 0x1117 PUSH0 DUP4 ADD DUP13 PUSH2 0x10BA JUMP JUMPDEST DUP2 DUP2 SUB PUSH1 0x20 DUP4 ADD MSTORE PUSH2 0x112A DUP2 DUP11 DUP13 PUSH2 0x10C9 JUMP JUMPDEST SWAP1 POP DUP2 DUP2 SUB PUSH1 0x40 DUP4 ADD MSTORE PUSH2 0x113F DUP2 DUP9 DUP11 PUSH2 0x10C9 JUMP JUMPDEST SWAP1 POP PUSH2 0x114E PUSH1 0x60 DUP4 ADD DUP8 PUSH2 0x10BA JUMP JUMPDEST DUP2 DUP2 SUB PUSH1 0x80 DUP4 ADD MSTORE PUSH2 0x1161 DUP2 DUP6 DUP8 PUSH2 0x10C9 JUMP JUMPDEST SWAP1 POP PUSH2 0x1170 PUSH1 0xA0 DUP4 ADD DUP5 PUSH2 0x10F5 JUMP JUMPDEST SWAP11 SWAP10 POP POP POP POP POP POP POP POP POP POP JUMP JUMPDEST PUSH0 DUP2 ISZERO ISZERO SWAP1 POP SWAP2 SWAP1 POP JUMP JUMPDEST PUSH2 0x1192 DUP2 PUSH2 0x117E JUMP JUMPDEST DUP2 EQ PUSH2 0x119C JUMPI PUSH0 DUP1 REVERT JUMPDEST POP JUMP JUMPDEST PUSH0 DUP2 MLOAD SWAP1 POP PUSH2 0x11AD DUP2 PUSH2 0x1189 JUMP JUMPDEST SWAP3 SWAP2 POP POP JUMP JUMPDEST PUSH0 PUSH1 0x20 DUP3 DUP5 SUB SLT ISZERO PUSH2 0x11C8 JUMPI PUSH2 0x11C7 PUSH2 0xA10 JUMP JUMPDEST JUMPDEST PUSH0 PUSH2 0x11D5 DUP5 DUP3 DUP6 ADD PUSH2 0x119F JUMP JUMPDEST SWAP2 POP POP SWAP3 SWAP2 POP POP JUMP JUMPDEST PUSH0 PUSH1 0x80 DUP3 ADD SWAP1 POP PUSH2 0x11F1 PUSH0 DUP4 ADD DUP10 PUSH2 0x10BA JUMP JUMPDEST DUP2 DUP2 SUB PUSH1 0x20 DUP4 ADD MSTORE PUSH2 0x1204 DUP2 DUP8 DUP10 PUSH2 0x10C9 JUMP JUMPDEST SWAP1 POP DUP2 DUP2 SUB PUSH1 0x40 DUP4 ADD MSTORE PUSH2 0x1219 DUP2 DUP6 DUP8 PUSH2 0x10C9 JUMP JUMPDEST SWAP1 POP PUSH2 0x1228 PUSH1 0x60 DUP4 ADD DUP5 PUSH2 0x10BA JUMP JUMPDEST SWAP8 SWAP7 POP POP POP POP POP POP POP JUMP JUMPDEST PUSH32 0x4E487B7100000000000000000000000000000000000000000000000000000000 PUSH0 MSTORE PUSH1 0x22 PUSH1 0x4 MSTORE PUSH1 0x24 PUSH0 REVERT JUMPDEST PUSH0 PUSH1 0x2 DUP3 DIV SWAP1 POP PUSH1 0x1 DUP3 AND DUP1 PUSH2 0x1277 JUMPI PUSH1 0x7F DUP3 AND SWAP2 POP JUMPDEST PUSH1 0x20 DUP3 LT DUP2 SUB PUSH2 0x128A JUMPI PUSH2 0x1289 PUSH2 0x1233 JUMP JUMPDEST JUMPDEST POP SWAP2 SWAP1 POP JUMP JUMPDEST PUSH0 PUSH1 0x40 DUP3 ADD SWAP1 POP DUP2 DUP2 SUB PUSH0 DUP4 ADD MSTORE PUSH2 0x12A8 DUP2 DUP6 PUSH2 0xDA0 JUMP JUMPDEST SWAP1 POP DUP2 DUP2 SUB PUSH1 0x20 DUP4 ADD MSTORE PUSH2 0x12BC DUP2 DUP5 PUSH2 0xDA0 JUMP JUMPDEST SWAP1 POP SWAP4 SWAP3 POP POP POP JUMP JUMPDEST PUSH2 0x12CE DUP2 PUSH2 0xD02 JUMP JUMPDEST DUP3 MSTORE POP POP JUMP JUMPDEST PUSH0 DUP2 MLOAD SWAP1 POP SWAP2 SWAP1 POP JUMP JUMPDEST PUSH0 DUP3 DUP3 MSTORE PUSH1 0x20 DUP3 ADD SWAP1 POP SWAP3 SWAP2 POP POP JUMP JUMPDEST PUSH0 PUSH2 0x12F8 DUP3 PUSH2 0x12D4 JUMP JUMPDEST PUSH2 0x1302 DUP2 DUP6 PUSH2 0x12DE JUMP JUMPDEST SWAP4 POP PUSH2 0x1312 DUP2 DUP6 PUSH1 0x20 DUP7 ADD PUSH2 0xD82 JUMP JUMPDEST PUSH2 0x131B DUP2 PUSH2 0xD90 JUMP JUMPDEST DUP5 ADD SWAP2 POP POP SWAP3 SWAP2 POP POP JUMP JUMPDEST PUSH0 PUSH1 0xA0 DUP3 ADD SWAP1 POP PUSH2 0x1339 PUSH0 DUP4 ADD DUP9 PUSH2 0x12C5 JUMP JUMPDEST DUP2 DUP2 SUB PUSH1 0x20 DUP4 ADD MSTORE PUSH2 0x134B DUP2 DUP8 PUSH2 0xDA0 JUMP JUMPDEST SWAP1 POP DUP2 DUP2 SUB PUSH1 0x40 DUP4 ADD MSTORE PUSH2 0x135F DUP2 DUP7 PUSH2 0xDA0 JUMP JUMPDEST SWAP1 POP DUP2 DUP2 SUB PUSH1 0x60 DUP4 ADD MSTORE PUSH2 0x1373 DUP2 DUP6 PUSH2 0x12EE JUMP JUMPDEST SWAP1 POP PUSH2 0x1382 PUSH1 0x80 DUP4 ADD DUP5 PUSH2 0x12C5 JUMP JUMPDEST SWAP7 SWAP6 POP POP POP POP POP POP JUMP JUMPDEST PUSH0 PUSH1 0x60 DUP3 ADD SWAP1 POP DUP2 DUP2 SUB PUSH0 DUP4 ADD MSTORE PUSH2 0x13A4 DUP2 DUP7 PUSH2 0xDA0 JUMP JUMPDEST SWAP1 POP DUP2 DUP2 SUB PUSH1 0x20 DUP4 ADD MSTORE PUSH2 0x13B8 DUP2 DUP6 PUSH2 0xDA0 JUMP JUMPDEST SWAP1 POP DUP2 DUP2 SUB PUSH1 0x40 DUP4 ADD MSTORE PUSH2 0x13CC DUP2 DUP5 PUSH2 0x12EE JUMP JUMPDEST SWAP1 POP SWAP5 SWAP4 POP POP POP POP JUMP JUMPDEST PUSH0 DUP2 SWAP1 POP DUP2 PUSH0 MSTORE PUSH1 0x20 PUSH0 KECCAK256 SWAP1 POP SWAP2 SWAP1 POP JUMP JUMPDEST PUSH0 PUSH1 0x20 PUSH1 0x1F DUP4 ADD DIV SWAP1 POP SWAP2 SWAP1 POP JUMP JUMPDEST PUSH0 DUP3 DUP3 SHL SWAP1 POP SWAP3 SWAP2 POP POP JUMP JUMPDEST PUSH0 PUSH1 0x8 DUP4 MUL PUSH2 0x1432 PUSH32 0xFFFFFFFFFFFFFFFFFFFFFFFFFFFFFFFFFFFFFFFFFFFFFFFFFFFFFFFFFFFFFFFF DUP3 PUSH2 0x13F7 JUMP JUMPDEST PUSH2 0x143C DUP7 DUP4 PUSH2 0x13F7 JUMP JUMPDEST SWAP6 POP DUP1 NOT DUP5 AND SWAP4 POP DUP1 DUP7 AND DUP5 OR SWAP3 POP POP POP SWAP4 SWAP3 POP POP POP JUMP JUMPDEST PUSH0 PUSH2 0x146E PUSH2 0x1469 PUSH2 0x1464 DUP5 PUSH2 0xB01 JUMP JUMPDEST PUSH2 0x993 JUMP JUMPDEST PUSH2 0xB01 JUMP JUMPDEST SWAP1 POP SWAP2 SWAP1 POP JUMP JUMPDEST PUSH0 DUP2 SWAP1 POP SWAP2 SWAP1 POP JUMP JUMPDEST PUSH2 0x1487 DUP4 PUSH2 0x1454 JUMP JUMPDEST PUSH2 0x149B PUSH2 0x1493 DUP3 PUSH2 0x1475 JUMP JUMPDEST DUP5 DUP5 SLOAD PUSH2 0x1403 JUMP JUMPDEST DUP3 SSTORE POP POP POP POP JUMP JUMPDEST PUSH0 SWAP1 JUMP JUMPDEST PUSH2 0x14AF PUSH2 0x14A3 JUMP JUMPDEST PUSH2 0x14BA DUP2 DUP5 DUP5 PUSH2 0x147E JUMP JUMPDEST POP POP POP JUMP JUMPDEST JUMPDEST DUP2 DUP2 LT ISZERO PUSH2 0x14DD JUMPI PUSH2 0x14D2 PUSH0 DUP3 PUSH2 0x14A7 JUMP JUMPDEST PUSH1 0x1 DUP2 ADD SWAP1 POP PUSH2 0x14C0 JUMP JUMPDEST POP POP JUMP JUMPDEST PUSH1 0x1F DUP3 GT ISZERO PUSH2 0x1522 JUMPI PUSH2 0x14F3 DUP2 PUSH2 0x13D6 JUMP JUMPDEST PUSH2 0x14FC DUP5 PUSH2 0x13E8 JUMP JUMPDEST DUP2 ADD PUSH1 0x20 DUP6 LT ISZERO PUSH2 0x150B JUMPI DUP2 SWAP1 POP JUMPDEST PUSH2 0x151F PUSH2 0x1517 DUP6 PUSH2 0x13E8 JUMP JUMPDEST DUP4 ADD DUP3 PUSH2 0x14BF JUMP JUMPDEST POP POP JUMPDEST POP POP POP JUMP JUMPDEST PUSH0 DUP3 DUP3 SHR SWAP1 POP SWAP3 SWAP2 POP POP JUMP JUMPDEST PUSH0 PUSH2 0x1542 PUSH0 NOT DUP5 PUSH1 0x8 MUL PUSH2 0x1527 JUMP JUMPDEST NOT DUP1 DUP4 AND SWAP2 POP POP SWAP3 SWAP2 POP POP JUMP JUMPDEST PUSH0 PUSH2 0x155A DUP4 DUP4 PUSH2 0x1533 JUMP JUMPDEST SWAP2 POP DUP3 PUSH1 0x2 MUL DUP3 OR SWAP1 POP SWAP3 SWAP2 POP POP JUMP JUMPDEST PUSH2 0x1573 DUP3 PUSH2 0xD68 JUMP JUMPDEST PUSH8 0xFFFFFFFFFFFFFFFF DUP2 GT ISZERO PUSH2 0x158C JUMPI PUSH2 0x158B PUSH2 0xE35 JUMP JUMPDEST JUMPDEST PUSH2 0x1596 DUP3 SLOAD PUSH2 0x1260 JUMP JUMPDEST PUSH2 0x15A1 DUP3 DUP3 DUP6 PUSH2 0x14E1 JUMP JUMPDEST PUSH0 PUSH1 0x20 SWAP1 POP PUSH1 0x1F DUP4 GT PUSH1 0x1 DUP2 EQ PUSH2 0x15D2 JUMPI PUSH0 DUP5 ISZERO PUSH2 0x15C0 JUMPI DUP3 DUP8 ADD MLOAD SWAP1 POP JUMPDEST PUSH2 0x15CA DUP6 DUP3 PUSH2 0x154F JUMP JUMPDEST DUP7 SSTORE POP PUSH2 0x1631 JUMP JUMPDEST PUSH1 0x1F NOT DUP5 AND PUSH2 0x15E0 DUP7 PUSH2 0x13D6 JUMP JUMPDEST PUSH0 JUMPDEST DUP3 DUP2 LT ISZERO PUSH2 0x1607 JUMPI DUP5 DUP10 ADD MLOAD DUP3 SSTORE PUSH1 0x1 DUP3 ADD SWAP2 POP PUSH1 0x20 DUP6 ADD SWAP5 POP PUSH1 0x20 DUP2 ADD SWAP1 POP PUSH2 0x15E2 JUMP JUMPDEST DUP7 DUP4 LT ISZERO PUSH2 0x1624 JUMPI DUP5 DUP10 ADD MLOAD PUSH2 0x1620 PUSH1 0x1F DUP10 AND DUP3 PUSH2 0x1533 JUMP JUMPDEST DUP4 SSTORE POP JUMPDEST PUSH1 0x1 PUSH1 0x2 DUP9 MUL ADD DUP9 SSTORE POP POP POP JUMPDEST POP POP POP POP POP POP JUMP JUMPDEST PUSH0 DUP1 PUSH1 0x40 DUP4 DUP6 SUB SLT ISZERO PUSH2 0x164F JUMPI PUSH2 0x164E PUSH2 0xA10 JUMP JUMPDEST JUMPDEST PUSH0 DUP4 ADD CALLDATALOAD PUSH8 0xFFFFFFFFFFFFFFFF DUP2 GT ISZERO PUSH2 0x166C JUMPI PUSH2 0x166B PUSH2 0xA14 JUMP JUMPDEST JUMPDEST PUSH2 0x1678 DUP6 DUP3 DUP7 ADD PUSH2 0xF2C JUMP JUMPDEST SWAP3 POP POP PUSH1 0x20 DUP4 ADD CALLDATALOAD PUSH8 0xFFFFFFFFFFFFFFFF DUP2 GT ISZERO PUSH2 0x1699 JUMPI PUSH2 0x1698 PUSH2 0xA14 JUMP JUMPDEST JUMPDEST PUSH2 0x16A5 DUP6 DUP3 DUP7 ADD PUSH2 0xF2C JUMP JUMPDEST SWAP2 POP POP SWAP3 POP SWAP3 SWAP1 POP JUMP JUMPDEST PUSH32 0x4E487B7100000000000000000000000000000000000000000000000000000000 PUSH0 MSTORE PUSH1 0x32 PUSH1 0x4 MSTORE PUSH1 0x24 PUSH0 REVERT JUMPDEST PUSH0 PUSH1 0xFF DUP3 AND SWAP1 POP SWAP2 SWAP1 POP JUMP JUMPDEST PUSH32 0x4E487B7100000000000000000000000000000000000000000000000000000000 PUSH0 MSTORE PUSH1 0x11 PUSH1 0x4 MSTORE PUSH1 0x24 PUSH0 REVERT JUMPDEST PUSH0 PUSH2 0x171F DUP3 PUSH2 0x16DC JUMP JUMPDEST SWAP2 POP PUSH2 0x172A DUP4 PUSH2 0x16DC JUMP JUMPDEST SWAP3 POP DUP3 DUP3 SUB SWAP1 POP PUSH1 0xFF DUP2 GT ISZERO PUSH2 0x1743 JUMPI PUSH2 0x1742 PUSH2 0x16E8 JUMP JUMPDEST JUMPDEST SWAP3 SWAP2 POP POP JUMP JUMPDEST PUSH0 PUSH2 0x1753 DUP3 PUSH2 0x974 JUMP JUMPDEST SWAP2 POP PUSH2 0x175E DUP4 PUSH2 0x974 JUMP JUMPDEST SWAP3 POP DUP3 DUP3 MUL PUSH2 0x176C DUP2 PUSH2 0x974 JUMP JUMPDEST SWAP2 POP DUP3 DUP3 DIV DUP5 EQ DUP4 ISZERO OR PUSH2 0x1783 JUMPI PUSH2 0x1782 PUSH2 0x16E8 JUMP JUMPDEST JUMPDEST POP SWAP3 SWAP2 POP POP JUMP JUMPDEST PUSH0 PUSH2 0x1794 DUP3 PUSH2 0x974 JUMP JUMPDEST SWAP2 POP PUSH2 0x179F DUP4 PUSH2 0x974 JUMP JUMPDEST SWAP3 POP DUP3 DUP3 ADD SWAP1 POP PUSH20 0xFFFFFFFFFFFFFFFFFFFFFFFFFFFFFFFFFFFFFFFF DUP2 GT ISZERO PUSH2 0x17CB JUMPI PUSH2 0x17CA PUSH2 0x16E8 JUMP JUMPDEST JUMPDEST SWAP3 SWAP2 POP POP JUMP INVALID LOG2 PUSH5 0x6970667358 0x22 SLT KECCAK256 DUP13 PUSH16 0x49DE8D09F2D3B42E1C77806EA33547AE SWAP3 ADDRESS PUSH22 0x7BCBF511B6956C5C67A45564736F6C634300081A0033 "
				},
				"gasEstimates": {
					"creation": {
						"codeDepositCost": "1230200",
						"executionCost": "infinite",
						"totalCost": "infinite"
					},
					"external": {
						"execute(bytes32,string,string,bytes)": "infinite",
						"executeWithToken(bytes32,string,string,bytes,string,uint256)": "infinite",
						"gasService()": "infinite",
						"gateway()": "infinite",
						"quotes(address)": "infinite",
						"retrieveQuote(address)": "infinite",
						"sendCrossChainQuote(string,string,string,string)": "infinite",
						"storeQuote(string)": "infinite"
					},
					"internal": {
						"_execute(string calldata,string calldata,bytes calldata)": "infinite",
						"_stringToAddress(string memory)": "infinite"
					}
				},
				"methodIdentifiers": {
					"execute(bytes32,string,string,bytes)": "49160658",
					"executeWithToken(bytes32,string,string,bytes,string,uint256)": "1a98b2e0",
					"gasService()": "6a22d8cc",
					"gateway()": "116191b6",
					"quotes(address)": "5311312f",
					"retrieveQuote(address)": "864e13e1",
					"sendCrossChainQuote(string,string,string,string)": "96bdcd72",
					"storeQuote(string)": "b0651841"
				}
			},
			"storageLayout": {
				"storage": [
					{
						"astId": 1232,
						"contract": "contracts/GreetingCard.sol:GreetingCard",
						"label": "quotes",
						"offset": 0,
						"slot": "0",
						"type": "t_mapping(t_address,t_string_storage)"
					}
				],
				"types": {
					"t_address": {
						"encoding": "inplace",
						"label": "address",
						"numberOfBytes": "20"
					},
					"t_mapping(t_address,t_string_storage)": {
						"encoding": "mapping",
						"key": "t_address",
						"label": "mapping(address => string)",
						"numberOfBytes": "32",
						"value": "t_string_storage"
					},
					"t_string_storage": {
						"encoding": "bytes",
						"label": "string",
						"numberOfBytes": "32"
					}
				}
			},
			"userdoc": {
				"kind": "user",
				"methods": {},
				"version": 1
			}
		}
	}
}